{
  "_format": "hh-sol-artifact-1",
  "contractName": "GeneralDAOVoting",
  "sourceName": "contracts/GeneralDAOVoting.sol",
  "abi": [
    {
      "inputs": [
        {
          "internalType": "string",
          "name": "name",
          "type": "string"
        },
        {
          "internalType": "enum ParameterType",
          "name": "expected",
          "type": "uint8"
        },
        {
          "internalType": "enum ParameterType",
          "name": "actual",
          "type": "uint8"
        }
      ],
      "name": "InvalidParameterType",
      "type": "error"
    },
    {
      "anonymous": false,
      "inputs": [
        {
          "indexed": false,
          "internalType": "uint8",
          "name": "version",
          "type": "uint8"
        }
      ],
      "name": "Initialized",
      "type": "event"
    },
    {
      "anonymous": false,
      "inputs": [
        {
          "indexed": true,
          "internalType": "uint256",
          "name": "id",
          "type": "uint256"
        },
        {
          "components": [
            {
              "internalType": "uint256",
              "name": "id",
              "type": "uint256"
            },
            {
              "internalType": "string",
              "name": "remark",
              "type": "string"
            },
            {
              "internalType": "string",
              "name": "relatedExpertPanel",
              "type": "string"
            },
            {
              "internalType": "string",
              "name": "relatedVotingSituation",
              "type": "string"
            },
            {
              "internalType": "bytes",
              "name": "callData",
              "type": "bytes"
            },
            {
              "internalType": "address",
              "name": "target",
              "type": "address"
            },
            {
              "components": [
                {
                  "internalType": "enum VotingType",
                  "name": "votingType",
                  "type": "uint8"
                },
                {
                  "internalType": "uint256",
                  "name": "votingStartTime",
                  "type": "uint256"
                },
                {
                  "internalType": "uint256",
                  "name": "votingEndTime",
                  "type": "uint256"
                },
                {
                  "internalType": "uint256",
                  "name": "vetoEndTime",
                  "type": "uint256"
                },
                {
                  "internalType": "uint256",
                  "name": "proposalExecutionPeriod",
                  "type": "uint256"
                },
                {
                  "internalType": "uint256",
                  "name": "requiredQuorum",
                  "type": "uint256"
                },
                {
                  "internalType": "uint256",
                  "name": "requiredMajority",
                  "type": "uint256"
                },
                {
                  "internalType": "uint256",
                  "name": "requiredVetoQuorum",
                  "type": "uint256"
                }
              ],
              "internalType": "struct IDAOVoting.VotingParams",
              "name": "params",
              "type": "tuple"
            },
            {
              "components": [
                {
                  "internalType": "uint256",
                  "name": "votedFor",
                  "type": "uint256"
                },
                {
                  "internalType": "uint256",
                  "name": "votedAgainst",
                  "type": "uint256"
                },
                {
                  "internalType": "uint256",
                  "name": "vetoesCount",
                  "type": "uint256"
                }
              ],
              "internalType": "struct IDAOVoting.VotingCounters",
              "name": "counters",
              "type": "tuple"
            },
            {
              "internalType": "bool",
              "name": "executed",
              "type": "bool"
            }
          ],
          "indexed": false,
          "internalType": "struct IDAOVoting.DAOProposal",
          "name": "proposal",
          "type": "tuple"
        }
      ],
      "name": "ProposalCreated",
      "type": "event"
    },
    {
      "anonymous": false,
      "inputs": [
        {
          "indexed": true,
          "internalType": "uint256",
          "name": "id",
          "type": "uint256"
        }
      ],
      "name": "ProposalExecuted",
      "type": "event"
    },
    {
      "anonymous": false,
      "inputs": [
        {
          "indexed": true,
          "internalType": "uint256",
          "name": "id",
          "type": "uint256"
        },
        {
          "indexed": true,
          "internalType": "address",
          "name": "voter",
          "type": "address"
        }
      ],
      "name": "UserVetoed",
      "type": "event"
    },
    {
      "anonymous": false,
      "inputs": [
        {
          "indexed": true,
          "internalType": "uint256",
          "name": "id",
          "type": "uint256"
        },
        {
          "indexed": true,
          "internalType": "address",
          "name": "voter",
          "type": "address"
        },
        {
          "indexed": false,
          "internalType": "uint256",
          "name": "votingPower",
          "type": "uint256"
        },
        {
          "indexed": false,
          "internalType": "enum IDAOVoting.VotingOption",
          "name": "option",
          "type": "uint8"
        }
      ],
      "name": "UserVoted",
      "type": "event"
    },
    {
      "anonymous": false,
      "inputs": [
        {
          "indexed": true,
          "internalType": "string",
          "name": "name",
          "type": "string"
        },
        {
          "components": [
            {
              "internalType": "uint256",
              "name": "votingPeriod",
              "type": "uint256"
            },
            {
              "internalType": "uint256",
              "name": "vetoPeriod",
              "type": "uint256"
            },
            {
              "internalType": "uint256",
              "name": "proposalExecutionPeriod",
              "type": "uint256"
            },
            {
              "internalType": "uint256",
              "name": "requiredQuorum",
              "type": "uint256"
            },
            {
              "internalType": "uint256",
              "name": "requiredMajority",
              "type": "uint256"
            },
            {
              "internalType": "uint256",
              "name": "requiredVetoQuorum",
              "type": "uint256"
            },
            {
              "internalType": "uint256",
              "name": "votingType",
              "type": "uint256"
            },
            {
              "internalType": "string",
              "name": "votingTarget",
              "type": "string"
            },
            {
              "internalType": "uint256",
              "name": "votingMinAmount",
              "type": "uint256"
            }
          ],
          "indexed": false,
          "internalType": "struct IDAOVoting.DAOVotingValues",
          "name": "values",
          "type": "tuple"
        }
      ],
      "name": "VotingSituationCreated",
      "type": "event"
    },
    {
      "anonymous": false,
      "inputs": [
        {
          "indexed": true,
          "internalType": "string",
          "name": "name",
          "type": "string"
        }
      ],
      "name": "VotingSituationRemoved",
      "type": "event"
    },
    {
      "inputs": [],
      "name": "DAO_VOTING_RESOURCE",
      "outputs": [
        {
          "internalType": "string",
          "name": "",
          "type": "string"
        }
      ],
      "stateMutability": "view",
      "type": "function"
    },
    {
      "inputs": [],
      "name": "PROPOSAL_EXECUTION_PERIOD",
      "outputs": [
        {
          "internalType": "string",
          "name": "",
          "type": "string"
        }
      ],
      "stateMutability": "view",
      "type": "function"
    },
    {
      "inputs": [],
      "name": "REQUIRED_MAJORITY",
      "outputs": [
        {
          "internalType": "string",
          "name": "",
          "type": "string"
        }
      ],
      "stateMutability": "view",
      "type": "function"
    },
    {
      "inputs": [],
      "name": "REQUIRED_QUORUM",
      "outputs": [
        {
          "internalType": "string",
          "name": "",
          "type": "string"
        }
      ],
      "stateMutability": "view",
      "type": "function"
    },
    {
      "inputs": [],
      "name": "REQUIRED_VETO_QUORUM",
      "outputs": [
        {
          "internalType": "string",
          "name": "",
          "type": "string"
        }
      ],
      "stateMutability": "view",
      "type": "function"
    },
    {
      "inputs": [],
      "name": "VETO_PERIOD",
      "outputs": [
        {
          "internalType": "string",
          "name": "",
          "type": "string"
        }
      ],
      "stateMutability": "view",
      "type": "function"
    },
    {
      "inputs": [],
      "name": "VOTING_MIN_AMOUNT",
      "outputs": [
        {
          "internalType": "string",
          "name": "",
          "type": "string"
        }
      ],
      "stateMutability": "view",
      "type": "function"
    },
    {
      "inputs": [],
      "name": "VOTING_PERIOD",
      "outputs": [
        {
          "internalType": "string",
          "name": "",
          "type": "string"
        }
      ],
      "stateMutability": "view",
      "type": "function"
    },
    {
      "inputs": [],
      "name": "VOTING_TARGET",
      "outputs": [
        {
          "internalType": "string",
          "name": "",
          "type": "string"
        }
      ],
      "stateMutability": "view",
      "type": "function"
    },
    {
      "inputs": [],
      "name": "VOTING_TYPE",
      "outputs": [
        {
          "internalType": "string",
          "name": "",
          "type": "string"
        }
      ],
      "stateMutability": "view",
      "type": "function"
    },
    {
      "inputs": [
        {
          "components": [
            {
              "internalType": "string",
              "name": "panelName",
              "type": "string"
            },
            {
              "internalType": "address",
              "name": "votingToken",
              "type": "address"
            }
          ],
          "internalType": "struct IDAOVoting.ConstructorParams",
          "name": "params_",
          "type": "tuple"
        },
        {
          "internalType": "string",
          "name": "resource_",
          "type": "string"
        }
      ],
      "name": "__DAOVoting_init",
      "outputs": [],
      "stateMutability": "nonpayable",
      "type": "function"
    },
    {
      "inputs": [
        {
          "internalType": "address",
          "name": "member_",
          "type": "address"
        },
        {
          "internalType": "string",
          "name": "permission_",
          "type": "string"
        }
      ],
      "name": "checkPermission",
      "outputs": [
        {
          "internalType": "bool",
          "name": "",
          "type": "bool"
        }
      ],
      "stateMutability": "view",
      "type": "function"
    },
    {
      "inputs": [
        {
          "components": [
            {
              "internalType": "string",
              "name": "votingSituationName",
              "type": "string"
            },
            {
              "components": [
                {
                  "internalType": "uint256",
                  "name": "votingPeriod",
                  "type": "uint256"
                },
                {
                  "internalType": "uint256",
                  "name": "vetoPeriod",
                  "type": "uint256"
                },
                {
                  "internalType": "uint256",
                  "name": "proposalExecutionPeriod",
                  "type": "uint256"
                },
                {
                  "internalType": "uint256",
                  "name": "requiredQuorum",
                  "type": "uint256"
                },
                {
                  "internalType": "uint256",
                  "name": "requiredMajority",
                  "type": "uint256"
                },
                {
                  "internalType": "uint256",
                  "name": "requiredVetoQuorum",
                  "type": "uint256"
                },
                {
                  "internalType": "uint256",
                  "name": "votingType",
                  "type": "uint256"
                },
                {
                  "internalType": "string",
                  "name": "votingTarget",
                  "type": "string"
                },
                {
                  "internalType": "uint256",
                  "name": "votingMinAmount",
                  "type": "uint256"
                }
              ],
              "internalType": "struct IDAOVoting.DAOVotingValues",
              "name": "votingValues",
              "type": "tuple"
            }
          ],
          "internalType": "struct IDAOVoting.InitialSituation",
          "name": "conf_",
          "type": "tuple"
        }
      ],
      "name": "createDAOVotingSituation",
      "outputs": [],
      "stateMutability": "nonpayable",
      "type": "function"
    },
    {
      "inputs": [
        {
          "internalType": "string",
          "name": "situation_",
          "type": "string"
        },
        {
          "internalType": "string",
          "name": "remark_",
          "type": "string"
        },
        {
          "internalType": "bytes",
          "name": "callData_",
          "type": "bytes"
        }
      ],
      "name": "createProposal",
      "outputs": [
        {
          "internalType": "uint256",
          "name": "",
          "type": "uint256"
        }
      ],
      "stateMutability": "nonpayable",
      "type": "function"
    },
    {
      "inputs": [],
      "name": "daoParameterStorage",
      "outputs": [
        {
          "internalType": "contract DAOParameterStorage",
          "name": "",
          "type": "address"
        }
      ],
      "stateMutability": "view",
      "type": "function"
    },
    {
      "inputs": [],
      "name": "daoRegistry",
      "outputs": [
        {
          "internalType": "contract DAORegistry",
          "name": "",
          "type": "address"
        }
      ],
      "stateMutability": "view",
      "type": "function"
    },
    {
      "inputs": [],
      "name": "daoVault",
      "outputs": [
        {
          "internalType": "contract DAOVault",
          "name": "",
          "type": "address"
        }
      ],
      "stateMutability": "view",
      "type": "function"
    },
    {
      "inputs": [
        {
          "internalType": "uint256",
          "name": "proposalId_",
          "type": "uint256"
        }
      ],
      "name": "executeProposal",
      "outputs": [],
      "stateMutability": "nonpayable",
      "type": "function"
    },
    {
      "inputs": [],
      "name": "getInjector",
      "outputs": [
        {
          "internalType": "address",
          "name": "injector_",
          "type": "address"
        }
      ],
      "stateMutability": "view",
      "type": "function"
    },
    {
      "inputs": [
        {
          "internalType": "uint256",
          "name": "proposalId_",
          "type": "uint256"
        }
      ],
      "name": "getProposal",
      "outputs": [
        {
          "components": [
            {
              "internalType": "uint256",
              "name": "id",
              "type": "uint256"
            },
            {
              "internalType": "string",
              "name": "remark",
              "type": "string"
            },
            {
              "internalType": "string",
              "name": "relatedExpertPanel",
              "type": "string"
            },
            {
              "internalType": "string",
              "name": "relatedVotingSituation",
              "type": "string"
            },
            {
              "internalType": "bytes",
              "name": "callData",
              "type": "bytes"
            },
            {
              "internalType": "address",
              "name": "target",
              "type": "address"
            },
            {
              "components": [
                {
                  "internalType": "enum VotingType",
                  "name": "votingType",
                  "type": "uint8"
                },
                {
                  "internalType": "uint256",
                  "name": "votingStartTime",
                  "type": "uint256"
                },
                {
                  "internalType": "uint256",
                  "name": "votingEndTime",
                  "type": "uint256"
                },
                {
                  "internalType": "uint256",
                  "name": "vetoEndTime",
                  "type": "uint256"
                },
                {
                  "internalType": "uint256",
                  "name": "proposalExecutionPeriod",
                  "type": "uint256"
                },
                {
                  "internalType": "uint256",
                  "name": "requiredQuorum",
                  "type": "uint256"
                },
                {
                  "internalType": "uint256",
                  "name": "requiredMajority",
                  "type": "uint256"
                },
                {
                  "internalType": "uint256",
                  "name": "requiredVetoQuorum",
                  "type": "uint256"
                }
              ],
              "internalType": "struct IDAOVoting.VotingParams",
              "name": "params",
              "type": "tuple"
            },
            {
              "components": [
                {
                  "internalType": "uint256",
                  "name": "votedFor",
                  "type": "uint256"
                },
                {
                  "internalType": "uint256",
                  "name": "votedAgainst",
                  "type": "uint256"
                },
                {
                  "internalType": "uint256",
                  "name": "vetoesCount",
                  "type": "uint256"
                }
              ],
              "internalType": "struct IDAOVoting.VotingCounters",
              "name": "counters",
              "type": "tuple"
            },
            {
              "internalType": "bool",
              "name": "executed",
              "type": "bool"
            }
          ],
          "internalType": "struct IDAOVoting.DAOProposal",
          "name": "",
          "type": "tuple"
        }
      ],
      "stateMutability": "view",
      "type": "function"
    },
    {
      "inputs": [
        {
          "internalType": "uint256",
          "name": "offset_",
          "type": "uint256"
        },
        {
          "internalType": "uint256",
          "name": "limit_",
          "type": "uint256"
        }
      ],
      "name": "getProposalList",
      "outputs": [
        {
          "components": [
            {
              "internalType": "uint256",
              "name": "id",
              "type": "uint256"
            },
            {
              "internalType": "string",
              "name": "remark",
              "type": "string"
            },
            {
              "internalType": "string",
              "name": "relatedExpertPanel",
              "type": "string"
            },
            {
              "internalType": "string",
              "name": "relatedVotingSituation",
              "type": "string"
            },
            {
              "internalType": "bytes",
              "name": "callData",
              "type": "bytes"
            },
            {
              "internalType": "address",
              "name": "target",
              "type": "address"
            },
            {
              "components": [
                {
                  "internalType": "enum VotingType",
                  "name": "votingType",
                  "type": "uint8"
                },
                {
                  "internalType": "uint256",
                  "name": "votingStartTime",
                  "type": "uint256"
                },
                {
                  "internalType": "uint256",
                  "name": "votingEndTime",
                  "type": "uint256"
                },
                {
                  "internalType": "uint256",
                  "name": "vetoEndTime",
                  "type": "uint256"
                },
                {
                  "internalType": "uint256",
                  "name": "proposalExecutionPeriod",
                  "type": "uint256"
                },
                {
                  "internalType": "uint256",
                  "name": "requiredQuorum",
                  "type": "uint256"
                },
                {
                  "internalType": "uint256",
                  "name": "requiredMajority",
                  "type": "uint256"
                },
                {
                  "internalType": "uint256",
                  "name": "requiredVetoQuorum",
                  "type": "uint256"
                }
              ],
              "internalType": "struct IDAOVoting.VotingParams",
              "name": "params",
              "type": "tuple"
            },
            {
              "components": [
                {
                  "internalType": "uint256",
                  "name": "votedFor",
                  "type": "uint256"
                },
                {
                  "internalType": "uint256",
                  "name": "votedAgainst",
                  "type": "uint256"
                },
                {
                  "internalType": "uint256",
                  "name": "vetoesCount",
                  "type": "uint256"
                }
              ],
              "internalType": "struct IDAOVoting.VotingCounters",
              "name": "counters",
              "type": "tuple"
            },
            {
              "internalType": "bool",
              "name": "executed",
              "type": "bool"
            }
          ],
          "internalType": "struct IDAOVoting.DAOProposal[]",
          "name": "",
          "type": "tuple[]"
        }
      ],
      "stateMutability": "view",
      "type": "function"
    },
    {
      "inputs": [
        {
          "internalType": "uint256",
          "name": "proposalId_",
          "type": "uint256"
        }
      ],
      "name": "getProposalStatus",
      "outputs": [
        {
          "internalType": "enum IDAOVoting.ProposalStatus",
          "name": "",
          "type": "uint8"
        }
      ],
      "stateMutability": "view",
      "type": "function"
    },
    {
      "inputs": [
        {
          "internalType": "uint256",
          "name": "proposalId_",
          "type": "uint256"
        }
      ],
      "name": "getProposalVotingStats",
      "outputs": [
        {
          "components": [
            {
              "internalType": "uint256",
              "name": "requiredQuorum",
              "type": "uint256"
            },
            {
              "internalType": "uint256",
              "name": "currentQuorum",
              "type": "uint256"
            },
            {
              "internalType": "uint256",
              "name": "requiredMajority",
              "type": "uint256"
            },
            {
              "internalType": "uint256",
              "name": "currentMajority",
              "type": "uint256"
            },
            {
              "internalType": "uint256",
              "name": "currentVetoQuorum",
              "type": "uint256"
            },
            {
              "internalType": "uint256",
              "name": "requiredVetoQuorum",
              "type": "uint256"
            }
          ],
          "internalType": "struct IDAOVoting.VotingStats",
          "name": "",
          "type": "tuple"
        }
      ],
      "stateMutability": "view",
      "type": "function"
    },
    {
      "inputs": [],
      "name": "getResource",
      "outputs": [
        {
          "internalType": "string",
          "name": "",
          "type": "string"
        }
      ],
      "stateMutability": "view",
      "type": "function"
    },
    {
      "inputs": [
        {
          "internalType": "string",
          "name": "situation_",
          "type": "string"
        }
      ],
      "name": "getVotingSituationInfo",
      "outputs": [
        {
          "components": [
            {
              "internalType": "uint256",
              "name": "votingPeriod",
              "type": "uint256"
            },
            {
              "internalType": "uint256",
              "name": "vetoPeriod",
              "type": "uint256"
            },
            {
              "internalType": "uint256",
              "name": "proposalExecutionPeriod",
              "type": "uint256"
            },
            {
              "internalType": "uint256",
              "name": "requiredQuorum",
              "type": "uint256"
            },
            {
              "internalType": "uint256",
              "name": "requiredMajority",
              "type": "uint256"
            },
            {
              "internalType": "uint256",
              "name": "requiredVetoQuorum",
              "type": "uint256"
            },
            {
              "internalType": "uint256",
              "name": "votingType",
              "type": "uint256"
            },
            {
              "internalType": "string",
              "name": "votingTarget",
              "type": "string"
            },
            {
              "internalType": "uint256",
              "name": "votingMinAmount",
              "type": "uint256"
            }
          ],
          "internalType": "struct IDAOVoting.DAOVotingValues",
          "name": "",
          "type": "tuple"
        }
      ],
      "stateMutability": "view",
      "type": "function"
    },
    {
      "inputs": [],
      "name": "getVotingSituations",
      "outputs": [
        {
          "internalType": "string[]",
          "name": "",
          "type": "string[]"
        }
      ],
      "stateMutability": "view",
      "type": "function"
    },
    {
      "inputs": [
        {
          "internalType": "uint256",
          "name": "",
          "type": "uint256"
        },
        {
          "internalType": "address",
          "name": "",
          "type": "address"
        }
      ],
      "name": "hasUserVetoed",
      "outputs": [
        {
          "internalType": "bool",
          "name": "",
          "type": "bool"
        }
      ],
      "stateMutability": "view",
      "type": "function"
    },
    {
      "inputs": [
        {
          "internalType": "uint256",
          "name": "",
          "type": "uint256"
        },
        {
          "internalType": "address",
          "name": "",
          "type": "address"
        }
      ],
      "name": "hasUserVoted",
      "outputs": [
        {
          "internalType": "bool",
          "name": "",
          "type": "bool"
        }
      ],
      "stateMutability": "view",
      "type": "function"
    },
    {
      "inputs": [],
      "name": "permissionManager",
      "outputs": [
        {
          "internalType": "contract PermissionManager",
          "name": "",
          "type": "address"
        }
      ],
      "stateMutability": "view",
      "type": "function"
    },
    {
      "inputs": [],
      "name": "proposalCount",
      "outputs": [
        {
          "internalType": "uint256",
          "name": "",
          "type": "uint256"
        }
      ],
      "stateMutability": "view",
      "type": "function"
    },
    {
      "inputs": [
        {
          "internalType": "uint256",
          "name": "",
          "type": "uint256"
        }
      ],
      "name": "proposals",
      "outputs": [
        {
          "internalType": "uint256",
          "name": "id",
          "type": "uint256"
        },
        {
          "internalType": "string",
          "name": "remark",
          "type": "string"
        },
        {
          "internalType": "string",
          "name": "relatedExpertPanel",
          "type": "string"
        },
        {
          "internalType": "string",
          "name": "relatedVotingSituation",
          "type": "string"
        },
        {
          "internalType": "bytes",
          "name": "callData",
          "type": "bytes"
        },
        {
          "internalType": "address",
          "name": "target",
          "type": "address"
        },
        {
          "components": [
            {
              "internalType": "enum VotingType",
              "name": "votingType",
              "type": "uint8"
            },
            {
              "internalType": "uint256",
              "name": "votingStartTime",
              "type": "uint256"
            },
            {
              "internalType": "uint256",
              "name": "votingEndTime",
              "type": "uint256"
            },
            {
              "internalType": "uint256",
              "name": "vetoEndTime",
              "type": "uint256"
            },
            {
              "internalType": "uint256",
              "name": "proposalExecutionPeriod",
              "type": "uint256"
            },
            {
              "internalType": "uint256",
              "name": "requiredQuorum",
              "type": "uint256"
            },
            {
              "internalType": "uint256",
              "name": "requiredMajority",
              "type": "uint256"
            },
            {
              "internalType": "uint256",
              "name": "requiredVetoQuorum",
              "type": "uint256"
            }
          ],
          "internalType": "struct IDAOVoting.VotingParams",
          "name": "params",
          "type": "tuple"
        },
        {
          "components": [
            {
              "internalType": "uint256",
              "name": "votedFor",
              "type": "uint256"
            },
            {
              "internalType": "uint256",
              "name": "votedAgainst",
              "type": "uint256"
            },
            {
              "internalType": "uint256",
              "name": "vetoesCount",
              "type": "uint256"
            }
          ],
          "internalType": "struct IDAOVoting.VotingCounters",
          "name": "counters",
          "type": "tuple"
        },
        {
          "internalType": "bool",
          "name": "executed",
          "type": "bool"
        }
      ],
      "stateMutability": "view",
      "type": "function"
    },
    {
      "inputs": [
        {
          "internalType": "string",
          "name": "situation_",
          "type": "string"
        }
      ],
      "name": "removeVotingSituation",
      "outputs": [],
      "stateMutability": "nonpayable",
      "type": "function"
    },
    {
      "inputs": [
        {
          "internalType": "address",
          "name": "registryAddress_",
          "type": "address"
        },
        {
          "internalType": "bytes",
          "name": "",
          "type": "bytes"
        }
      ],
      "name": "setDependencies",
      "outputs": [],
      "stateMutability": "nonpayable",
      "type": "function"
    },
    {
      "inputs": [
        {
          "internalType": "address",
          "name": "injector_",
          "type": "address"
        }
      ],
      "name": "setInjector",
      "outputs": [],
      "stateMutability": "nonpayable",
      "type": "function"
    },
    {
      "inputs": [],
      "name": "targetPanel",
      "outputs": [
        {
          "internalType": "string",
          "name": "",
          "type": "string"
        }
      ],
      "stateMutability": "view",
      "type": "function"
    },
    {
      "inputs": [
        {
          "internalType": "uint256",
          "name": "proposalId_",
          "type": "uint256"
        }
      ],
      "name": "veto",
      "outputs": [],
      "stateMutability": "nonpayable",
      "type": "function"
    },
    {
      "inputs": [
        {
          "internalType": "uint256",
          "name": "proposalId_",
          "type": "uint256"
        }
      ],
      "name": "voteAgainst",
      "outputs": [],
      "stateMutability": "nonpayable",
      "type": "function"
    },
    {
      "inputs": [
        {
          "internalType": "uint256",
          "name": "proposalId_",
          "type": "uint256"
        }
      ],
      "name": "voteFor",
      "outputs": [],
      "stateMutability": "nonpayable",
      "type": "function"
    },
    {
      "inputs": [],
      "name": "votingToken",
      "outputs": [
        {
          "internalType": "address",
          "name": "",
          "type": "address"
        }
      ],
      "stateMutability": "view",
      "type": "function"
    }
  ],
  "bytecode": "0x608060405234801561001057600080fd5b5061564a80620000216000396000f3fe608060405234801561001057600080fd5b506004361061023d5760003560e01c806377f8e93b1161013b578063bb65dc83116100b8578063d8ad4e1c1161007c578063d8ad4e1c14610656578063da35c66414610679578063dc296ae114610682578063e861dc85146106b0578063eb741a24146106d957600080fd5b8063bb65dc83146105d2578063c6f8852d146105da578063c7f758a814610603578063cc7a204914610623578063d047d8771461063657600080fd5b80638cb941cc116100ff5780638cb941cc1461054d578063a08b666a14610560578063b034012314610573578063b1610d7e14610586578063b66bfb5f146105b157600080fd5b806377f8e93b146104495780637a73aedc146104a857806386a50535146104d3578063892f9cfd146104e65780638a0947df1461051757600080fd5b80634e68c99b116101c9578063718346261161018d57806371834626146103bf57806371eb67d8146103d257806373708b1b14610401578063750e443a1461042157806375706ff21461043457600080fd5b80634e68c99b1461033657806352b224241461033e5780635903bd6c1461036b57806359f6d8ad1461037e57806369130451146103ac57600080fd5b80632a2b6ba0116102105780632a2b6ba0146102b05780632b52b07e146102db5780633885bfeb146102ee5780633e3b5b1914610301578063401853b71461031657600080fd5b8063013cf08b1461024257806309914cba146102735780630d61b519146102885780631d28dec71461029d575b600080fd5b61025561025036600461434e565b610707565b60405161026a99989796959493929190614443565b60405180910390f35b61027b610a31565b60405161026a91906144ed565b61029b61029636600461434e565b610abf565b005b61029b6102ab36600461434e565b610c87565b6006546102c3906001600160a01b031681565b6040516001600160a01b03909116815260200161026a565b6008546102c3906001600160a01b031681565b61029b6102fc366004614630565b610e64565b6000805160206155f5833981519152546102c3565b61032961032436600461434e565b611228565b60405161026a9190614745565b61027b611302565b61027b6040518060400160405280600e81526020016d726571756972656451756f72756d60901b81525081565b6005546102c3906001600160a01b031681565b61027b6040518060400160405280600f81526020016e1d9bdd1a5b99d35a5b905b5bdd5b9d608a1b81525081565b61029b6103ba3660046147bc565b61130f565b61029b6103cd366004614810565b6114d6565b61027b6040518060400160405280601081526020016f72657175697265644d616a6f7269747960801b81525081565b61041461040f36600461484c565b611805565b60405161026a9190614947565b61029b61042f36600461434e565b611c8b565b61043c611cfe565b60405161026a91906149a9565b61045c61045736600461434e565b611d0f565b60405161026a9190600060c082019050825182526020830151602083015260408301516040830152606083015160608301526080830151608083015260a083015160a083015292915050565b61027b6040518060400160405280600c81526020016b1d9bdd1a5b99d5185c99d95d60a21b81525081565b61029b6104e136600461434e565b611dec565b61027b6040518060400160405280601281526020017172657175697265645665746f51756f72756d60701b81525081565b61027b604051806040016040528060178152602001761c1c9bdc1bdcd85b115e1958dd5d1a5bdb94195c9a5bd9604a1b81525081565b61029b61055b3660046149fe565b611e5b565b61029b61056e366004614a1b565b611e7c565b6003546102c3906001600160a01b031681565b61027b6040518060400160405280600c81526020016b1d9bdd1a5b99d4195c9a5bd960a21b81525081565b6105c46105bf366004614a7e565b611fdf565b60405190815260200161026a565b61027b6129d7565b61027b6040518060400160405280600a815260200169766f74696e675479706560b01b81525081565b61061661061136600461434e565b612a69565b60405161026a9190614b17565b6007546102c3906001600160a01b031681565b610649610644366004614b2a565b612dc7565b60405161026a9190614b6b565b6106696106643660046147bc565b6132a8565b604051901515815260200161026a565b6105c460045481565b610669610690366004614be2565b600c60209081526000928352604080842090915290825290205460ff1681565b61027b6040518060400160405280600a8152602001691d995d1bd4195c9a5bd960b21b81525081565b6106696106e7366004614be2565b600d60209081526000928352604080842090915290825290205460ff1681565b600b602052600090815260409020805460018201805491929161072990614c12565b80601f016020809104026020016040519081016040528092919081815260200182805461075590614c12565b80156107a25780601f10610777576101008083540402835291602001916107a2565b820191906000526020600020905b81548152906001019060200180831161078557829003601f168201915b5050505050908060020180546107b790614c12565b80601f01602080910402602001604051908101604052809291908181526020018280546107e390614c12565b80156108305780601f1061080557610100808354040283529160200191610830565b820191906000526020600020905b81548152906001019060200180831161081357829003601f168201915b50505050509080600301805461084590614c12565b80601f016020809104026020016040519081016040528092919081815260200182805461087190614c12565b80156108be5780601f10610893576101008083540402835291602001916108be565b820191906000526020600020905b8154815290600101906020018083116108a157829003601f168201915b5050505050908060040180546108d390614c12565b80601f01602080910402602001604051908101604052809291908181526020018280546108ff90614c12565b801561094c5780601f106109215761010080835404028352916020019161094c565b820191906000526020600020905b81548152906001019060200180831161092f57829003601f168201915b50505050600583015460408051610100810190915260068501805494956001600160a01b03909316949293509091829060ff166002811115610990576109906143b7565b60028111156109a1576109a16143b7565b81526020016001820154815260200160028201548152602001600382015481526020016004820154815260200160058201548152602001600682015481526020016007820154815250509080600e016040518060600160405290816000820154815260200160018201548152602001600282015481525050908060110160009054906101000a900460ff16905089565b60028054610a3e90614c12565b80601f0160208091040260200160405190810160405280929190818152602001828054610a6a90614c12565b8015610ab75780601f10610a8c57610100808354040283529160200191610ab7565b820191906000526020600020905b815481529060010190602001808311610a9a57829003601f168201915b505050505081565b6000818152600b602052604090206004610ad883611228565b6006811115610ae957610ae96143b7565b14610b615760405162461bcd60e51b815260206004820152603960248201527f5b5147444b2d3031383030375d2d5468652070726f706f73616c206d7573742060448201527f62652070617373656420746f2062652065786563757465642e0000000000000060648201526084015b60405180910390fd5b60118101805460ff1916600117905560048101805460009190610b8390614c12565b90501115610c585760058101546040516000916001600160a01b031690610bae906004850190614c4c565b6000604051808303816000865af19150503d8060008114610beb576040519150601f19603f3d011682016040523d82523d6000602084013e610bf0565b606091505b5050905080610c565760405162461bcd60e51b815260206004820152602c60248201527f5b5147444b2d3031383030385d2d5468652070726f706f73616c20657865637560448201526b3a34b7b7103330b4b632b21760a11b6064820152608401610b58565b505b60405182907f712ae1383f79ac853f8d882153778e0260ef8f03b504e2866e0593e04d2b291f90600090a25050565b80610c918161332b565b6000818152600b602090815260409182902060050154825180840190935260088352672b22aa27afa327a960c11b91830191909152610cdb916001600160a01b039091169061338f565b6000828152600d6020908152604080832033845290915290205460ff1615610d615760405162461bcd60e51b815260206004820152603360248201527f5b5147444b2d3031383030355d2d54686520656c696769626c652075736572206044820152723430b99030b63932b0b23c903b32ba37b2b21760691b6064820152608401610b58565b6003610d6c83611228565b6006811115610d7d57610d7d6143b7565b14610df05760405162461bcd60e51b815260206004820152603960248201527f5b5147444b2d3031383030365d2d5468652070726f706f73616c206d7573742060448201527f626520616363657074656420746f206265207665746f65642e000000000000006064820152608401610b58565b6000828152600d602090815260408083203384528252808320805460ff19166001179055848352600b90915281206010018054909190610e2f90614cd8565b90915550604051339083907f59a6343aec3a223000a52d9a446fb85a49747ac9e42e9a838d670359355370b490600090a35050565b610e8b6040518060400160405280600681526020016543524541544560d01b815250613496565b8051610e98600982613594565b610eff5760405162461bcd60e51b815260206004820152603260248201527f5b5147444b2d3031383030305d2d54686520766f74696e67207369747561746960448201527137b71030b63932b0b23c9032bc34b9ba399760711b6064820152608401610b58565b6020820151600854604080516101608101909152600c61012082019081526b1d9bdd1a5b99d4195c9a5bd960a21b6101408301526001600160a01b039092169163cabc429d91611188918190610f6290610f5a9089906135f6565b875190613622565b8152602001610fa1610f96886040518060400160405280600a8152602001691d995d1bd4195c9a5bd960b21b8152506135f6565b602088015190613622565b8152602001610fed610fe288604051806040016040528060178152602001761c1c9bdc1bdcd85b115e1958dd5d1a5bdb94195c9a5bd9604a1b8152506135f6565b604088015190613622565b8152602001611030611025886040518060400160405280600e81526020016d726571756972656451756f72756d60901b8152506135f6565b606088015190613622565b815260200161107561106a886040518060400160405280601081526020016f72657175697265644d616a6f7269747960801b8152506135f6565b608088015190613622565b81526020016110bc6110b1886040518060400160405280601281526020017172657175697265645665746f51756f72756d60701b8152506135f6565b60a088015190613622565b81526020016110fb6110f0886040518060400160405280600a815260200169766f74696e675479706560b01b8152506135f6565b60c088015190613622565b815260200161113c611131886040518060400160405280600c81526020016b1d9bdd1a5b99d5185c99d95d60a21b8152506135f6565b60e088015190613682565b8152602001611181611175886040518060400160405280600f81526020016e1d9bdd1a5b99d35a5b905b5bdd5b9d608a1b8152506135f6565b61010088015190613622565b90526136e0565b6040518263ffffffff1660e01b81526004016111a49190614d01565b600060405180830381600087803b1580156111be57600080fd5b505af11580156111d2573d6000803e3d6000fd5b50505050816040516111e49190614d9c565b60405180910390207f80636c8037145c98b4a18c4e8fa289f97b963efcf9ceea25261292e80304754d8260405161121b9190614b6b565b60405180910390a2505050565b6000818152600b602052604081206008810154820361124a5750600092915050565b601181015460ff16156112605750600592915050565b60088101544210156112755750600192915050565b600b8101546112838261388a565b11158061129c5750600c81015461129982613923565b11155b806112b25750600d8101546112b08261394f565b115b156112c05750600292915050565b60098101544210156112d55750600392915050565b600a81015460098201546112e99190614db8565b4211156112f95750600692915050565b50600492915050565b60018054610a3e90614c12565b61131761397e565b600680546001600160a01b0319166001600160a01b038516908117909155604080516309a06df560e41b81529051639a06df50916004808201926020929091908290030181865afa158015611370573d6000803e3d6000fd5b505050506040513d601f19601f820116820180604052508101906113949190614dcb565b600780546001600160a01b0319166001600160a01b0392831617905560065460405163065ab60960e41b81529116906365ab6090906113d890600290600401614e65565b602060405180830381865afa1580156113f5573d6000803e3d6000fd5b505050506040513d601f19601f820116820180604052508101906114199190614dcb565b600880546001600160a01b0319166001600160a01b03928316179055600654604080516306bdb01960e21b815290519190921691631af6c0649160048083019260209291908290030181865afa158015611477573d6000803e3d6000fd5b505050506040513d601f19601f8201168201806040525081019061149b9190614dcb565b600580546001600160a01b0319166001600160a01b0392909216919091179055336000805160206155f583398151915255505050565b505050565b6114fd6040518060400160405280600681526020016544454c45544560d01b815250613496565b611508600982613a02565b61156f5760405162461bcd60e51b815260206004820152603260248201527f5b5147444b2d3031383030315d2d54686520766f74696e67207369747561746960448201527137b7103237b2b9903737ba1032bc34b9ba1760711b6064820152608401610b58565b600854604080516101608101909152600c61012082019081526b1d9bdd1a5b99d4195c9a5bd960a21b6101408301526001600160a01b039092169163fcae0a44916117769181906115c19087906135f6565b81526020016115f2866040518060400160405280600a8152602001691d995d1bd4195c9a5bd960b21b8152506135f6565b815260200161163086604051806040016040528060178152602001761c1c9bdc1bdcd85b115e1958dd5d1a5bdb94195c9a5bd9604a1b8152506135f6565b8152602001611665866040518060400160405280600e81526020016d726571756972656451756f72756d60901b8152506135f6565b815260200161169c866040518060400160405280601081526020016f72657175697265644d616a6f7269747960801b8152506135f6565b81526020016116d5866040518060400160405280601281526020017172657175697265645665746f51756f72756d60701b8152506135f6565b8152602001611706866040518060400160405280600a815260200169766f74696e675479706560b01b8152506135f6565b8152602001611739866040518060400160405280600c81526020016b1d9bdd1a5b99d5185c99d95d60a21b8152506135f6565b815260200161176f866040518060400160405280600f81526020016e1d9bdd1a5b99d35a5b905b5bdd5b9d608a1b8152506135f6565b9052613bc1565b6040518263ffffffff1660e01b815260040161179291906149a9565b600060405180830381600087803b1580156117ac57600080fd5b505af11580156117c0573d6000803e3d6000fd5b50505050806040516117d29190614d9c565b604051908190038120907fc4df08ac5cd94eb5e6ebeb01b16f09277f14f4e6fe2f5d5f186b11c56070316d90600090a250565b60606004548310611849576040805160008082526020820190925290611841565b61182e614242565b8152602001906001900390816118265790505b509050611c85565b816118548185614db8565b600454101561186e578360045461186b9190614e78565b90505b6000816001600160401b0381111561188857611888614500565b6040519080825280602002602001820160405280156118c157816020015b6118ae614242565b8152602001906001900390816118a65790505b50905060005b82811015611c8057600b6000828860016004546118e49190614e78565b6118ee9190614e78565b6118f89190614e78565b8152602001908152602001600020604051806101200160405290816000820154815260200160018201805461192c90614c12565b80601f016020809104026020016040519081016040528092919081815260200182805461195890614c12565b80156119a55780601f1061197a576101008083540402835291602001916119a5565b820191906000526020600020905b81548152906001019060200180831161198857829003601f168201915b505050505081526020016002820180546119be90614c12565b80601f01602080910402602001604051908101604052809291908181526020018280546119ea90614c12565b8015611a375780601f10611a0c57610100808354040283529160200191611a37565b820191906000526020600020905b815481529060010190602001808311611a1a57829003601f168201915b50505050508152602001600382018054611a5090614c12565b80601f0160208091040260200160405190810160405280929190818152602001828054611a7c90614c12565b8015611ac95780601f10611a9e57610100808354040283529160200191611ac9565b820191906000526020600020905b815481529060010190602001808311611aac57829003601f168201915b50505050508152602001600482018054611ae290614c12565b80601f0160208091040260200160405190810160405280929190818152602001828054611b0e90614c12565b8015611b5b5780601f10611b3057610100808354040283529160200191611b5b565b820191906000526020600020905b815481529060010190602001808311611b3e57829003601f168201915b505050918352505060058201546001600160a01b03166020820152604080516101008101825260068401805492909301929091829060ff166002811115611ba457611ba46143b7565b6002811115611bb557611bb56143b7565b81526020016001820154815260200160028201548152602001600382015481526020016004820154815260200160058201548152602001600682015481526020016007820154815250508152602001600e8201604051806060016040529081600082015481526020016001820154815260200160028201548152505081526020016011820160009054906101000a900460ff161515151581525050828281518110611c6257611c62614e8b565b60200260200101819052508080611c7890614cd8565b9150506118c7565b509150505b92915050565b80611c958161332b565b60016000828152600b602052604090206006015460ff166002811115611cbd57611cbd6143b7565b03611cca57611cca613bf9565b611cef60405180604001604052806004815260200163564f544560e01b815250613496565b611cfa826002613c5f565b5050565b6060611d0a6009613e4e565b905090565b611d486040518060c001604052806000815260200160008152602001600081526020016000815260200160008152602001600081525090565b6040805160c0810182526000848152600b60208181529382208082015484529186905283529091820190611d7b9061388a565b81526000848152600b60208181526040808420600c810154838701529388905291905290910190611dab90613923565b8152602001611dcb600b600086815260200190815260200160002061394f565b81526000938452600b60209081526040909420600d01549301929092525090565b80611df68161332b565b60016000828152600b602052604090206006015460ff166002811115611e1e57611e1e6143b7565b03611e2b57611e2b613bf9565b611e5060405180604001604052806004815260200163564f544560e01b815250613496565b611cfa826001613c5f565b611e6361397e565b611e79816000805160206155f583398151915255565b50565b600054610100900460ff1615808015611e9c5750600054600160ff909116105b80611eb65750303b158015611eb6575060005460ff166001145b611f195760405162461bcd60e51b815260206004820152602e60248201527f496e697469616c697a61626c653a20636f6e747261637420697320616c72656160448201526d191e481a5b9a5d1a585b1a5e995960921b6064820152608401610b58565b6000805460ff191660011790558015611f3c576000805461ff0019166101001790555b6001611f49838583614f04565b50611f5a60408501602086016149fe565b600380546001600160a01b0319166001600160a01b0392909216919091179055611f848480614fbe565b600291611f92919083614f04565b508015611fd9576000805461ff0019169055604051600181527f7f26b83ff96e1f2b6a682f133852f6798a09c465da95921460cefb38474024989060200160405180910390a15b50505050565b600061200f6040518060400160405280600d81526020016c4352454154455f564f54494e4760981b815250613496565b61205287878080601f016020809104026020016040519081016040528093929190818152602001838380828437600092019190915250600993925050613f2b9050565b6120e05760405162461bcd60e51b815260206004820152605360248201527f5b5147444b2d3031383030325d2d54686520766f74696e67207369747561746960448201527f6f6e20646f6573206e6f742065786973742c20696d706f737369626c6520746f6064820152721031b932b0ba32903090383937b837b9b0b61760691b608482015260a401610b58565b60048054600091826120f183614cd8565b909155506000818152600b6020526040902081815590915060018101612118878983614f04565b5060048101612128858783614f04565b506002818101906121399082615004565b5060038101612149898b83614f04565b50600660009054906101000a90046001600160a01b03166001600160a01b0316633581777361225e600860009054906101000a90046001600160a01b03166001600160a01b0316639646b1ac6121f88e8e8080601f0160208091040260200160405190810160405280939291908181526020018383808284376000920191909152505060408051808201909152600c81526b1d9bdd1a5b99d5185c99d95d60a21b602082015291506135f69050565b6040518263ffffffff1660e01b815260040161221491906144ed565b600060405180830381865afa158015612231573d6000803e3d6000fd5b505050506040513d6000823e601f3d908101601f19168201604052612259919081019061512a565b613f58565b6040518263ffffffff1660e01b815260040161227a91906144ed565b602060405180830381865afa158015612297573d6000803e3d6000fd5b505050506040513d601f19601f820116820180604052508101906122bb9190614dcb565b6005820180546001600160a01b0319166001600160a01b0392909216919091179055831515806122f7575060058101546001600160a01b031630145b6123795760405162461bcd60e51b815260206004820152604760248201527f5b5147444b2d3031383030335d2d5468652067656e6572616c20766f74696e6760448201527f206d7573742062652063616c6c6564206f6e2074686520566f74696e6720636f606482015266373a3930b1ba1760c91b608482015260a401610b58565b60058101546040805180820190915260088152672b27aa22afa327a960c11b60208201526123b0916001600160a01b03169061338f565b600854604080516020601f8c018190048102820181019092528a8152612491926001600160a01b031691639646b1ac9161242b918e908e90819084018382808284376000920191909152505060408051808201909152600f81526e1d9bdd1a5b99d35a5b905b5bdd5b9d608a1b602082015291506135f69050565b6040518263ffffffff1660e01b815260040161244791906144ed565b600060405180830381865afa158015612464573d6000803e3d6000fd5b505050506040513d6000823e601f3d908101601f1916820160405261248c919081019061512a565b613f7d565b600554600354604051632f885dad60e11b81523360048201526001600160a01b039182166024820152911690635f10bb5a90604401602060405180830381865afa1580156124e3573d6000803e3d6000fd5b505050506040513d601f19601f8201168201806040525081019061250791906151ea565b10156125895760405162461bcd60e51b8152602060048201526044602482018190527f5b5147444b2d3031383030345d2d546865207573657220766f74696e6720706f908201527f77657220697320746f6f206c6f7720746f2063726561746520612070726f706f60648201526339b0b61760e11b608482015260a401610b58565b6125f26125ed8a8a8080601f0160208091040260200160405190810160405280939291908181526020018383808284376000920191909152505060408051808201909152600a815269766f74696e675479706560b01b602082015291506135f69050565b613f98565b60068201805460ff19166001836002811115612610576126106143b7565b02179055506000600682015460ff166002811115612630576126306143b7565b1461263d5761263d613bf9565b600854604080516020601f8c018190048102820181019092528a81526000926126bb926001600160a01b0390911691639646b1ac9161242b91908f908f90819084018382808284376000920191909152505060408051808201909152600c81526b1d9bdd1a5b99d4195c9a5bd960a21b602082015291506135f69050565b6126c59042614db8565b600854604080516020601f8e018190048102820181019092528c8152929350612745926001600160a01b0390921691639646b1ac9161242b91908f908f90819084018382808284376000920191909152505060408051808201909152600e81526d726571756972656451756f72756d60901b602082015291506135f69050565b600b830155600854604080516020601f8d018190048102820181019092528b81526127c6926001600160a01b031691639646b1ac9161242b918f908f90819084018382808284376000920191909152505060408051808201909152601081526f72657175697265644d616a6f7269747960801b602082015291506135f69050565b600c830155600854604080516020601f8d018190048102820181019092528b8152612849926001600160a01b031691639646b1ac9161242b918f908f90819084018382808284376000920191909152505060408051808201909152601281527172657175697265645665746f51756f72756d60701b602082015291506135f69050565b600d83015560088201819055600582015460009061286f906001600160a01b0316613fe0565b11156128ff57600854604080516020601f8d018190048102820181019092528b81526128eb926001600160a01b031691639646b1ac9161242b918f908f90819084018382808284376000920191909152505060408051808201909152600a8152691d995d1bd4195c9a5bd960b21b602082015291506135f69050565b6128f59082614db8565b6009830155612907565b600982018190555b600854604080516020601f8d018190048102820181019092528b815261298a926001600160a01b031691639646b1ac9161242b918f908f9081908401838280828437600092019190915250506040805180820190915260178152761c1c9bdc1bdcd85b115e1958dd5d1a5bdb94195c9a5bd9604a1b602082015291506135f69050565b600a83015560405183907faf253398428071f5909fc89d146ea5b5a3421bed43236745780b8be425aec2a7906129c1908590615259565b60405180910390a2509098975050505050505050565b6060600180546129e690614c12565b80601f0160208091040260200160405190810160405280929190818152602001828054612a1290614c12565b8015612a5f5780601f10612a3457610100808354040283529160200191612a5f565b820191906000526020600020905b815481529060010190602001808311612a4257829003601f168201915b5050505050905090565b612a71614242565b600b60008381526020019081526020016000206040518061012001604052908160008201548152602001600182018054612aaa90614c12565b80601f0160208091040260200160405190810160405280929190818152602001828054612ad690614c12565b8015612b235780601f10612af857610100808354040283529160200191612b23565b820191906000526020600020905b815481529060010190602001808311612b0657829003601f168201915b50505050508152602001600282018054612b3c90614c12565b80601f0160208091040260200160405190810160405280929190818152602001828054612b6890614c12565b8015612bb55780601f10612b8a57610100808354040283529160200191612bb5565b820191906000526020600020905b815481529060010190602001808311612b9857829003601f168201915b50505050508152602001600382018054612bce90614c12565b80601f0160208091040260200160405190810160405280929190818152602001828054612bfa90614c12565b8015612c475780601f10612c1c57610100808354040283529160200191612c47565b820191906000526020600020905b815481529060010190602001808311612c2a57829003601f168201915b50505050508152602001600482018054612c6090614c12565b80601f0160208091040260200160405190810160405280929190818152602001828054612c8c90614c12565b8015612cd95780601f10612cae57610100808354040283529160200191612cd9565b820191906000526020600020905b815481529060010190602001808311612cbc57829003601f168201915b505050918352505060058201546001600160a01b03166020820152604080516101008101825260068401805492909301929091829060ff166002811115612d2257612d226143b7565b6002811115612d3357612d336143b7565b815260018201546020808301919091526002830154604080840191909152600384015460608085019190915260048501546080850152600585015460a0850152600685015460c085015260079094015460e09093019290925292845280519182018152600e8501548252600f850154828401526010850154828201529183015260119092015460ff16151591015292915050565b612e166040518061012001604052806000815260200160008152602001600081526020016000815260200160008152602001600081526020016000815260200160608152602001600081525090565b604080516008546101406020601f87018190040283018101909352610120820185815291928392612e99926001600160a01b031691639646b1ac9161242b918a908a90819089018382808284376000920191909152505060408051808201909152600c81526b1d9bdd1a5b99d4195c9a5bd960a21b602082015291506135f69050565b8152600854604080516020601f880181900481028201810190925286815292810192612f15926001600160a01b031691639646b1ac9161242b918a908a90819084018382808284376000920191909152505060408051808201909152600a8152691d995d1bd4195c9a5bd960b21b602082015291506135f69050565b8152600854604080516020601f880181900481028201810190925286815292810192612f9e926001600160a01b031691639646b1ac9161242b918a908a9081908401838280828437600092019190915250506040805180820190915260178152761c1c9bdc1bdcd85b115e1958dd5d1a5bdb94195c9a5bd9604a1b602082015291506135f69050565b8152600854604080516020601f88018190048102820181019092528681529281019261301e926001600160a01b031691639646b1ac9161242b918a908a90819084018382808284376000920191909152505060408051808201909152600e81526d726571756972656451756f72756d60901b602082015291506135f69050565b8152600854604080516020601f8801819004810282018101909252868152928101926130a0926001600160a01b031691639646b1ac9161242b918a908a90819084018382808284376000920191909152505060408051808201909152601081526f72657175697265644d616a6f7269747960801b602082015291506135f69050565b8152600854604080516020601f880181900481028201810190925286815292810192613124926001600160a01b031691639646b1ac9161242b918a908a90819084018382808284376000920191909152505060408051808201909152601281527172657175697265645665746f51756f72756d60701b602082015291506135f69050565b8152600854604080516020601f8801819004810282018101909252868152928101926131a0926001600160a01b031691639646b1ac9161242b918a908a90819084018382808284376000920191909152505060408051808201909152600a815269766f74696e675479706560b01b602082015291506135f69050565b8152600854604080516020601f88018190048102820181019092528681529281019261321e926001600160a01b031691639646b1ac916121f8918a908a90819084018382808284376000920191909152505060408051808201909152600c81526b1d9bdd1a5b99d5185c99d95d60a21b602082015291506135f69050565b8152600854604080516020601f88018190048102820181019092528681529281019261329f926001600160a01b031691639646b1ac9161242b918a908a90819084018382808284376000920191909152505060408051808201909152600f81526e1d9bdd1a5b99d35a5b905b5bdd5b9d608a1b602082015291506135f69050565b90529392505050565b600754604051633ca8e36d60e11b81526000916001600160a01b031690637951c6da906132e090879060019088908890600401615336565b602060405180830381865afa1580156132fd573d6000803e3d6000fd5b505050506040513d601f19601f82011682018060405250810190613321919061538e565b90505b9392505050565b8060045411611e795760405162461bcd60e51b815260206004820152602a60248201527f5b5147444b2d3031383031335d2d5468652070726f706f73616c20646f6573206044820152693737ba1032bc34b9ba1760b11b6064820152608401610b58565b60405163362b538760e21b81526001600160a01b0383169063d8ad4e1c906133bd90339085906004016153b0565b602060405180830381865afa1580156133da573d6000803e3d6000fd5b505050506040513d601f19601f820116820180604052508101906133fe919061538e565b611cfa5760405162461bcd60e51b815260206004820152605b60248201527f5b5147444b2d3031383031355d2d5468652073656e646572206973206e6f742060448201527f616c6c6f77656420746f20706572666f726d2074686520616374696f6e206f6e60648201527f20746865207461726765742c206163636573732064656e6965642e0000000000608482015260a401610b58565b600754604051633ca8e36d60e11b81526001600160a01b0390911690637951c6da906134cb90339060019086906004016153d4565b602060405180830381865afa1580156134e8573d6000803e3d6000fd5b505050506040513d601f19601f8201168201806040525081019061350c919061538e565b611e795760405162461bcd60e51b815260206004820152604d60248201527f5b5147444b2d3031383031345d2d5468652073656e646572206973206e6f742060448201527f616c6c6f77656420746f20706572666f726d2074686520616374696f6e2c206160648201526c31b1b2b9b9903232b734b2b21760991b608482015260a401610b58565b60006135a08383613f2b565b6135ee578254600181018455600084815260209020016135c08382615414565b50825460405160018501906135d6908590614d9c565b90815260405190819003602001902055506001611c85565b506000611c85565b6060828260405160200161360b9291906154c5565b604051602081830303815290604052905092915050565b613642604080516060808201835280825260208201529081016000905290565b60405180606001604052808381526020018460405160200161366691815260200190565b60408051601f198184030181529190528152602001600261329f565b6136a2604080516060808201835280825260208201529081016000905290565b6040518060600160405280838152602001846040516020016136c491906144ed565b60408051601f198184030181529190528152602001600361329f565b6040805160098082526101408201909252606091816020015b613719604080516060808201835280825260208201529081016000905290565b8152602001906001900390816136f95790505090508160005b60200201518160008151811061374a5761374a614e8b565b602090810291909101015281600160200201518160018151811061377057613770614e8b565b602090810291909101015281600260200201518160028151811061379657613796614e8b565b60209081029190910101528160036020020151816003815181106137bc576137bc614e8b565b60209081029190910101528160046020020151816004815181106137e2576137e2614e8b565b602090810291909101015281600560200201518160058151811061380857613808614e8b565b602090810291909101015281600660200201518160068151811061382e5761382e614e8b565b602090810291909101015281600760200201518160078151811061385457613854614e8b565b602090810291909101015281600860200201518160088151811061387a5761387a614e8b565b6020026020010181905250919050565b600f810154600e82015460009182916138a39190614db8565b600554600354604051631e50cd8f60e31b81526001600160a01b039182166004820152929350613324928492919091169063f2866c7890602401602060405180830381865afa1580156138fa573d6000803e3d6000fd5b505050506040513d601f19601f8201168201806040525081019061391e91906151ea565b61404f565b600f810154600e820154600091829161393c9190614db8565b905061332483600e01600001548261404f565b6005810154600090819061396b906001600160a01b0316613fe0565b905061332483600e01600201548261404f565b60006139966000805160206155f58339815191525490565b90506001600160a01b03811615806139b657506001600160a01b03811633145b611e795760405162461bcd60e51b815260206004820152601a60248201527f446570656e64616e743a206e6f7420616e20696e6a6563746f720000000000006044820152606401610b58565b6000808360010183604051613a179190614d9c565b908152602001604051809103902054905080600014613bb7576000613a3d600183614e78565b8554909150600090613a5190600190614e78565b9050818114613b58576000866000018281548110613a7157613a71614e8b565b906000526020600020018054613a8690614c12565b80601f0160208091040260200160405190810160405280929190818152602001828054613ab290614c12565b8015613aff5780601f10613ad457610100808354040283529160200191613aff565b820191906000526020600020905b815481529060010190602001808311613ae257829003601f168201915b5050505050905080876000018481548110613b1c57613b1c614e8b565b906000526020600020019081613b329190615414565b50838760010182604051613b469190614d9c565b90815260405190819003602001902055505b8554869080613b6957613b69615501565b600190038181906000526020600020016000613b859190614300565b90558560010185604051613b999190614d9c565b90815260200160405180910390206000905560019350505050611c85565b6000915050611c85565b6040805160098082526101408201909252606091816020015b6060815260200190600190039081613bda579050509050816000613732565b60405162461bcd60e51b815260206004820152603560248201527f5b5147444b2d3031383031325d2d546865207265737472696374656420766f7460448201527434b7339034b9903737ba1039bab83837b93a32b21760591b6064820152608401610b58565b6001613c6a83611228565b6006811115613c7b57613c7b6143b7565b14613cee5760405162461bcd60e51b815260206004820152603760248201527f5b5147444b2d3031383030395d2d5468652070726f706f73616c206d7573742060448201527f62652070656e64696e6720746f20626520766f7465642e0000000000000000006064820152608401610b58565b6000828152600c6020908152604080832033845290915290205460ff1615613d6a5760405162461bcd60e51b815260206004820152602960248201527f5b5147444b2d3031383031305d2d54686520757365722068617320616c726561604482015268323c903b37ba32b21760b91b6064820152608401610b58565b6000828152600c602090815260408083203384529091528120805460ff19166001179055613d9783614082565b90506001826002811115613dad57613dad6143b7565b03613dde576000838152600b60205260408120600e018054839290613dd3908490614db8565b90915550613e059050565b6000838152600b60205260408120600f018054839290613dff908490614db8565b90915550505b336001600160a01b0316837fff18b10a639bdb3188534561961f4bc58baec877ac42e92260a369ae1ba7bb3c8385604051613e41929190615517565b60405180910390a3505050565b606081600001805480602002602001604051908101604052809291908181526020016000905b82821015613f20578382906000526020600020018054613e9390614c12565b80601f0160208091040260200160405190810160405280929190818152602001828054613ebf90614c12565b8015613f0c5780601f10613ee157610100808354040283529160200191613f0c565b820191906000526020600020905b815481529060010190602001808311613eef57829003601f168201915b505050505081526020019060010190613e74565b505050509050919050565b60008260010182604051613f3f9190614d9c565b9081526040519081900360200190205415159392505050565b6060613f658260036141f2565b8160200151806020019051810190611c859190615534565b6000613f8a8260026141f2565b8160200151611c8590615568565b600854604051632591ac6b60e21b8152600091613fcf916001600160a01b0390911690639646b1ac906124479086906004016144ed565b6002811115611c8557611c856143b7565b600754604051632927315960e11b81526001600160a01b038381166004830152600092169063524e62b290602401602060405180830381865afa15801561402b573d6000803e3d6000fd5b505050506040513d601f19601f82011682018060405250810190611c8591906151ea565b60008160000361406157506000611c85565b816140786b033b2e3c9fd0803ce80000008561558c565b61332491906155a3565b600554600354604051632f885dad60e11b81523360048201526001600160a01b03918216602482015260009283921690635f10bb5a90604401602060405180830381865afa1580156140d8573d6000803e3d6000fd5b505050506040513d601f19601f820116820180604052508101906140fc91906151ea565b9050600081116141625760405162461bcd60e51b815260206004820152602b60248201527f5b5147444b2d3031383031315d2d546865207573657220686173206e6f20766f60448201526a3a34b733903837bbb2b91760a91b6064820152608401610b58565b6005546003546000858152600b602052604090819020600801549051634b86c22560e01b81523360048201526001600160a01b039283166024820152604481018590526064810191909152911690634b86c22590608401600060405180830381600087803b1580156141d357600080fd5b505af11580156141e7573d6000803e3d6000fd5b509295945050505050565b806005811115614204576142046143b7565b8260400151600581111561421a5761421a6143b7565b14611cfa578151604080840151905163381af4c560e11b8152610b58929184916004016155c5565b604051806101200160405280600081526020016060815260200160608152602001606081526020016060815260200160006001600160a01b031681526020016142ca6040805161010081019091528060008152602001600081526020016000815260200160008152602001600081526020016000815260200160008152602001600081525090565b81526020016142f360405180606001604052806000815260200160008152602001600081525090565b8152600060209091015290565b50805461430c90614c12565b6000825580601f1061431c575050565b601f016020900490600052602060002090810190611e7991905b8082111561434a5760008155600101614336565b5090565b60006020828403121561436057600080fd5b5035919050565b60005b8381101561438257818101518382015260200161436a565b50506000910152565b600081518084526143a3816020860160208601614367565b601f01601f19169290920160200192915050565b634e487b7160e01b600052602160045260246000fd5b60038110611e7957611e796143b7565b6143e6816143cd565b9052565b80516143f5816143cd565b808352506020810151602083015260408101516040830152606081015160608301526080810151608083015260a081015160a083015260c081015160c083015260e081015160e08301525050565b60006102408b835280602084015261445d8184018c61438b565b90508281036040840152614471818b61438b565b90508281036060840152614485818a61438b565b90508281036080840152614499818961438b565b6001600160a01b03881660a085015291506144b9905060c08301866143ea565b83516101c083015260208401516101e083015260409093015161020082015290151561022090910152979650505050505050565b602081526000613324602083018461438b565b634e487b7160e01b600052604160045260246000fd5b604080519081016001600160401b038111828210171561453857614538614500565b60405290565b60405161012081016001600160401b038111828210171561453857614538614500565b604051606081016001600160401b038111828210171561453857614538614500565b604051601f8201601f191681016001600160401b03811182821017156145ab576145ab614500565b604052919050565b60006001600160401b038211156145cc576145cc614500565b50601f01601f191660200190565b600082601f8301126145eb57600080fd5b81356145fe6145f9826145b3565b614583565b81815284602083860101111561461357600080fd5b816020850160208301376000918101602001919091529392505050565b60006020828403121561464257600080fd5b81356001600160401b038082111561465957600080fd5b908301906040828603121561466d57600080fd5b614675614516565b82358281111561468457600080fd5b614690878286016145da565b8252506020830135828111156146a557600080fd5b929092019161012083870312156146bb57600080fd5b6146c361453e565b833581526020840135602082015260408401356040820152606084013560608201526080840135608082015260a084013560a082015260c084013560c082015260e08401358381111561471557600080fd5b614721888287016145da565b60e08301525061010093840135938101939093526020810192909252509392505050565b6020810160078310614759576147596143b7565b91905290565b6001600160a01b0381168114611e7957600080fd5b60008083601f84011261478657600080fd5b5081356001600160401b0381111561479d57600080fd5b6020830191508360208285010111156147b557600080fd5b9250929050565b6000806000604084860312156147d157600080fd5b83356147dc8161475f565b925060208401356001600160401b038111156147f757600080fd5b61480386828701614774565b9497909650939450505050565b60006020828403121561482257600080fd5b81356001600160401b0381111561483857600080fd5b614844848285016145da565b949350505050565b6000806040838503121561485f57600080fd5b50508035926020909101359150565b600061024082518452602083015181602086015261488e8286018261438b565b915050604083015184820360408601526148a8828261438b565b915050606083015184820360608601526148c2828261438b565b915050608083015184820360808601526148dc828261438b565b91505060a08301516148f960a08601826001600160a01b03169052565b5060c083015161490c60c08601826143ea565b5060e083015180516101c086015260208101516101e08601526040015161020085015261010090920151151561022090930192909252919050565b6000602080830181845280855180835260408601915060408160051b870101925083870160005b8281101561499c57603f1988860301845261498a85835161486e565b9450928501929085019060010161496e565b5092979650505050505050565b6000602080830181845280855180835260408601915060408160051b870101925083870160005b8281101561499c57603f198886030184526149ec85835161438b565b945092850192908501906001016149d0565b600060208284031215614a1057600080fd5b81356133248161475f565b600080600060408486031215614a3057600080fd5b83356001600160401b0380821115614a4757600080fd5b9085019060408288031215614a5b57600080fd5b90935060208501359080821115614a7157600080fd5b5061480386828701614774565b60008060008060008060608789031215614a9757600080fd5b86356001600160401b0380821115614aae57600080fd5b614aba8a838b01614774565b90985096506020890135915080821115614ad357600080fd5b614adf8a838b01614774565b90965094506040890135915080821115614af857600080fd5b50614b0589828a01614774565b979a9699509497509295939492505050565b602081526000613324602083018461486e565b60008060208385031215614b3d57600080fd5b82356001600160401b03811115614b5357600080fd5b614b5f85828601614774565b90969095509350505050565b6020815281516020820152602082015160408201526040820151606082015260608201516080820152608082015160a082015260a082015160c082015260c082015160e0820152600060e08301516101206101008181860152614bd261014086018461438b565b9501519301929092525090919050565b60008060408385031215614bf557600080fd5b823591506020830135614c078161475f565b809150509250929050565b600181811c90821680614c2657607f821691505b602082108103614c4657634e487b7160e01b600052602260045260246000fd5b50919050565b6000808354614c5a81614c12565b60018281168015614c725760018114614c8757614cb6565b60ff1984168752821515830287019450614cb6565b8760005260208060002060005b85811015614cad5781548a820152908401908201614c94565b50505082870194505b50929695505050505050565b634e487b7160e01b600052601160045260246000fd5b600060018201614cea57614cea614cc2565b5060010190565b600681106143e6576143e66143b7565b60006020808301818452808551808352604092508286019150828160051b87010184880160005b83811015614d8e57603f19898403018552815160608151818652614d4e8287018261438b565b915050888201518582038a870152614d66828261438b565b915050878201519150614d7b88860183614cf1565b9588019593505090860190600101614d28565b509098975050505050505050565b60008251614dae818460208701614367565b9190910192915050565b80820180821115611c8557611c85614cc2565b600060208284031215614ddd57600080fd5b81516133248161475f565b60008154614df581614c12565b808552602060018381168015614e125760018114614e2c57614e5a565b60ff1985168884015283151560051b880183019550614e5a565b866000528260002060005b85811015614e525781548a8201860152908301908401614e37565b890184019650505b505050505092915050565b6020815260006133246020830184614de8565b81810381811115611c8557611c85614cc2565b634e487b7160e01b600052603260045260246000fd5b601f8211156114d157600081815260208120601f850160051c81016020861015614ec85750805b601f850160051c820191505b81811015614ee757828155600101614ed4565b505050505050565b600019600383901b1c191660019190911b1790565b6001600160401b03831115614f1b57614f1b614500565b614f2f83614f298354614c12565b83614ea1565b6000601f841160018114614f5d5760008515614f4b5750838201355b614f558682614eef565b845550614fb7565b600083815260209020601f19861690835b82811015614f8e5786850135825560209485019460019092019101614f6e565b5086821015614fab5760001960f88860031b161c19848701351681555b505060018560011b0183555b5050505050565b6000808335601e19843603018112614fd557600080fd5b8301803591506001600160401b03821115614fef57600080fd5b6020019150368190038213156147b557600080fd5b81810361500f575050565b6150198254614c12565b6001600160401b0381111561503057615030614500565b6150448161503e8454614c12565b84614ea1565b6000601f82116001811461507257600083156150605750848201545b61506a8482614eef565b855550614fb7565b600085815260209020601f19841690600086815260209020845b838110156150ac578286015482556001958601959091019060200161508c565b50858310156150ca5781850154600019600388901b60f8161c191681555b5050505050600190811b01905550565b60006150e86145f9846145b3565b90508281528383830111156150fc57600080fd5b613324836020830184614367565b600082601f83011261511b57600080fd5b613324838351602085016150da565b60006020828403121561513c57600080fd5b81516001600160401b038082111561515357600080fd5b908301906060828603121561516757600080fd5b61516f614561565b82518281111561517e57600080fd5b61518a8782860161510a565b82525060208301518281111561519f57600080fd5b83019150601f820186136151b257600080fd5b6151c1868351602085016150da565b602082015260408301519250600683106151da57600080fd5b6040810192909252509392505050565b6000602082840312156151fc57600080fd5b5051919050565b6152118260ff8354166143dd565b60018101546020830152600281015460408301526003810154606083015260048101546080830152600581015460a0830152600681015460c08301526007015460e090910152565b60208152815460208201526000610240806040840152615280610260840160018601614de8565b601f198085830301606086015261529a8260028801614de8565b9150808583030160808601526152b38260038801614de8565b9150808583030160a0860152506152cd8160048701614de8565b90506152e360058601546001600160a01b031690565b6001600160a01b031660c085015261530160e0850160068701615203565b600e8501546101e0850152600f8501546102008501526010850154610220850152601185015460ff1680151585840152611c80565b6001600160a01b038516815260606020820181905260009061535a90830186614de8565b8281036040840152838152838560208301376000602085830101526020601f19601f86011682010191505095945050505050565b6000602082840312156153a057600080fd5b8151801515811461332457600080fd5b6001600160a01b03831681526040602082018190526000906133219083018461438b565b6001600160a01b03841681526060602082018190526000906153f890830185614de8565b828103604084015261540a818561438b565b9695505050505050565b81516001600160401b0381111561542d5761542d614500565b61543b8161503e8454614c12565b602080601f83116001811461546a57600084156154585750858301515b6154628582614eef565b865550614ee7565b600085815260208120601f198616915b828110156154995788860151825594840194600190910190840161547a565b50858210156150ca57939096015160001960f8600387901b161c19169092555050600190811b01905550565b600083516154d7818460208801614367565b601760f91b90830190815283516154f5816001840160208801614367565b01600101949350505050565b634e487b7160e01b600052603160045260246000fd5b82815260408101615527836143cd565b8260208301529392505050565b60006020828403121561554657600080fd5b81516001600160401b0381111561555c57600080fd5b6148448482850161510a565b80516020808301519190811015614c465760001960209190910360031b1b16919050565b8082028115828204841417611c8557611c85614cc2565b6000826155c057634e487b7160e01b600052601260045260246000fd5b500490565b6060815260006155d8606083018661438b565b90506155e76020830185614cf1565b6148446040830184614cf156fe3d1f25f1ac447e55e7fec744471c4dab1c6a2b6ffb897825f9ea3d2e8c9be583a2646970667358221220acd7977520b80f8ccb5f25ef373e4a895413dd01715577230bdb9ea3fbb6ac6864736f6c63430008130033",
  "linkReferences": {},
  "deployedLinkReferences": {}
}