{
  "_format": "hh-sol-artifact-1",
  "contractName": "PermissionManager",
  "sourceName": "@q-dev/gdk-contracts/DAO/PermissionManager.sol",
  "abi": [
    {
      "anonymous": false,
      "inputs": [
        {
          "indexed": false,
          "internalType": "string",
          "name": "role",
          "type": "string"
        },
        {
          "indexed": false,
          "internalType": "string",
          "name": "resource",
          "type": "string"
        },
        {
          "indexed": false,
          "internalType": "string[]",
          "name": "permissionsToAdd",
          "type": "string[]"
        },
        {
          "indexed": false,
          "internalType": "bool",
          "name": "allowed",
          "type": "bool"
        }
      ],
      "name": "AddedPermissions",
      "type": "event"
    },
    {
      "anonymous": false,
      "inputs": [
        {
          "indexed": false,
          "internalType": "address",
          "name": "who",
          "type": "address"
        },
        {
          "indexed": false,
          "internalType": "string[]",
          "name": "groupsToAddTo",
          "type": "string[]"
        }
      ],
      "name": "AddedToGroups",
      "type": "event"
    },
    {
      "anonymous": false,
      "inputs": [
        {
          "indexed": false,
          "internalType": "string",
          "name": "groupTo",
          "type": "string"
        },
        {
          "indexed": false,
          "internalType": "string[]",
          "name": "rolesToGrant",
          "type": "string[]"
        }
      ],
      "name": "GrantedGroupRoles",
      "type": "event"
    },
    {
      "anonymous": false,
      "inputs": [
        {
          "indexed": false,
          "internalType": "address",
          "name": "to",
          "type": "address"
        },
        {
          "indexed": false,
          "internalType": "string[]",
          "name": "rolesToGrant",
          "type": "string[]"
        }
      ],
      "name": "GrantedRoles",
      "type": "event"
    },
    {
      "anonymous": false,
      "inputs": [
        {
          "indexed": false,
          "internalType": "uint8",
          "name": "version",
          "type": "uint8"
        }
      ],
      "name": "Initialized",
      "type": "event"
    },
    {
      "anonymous": false,
      "inputs": [
        {
          "indexed": false,
          "internalType": "address",
          "name": "target",
          "type": "address"
        },
        {
          "indexed": false,
          "internalType": "address",
          "name": "linkedMemberStorage",
          "type": "address"
        }
      ],
      "name": "LinkedStorageToVetoGroup",
      "type": "event"
    },
    {
      "anonymous": false,
      "inputs": [
        {
          "indexed": false,
          "internalType": "address",
          "name": "who",
          "type": "address"
        },
        {
          "indexed": false,
          "internalType": "string[]",
          "name": "groupsToRemoveFrom",
          "type": "string[]"
        }
      ],
      "name": "RemovedFromGroups",
      "type": "event"
    },
    {
      "anonymous": false,
      "inputs": [
        {
          "indexed": false,
          "internalType": "string",
          "name": "role",
          "type": "string"
        },
        {
          "indexed": false,
          "internalType": "string",
          "name": "resource",
          "type": "string"
        },
        {
          "indexed": false,
          "internalType": "string[]",
          "name": "permissionsToRemove",
          "type": "string[]"
        },
        {
          "indexed": false,
          "internalType": "bool",
          "name": "allowed",
          "type": "bool"
        }
      ],
      "name": "RemovedPermissions",
      "type": "event"
    },
    {
      "anonymous": false,
      "inputs": [
        {
          "indexed": false,
          "internalType": "string",
          "name": "groupFrom",
          "type": "string"
        },
        {
          "indexed": false,
          "internalType": "string[]",
          "name": "rolesToRevoke",
          "type": "string[]"
        }
      ],
      "name": "RevokedGroupRoles",
      "type": "event"
    },
    {
      "anonymous": false,
      "inputs": [
        {
          "indexed": false,
          "internalType": "address",
          "name": "from",
          "type": "address"
        },
        {
          "indexed": false,
          "internalType": "string[]",
          "name": "rolesToRevoke",
          "type": "string[]"
        }
      ],
      "name": "RevokedRoles",
      "type": "event"
    },
    {
      "anonymous": false,
      "inputs": [
        {
          "indexed": false,
          "internalType": "bool",
          "name": "defaultGroupEnabled",
          "type": "bool"
        }
      ],
      "name": "ToggledDefaultGroup",
      "type": "event"
    },
    {
      "anonymous": false,
      "inputs": [
        {
          "indexed": false,
          "internalType": "address",
          "name": "target",
          "type": "address"
        },
        {
          "indexed": false,
          "internalType": "string",
          "name": "name",
          "type": "string"
        },
        {
          "indexed": false,
          "internalType": "address",
          "name": "linkedMemberStorage",
          "type": "address"
        }
      ],
      "name": "VetoGroupAdded",
      "type": "event"
    },
    {
      "anonymous": false,
      "inputs": [
        {
          "indexed": false,
          "internalType": "address",
          "name": "target",
          "type": "address"
        }
      ],
      "name": "VetoGroupRemoved",
      "type": "event"
    },
    {
      "inputs": [],
      "name": "ALL_PERMISSION",
      "outputs": [
        {
          "internalType": "string",
          "name": "",
          "type": "string"
        }
      ],
      "stateMutability": "view",
      "type": "function"
    },
    {
      "inputs": [],
      "name": "ALL_RESOURCE",
      "outputs": [
        {
          "internalType": "string",
          "name": "",
          "type": "string"
        }
      ],
      "stateMutability": "view",
      "type": "function"
    },
    {
      "inputs": [],
      "name": "CREATE_PERMISSION",
      "outputs": [
        {
          "internalType": "string",
          "name": "",
          "type": "string"
        }
      ],
      "stateMutability": "view",
      "type": "function"
    },
    {
      "inputs": [],
      "name": "DELETE_PERMISSION",
      "outputs": [
        {
          "internalType": "string",
          "name": "",
          "type": "string"
        }
      ],
      "stateMutability": "view",
      "type": "function"
    },
    {
      "inputs": [],
      "name": "MASTER_ROLE",
      "outputs": [
        {
          "internalType": "string",
          "name": "",
          "type": "string"
        }
      ],
      "stateMutability": "view",
      "type": "function"
    },
    {
      "inputs": [],
      "name": "PERMISSION_MANAGER_RESOURCE",
      "outputs": [
        {
          "internalType": "string",
          "name": "",
          "type": "string"
        }
      ],
      "stateMutability": "view",
      "type": "function"
    },
    {
      "inputs": [],
      "name": "RBAC_RESOURCE",
      "outputs": [
        {
          "internalType": "string",
          "name": "",
          "type": "string"
        }
      ],
      "stateMutability": "view",
      "type": "function"
    },
    {
      "inputs": [],
      "name": "READ_PERMISSION",
      "outputs": [
        {
          "internalType": "string",
          "name": "",
          "type": "string"
        }
      ],
      "stateMutability": "view",
      "type": "function"
    },
    {
      "inputs": [],
      "name": "UPDATE_PERMISSION",
      "outputs": [
        {
          "internalType": "string",
          "name": "",
          "type": "string"
        }
      ],
      "stateMutability": "view",
      "type": "function"
    },
    {
      "inputs": [
        {
          "internalType": "contract DAORegistry",
          "name": "dao_",
          "type": "address"
        },
        {
          "internalType": "address",
          "name": "master_",
          "type": "address"
        },
        {
          "internalType": "string",
          "name": "resource_",
          "type": "string"
        },
        {
          "internalType": "string",
          "name": "panelName_",
          "type": "string"
        }
      ],
      "name": "__PermissionManager_init",
      "outputs": [],
      "stateMutability": "nonpayable",
      "type": "function"
    },
    {
      "inputs": [
        {
          "internalType": "string",
          "name": "role_",
          "type": "string"
        },
        {
          "components": [
            {
              "internalType": "string",
              "name": "resource",
              "type": "string"
            },
            {
              "internalType": "string[]",
              "name": "permissions",
              "type": "string[]"
            }
          ],
          "internalType": "struct IRBAC.ResourceWithPermissions[]",
          "name": "permissionsToAdd_",
          "type": "tuple[]"
        },
        {
          "internalType": "bool",
          "name": "allowed_",
          "type": "bool"
        }
      ],
      "name": "addPermissionsToRole",
      "outputs": [],
      "stateMutability": "nonpayable",
      "type": "function"
    },
    {
      "inputs": [
        {
          "internalType": "address",
          "name": "who_",
          "type": "address"
        },
        {
          "internalType": "string[]",
          "name": "groupsToAddTo_",
          "type": "string[]"
        }
      ],
      "name": "addUserToGroups",
      "outputs": [],
      "stateMutability": "nonpayable",
      "type": "function"
    },
    {
      "inputs": [
        {
          "internalType": "address",
          "name": "target_",
          "type": "address"
        },
        {
          "internalType": "string",
          "name": "name_",
          "type": "string"
        },
        {
          "internalType": "contract DAOMemberStorage",
          "name": "linkedMemberStorage_",
          "type": "address"
        }
      ],
      "name": "addVetoGroup",
      "outputs": [],
      "stateMutability": "nonpayable",
      "type": "function"
    },
    {
      "inputs": [
        {
          "components": [
            {
              "internalType": "string",
              "name": "name",
              "type": "string"
            },
            {
              "internalType": "address",
              "name": "target",
              "type": "address"
            },
            {
              "internalType": "contract DAOMemberStorage",
              "name": "linkedMemberStorage",
              "type": "address"
            }
          ],
          "internalType": "struct IPermissionManager.VetoGroup[]",
          "name": "vetoGroups_",
          "type": "tuple[]"
        }
      ],
      "name": "addVetoGroups",
      "outputs": [],
      "stateMutability": "nonpayable",
      "type": "function"
    },
    {
      "inputs": [
        {
          "internalType": "address",
          "name": "account_",
          "type": "address"
        },
        {
          "internalType": "string",
          "name": "permission_",
          "type": "string"
        }
      ],
      "name": "checkPermission",
      "outputs": [
        {
          "internalType": "bool",
          "name": "",
          "type": "bool"
        }
      ],
      "stateMutability": "view",
      "type": "function"
    },
    {
      "inputs": [
        {
          "internalType": "string",
          "name": "votingName_",
          "type": "string"
        },
        {
          "internalType": "string",
          "name": "panelName_",
          "type": "string"
        }
      ],
      "name": "confExpertsGroups",
      "outputs": [],
      "stateMutability": "nonpayable",
      "type": "function"
    },
    {
      "inputs": [
        {
          "internalType": "contract DAORegistry",
          "name": "dao_",
          "type": "address"
        },
        {
          "internalType": "string",
          "name": "moduleName_",
          "type": "string"
        }
      ],
      "name": "confExternalModule",
      "outputs": [],
      "stateMutability": "nonpayable",
      "type": "function"
    },
    {
      "inputs": [
        {
          "internalType": "contract DAORegistry",
          "name": "dao_",
          "type": "address"
        },
        {
          "internalType": "string",
          "name": "votingName_",
          "type": "string"
        },
        {
          "internalType": "string",
          "name": "panelName_",
          "type": "string"
        }
      ],
      "name": "confMemberGroup",
      "outputs": [],
      "stateMutability": "nonpayable",
      "type": "function"
    },
    {
      "inputs": [
        {
          "internalType": "contract DAORegistry",
          "name": "dao_",
          "type": "address"
        },
        {
          "internalType": "string",
          "name": "votingName_",
          "type": "string"
        },
        {
          "internalType": "address",
          "name": "voting_",
          "type": "address"
        },
        {
          "internalType": "string",
          "name": "panelName_",
          "type": "string"
        }
      ],
      "name": "confVotingModule",
      "outputs": [],
      "stateMutability": "nonpayable",
      "type": "function"
    },
    {
      "inputs": [],
      "name": "getDefaultGroupEnabled",
      "outputs": [
        {
          "internalType": "bool",
          "name": "defaultGroupEnabled_",
          "type": "bool"
        }
      ],
      "stateMutability": "view",
      "type": "function"
    },
    {
      "inputs": [],
      "name": "getExistingVetoGroupTargets",
      "outputs": [
        {
          "internalType": "address[]",
          "name": "",
          "type": "address[]"
        }
      ],
      "stateMutability": "view",
      "type": "function"
    },
    {
      "inputs": [
        {
          "internalType": "string",
          "name": "group_",
          "type": "string"
        }
      ],
      "name": "getGroupRoles",
      "outputs": [
        {
          "internalType": "string[]",
          "name": "roles_",
          "type": "string[]"
        }
      ],
      "stateMutability": "view",
      "type": "function"
    },
    {
      "inputs": [],
      "name": "getResource",
      "outputs": [
        {
          "internalType": "string",
          "name": "",
          "type": "string"
        }
      ],
      "stateMutability": "view",
      "type": "function"
    },
    {
      "inputs": [
        {
          "internalType": "string",
          "name": "role_",
          "type": "string"
        }
      ],
      "name": "getRolePermissions",
      "outputs": [
        {
          "components": [
            {
              "internalType": "string",
              "name": "resource",
              "type": "string"
            },
            {
              "internalType": "string[]",
              "name": "permissions",
              "type": "string[]"
            }
          ],
          "internalType": "struct IRBAC.ResourceWithPermissions[]",
          "name": "allowed_",
          "type": "tuple[]"
        },
        {
          "components": [
            {
              "internalType": "string",
              "name": "resource",
              "type": "string"
            },
            {
              "internalType": "string[]",
              "name": "permissions",
              "type": "string[]"
            }
          ],
          "internalType": "struct IRBAC.ResourceWithPermissions[]",
          "name": "disallowed_",
          "type": "tuple[]"
        }
      ],
      "stateMutability": "view",
      "type": "function"
    },
    {
      "inputs": [
        {
          "internalType": "address",
          "name": "who_",
          "type": "address"
        }
      ],
      "name": "getUserGroups",
      "outputs": [
        {
          "internalType": "string[]",
          "name": "groups_",
          "type": "string[]"
        }
      ],
      "stateMutability": "view",
      "type": "function"
    },
    {
      "inputs": [
        {
          "internalType": "address",
          "name": "who_",
          "type": "address"
        }
      ],
      "name": "getUserRoles",
      "outputs": [
        {
          "internalType": "string[]",
          "name": "roles_",
          "type": "string[]"
        }
      ],
      "stateMutability": "view",
      "type": "function"
    },
    {
      "inputs": [
        {
          "internalType": "address",
          "name": "target_",
          "type": "address"
        }
      ],
      "name": "getVetoGroupInfo",
      "outputs": [
        {
          "components": [
            {
              "internalType": "string",
              "name": "name",
              "type": "string"
            },
            {
              "internalType": "address",
              "name": "target",
              "type": "address"
            },
            {
              "internalType": "contract DAOMemberStorage",
              "name": "linkedMemberStorage",
              "type": "address"
            }
          ],
          "internalType": "struct IPermissionManager.VetoGroup",
          "name": "",
          "type": "tuple"
        }
      ],
      "stateMutability": "view",
      "type": "function"
    },
    {
      "inputs": [
        {
          "internalType": "address",
          "name": "target_",
          "type": "address"
        }
      ],
      "name": "getVetoGroupMembers",
      "outputs": [
        {
          "internalType": "address[]",
          "name": "",
          "type": "address[]"
        }
      ],
      "stateMutability": "view",
      "type": "function"
    },
    {
      "inputs": [
        {
          "internalType": "address",
          "name": "target_",
          "type": "address"
        }
      ],
      "name": "getVetoMembersCount",
      "outputs": [
        {
          "internalType": "uint256",
          "name": "",
          "type": "uint256"
        }
      ],
      "stateMutability": "view",
      "type": "function"
    },
    {
      "inputs": [
        {
          "internalType": "string",
          "name": "groupTo_",
          "type": "string"
        },
        {
          "internalType": "string[]",
          "name": "rolesToGrant_",
          "type": "string[]"
        }
      ],
      "name": "grantGroupRoles",
      "outputs": [],
      "stateMutability": "nonpayable",
      "type": "function"
    },
    {
      "inputs": [
        {
          "internalType": "address",
          "name": "to_",
          "type": "address"
        },
        {
          "internalType": "string[]",
          "name": "rolesToGrant_",
          "type": "string[]"
        }
      ],
      "name": "grantRoles",
      "outputs": [],
      "stateMutability": "nonpayable",
      "type": "function"
    },
    {
      "inputs": [
        {
          "internalType": "address",
          "name": "who_",
          "type": "address"
        },
        {
          "internalType": "string",
          "name": "resource_",
          "type": "string"
        },
        {
          "internalType": "string",
          "name": "permission_",
          "type": "string"
        }
      ],
      "name": "hasPermission",
      "outputs": [
        {
          "internalType": "bool",
          "name": "isAllowed_",
          "type": "bool"
        }
      ],
      "stateMutability": "view",
      "type": "function"
    },
    {
      "inputs": [
        {
          "internalType": "contract DAORegistry",
          "name": "dao_",
          "type": "address"
        },
        {
          "internalType": "address",
          "name": "voting_",
          "type": "address"
        },
        {
          "internalType": "string",
          "name": "votingName_",
          "type": "string"
        },
        {
          "internalType": "string",
          "name": "panelName_",
          "type": "string"
        }
      ],
      "name": "initialConfiguration",
      "outputs": [],
      "stateMutability": "nonpayable",
      "type": "function"
    },
    {
      "inputs": [
        {
          "internalType": "address",
          "name": "target_",
          "type": "address"
        }
      ],
      "name": "isVetoGroupExists",
      "outputs": [
        {
          "internalType": "bool",
          "name": "",
          "type": "bool"
        }
      ],
      "stateMutability": "view",
      "type": "function"
    },
    {
      "inputs": [
        {
          "internalType": "address",
          "name": "target_",
          "type": "address"
        },
        {
          "internalType": "contract DAOMemberStorage",
          "name": "linkedMemberStorage_",
          "type": "address"
        }
      ],
      "name": "linkStorageToVetoGroup",
      "outputs": [],
      "stateMutability": "nonpayable",
      "type": "function"
    },
    {
      "inputs": [
        {
          "internalType": "bytes[]",
          "name": "data",
          "type": "bytes[]"
        }
      ],
      "name": "multicall",
      "outputs": [
        {
          "internalType": "bytes[]",
          "name": "results",
          "type": "bytes[]"
        }
      ],
      "stateMutability": "nonpayable",
      "type": "function"
    },
    {
      "inputs": [
        {
          "internalType": "string",
          "name": "role_",
          "type": "string"
        },
        {
          "components": [
            {
              "internalType": "string",
              "name": "resource",
              "type": "string"
            },
            {
              "internalType": "string[]",
              "name": "permissions",
              "type": "string[]"
            }
          ],
          "internalType": "struct IRBAC.ResourceWithPermissions[]",
          "name": "permissionsToRemove_",
          "type": "tuple[]"
        },
        {
          "internalType": "bool",
          "name": "allowed_",
          "type": "bool"
        }
      ],
      "name": "removePermissionsFromRole",
      "outputs": [],
      "stateMutability": "nonpayable",
      "type": "function"
    },
    {
      "inputs": [
        {
          "internalType": "address",
          "name": "who_",
          "type": "address"
        },
        {
          "internalType": "string[]",
          "name": "groupsToRemoveFrom_",
          "type": "string[]"
        }
      ],
      "name": "removeUserFromGroups",
      "outputs": [],
      "stateMutability": "nonpayable",
      "type": "function"
    },
    {
      "inputs": [
        {
          "internalType": "address",
          "name": "target_",
          "type": "address"
        }
      ],
      "name": "removeVetoGroup",
      "outputs": [],
      "stateMutability": "nonpayable",
      "type": "function"
    },
    {
      "inputs": [
        {
          "internalType": "string",
          "name": "groupFrom_",
          "type": "string"
        },
        {
          "internalType": "string[]",
          "name": "rolesToRevoke_",
          "type": "string[]"
        }
      ],
      "name": "revokeGroupRoles",
      "outputs": [],
      "stateMutability": "nonpayable",
      "type": "function"
    },
    {
      "inputs": [
        {
          "internalType": "address",
          "name": "from_",
          "type": "address"
        },
        {
          "internalType": "string[]",
          "name": "rolesToRevoke_",
          "type": "string[]"
        }
      ],
      "name": "revokeRoles",
      "outputs": [],
      "stateMutability": "nonpayable",
      "type": "function"
    },
    {
      "inputs": [],
      "name": "toggleDefaultGroup",
      "outputs": [],
      "stateMutability": "nonpayable",
      "type": "function"
    }
  ],
  "bytecode": "0x608060405234801561001057600080fd5b50615a3680620000216000396000f3fe608060405234801561001057600080fd5b506004361061025d5760003560e01c80637951c6da11610146578063b832a5a2116100c3578063ee2f6ce511610087578063ee2f6ce5146105cb578063f1c7d41b146105de578063fc981a36146105f1578063fcddfd4a14610604578063ff66e41214610617578063ff846fb9146103a657600080fd5b8063b832a5a21461055e578063bb65dc8314610583578063d41de1271461058b578063d8ad4e1c14610593578063dc224863146105a657600080fd5b80639a9aa8d41161010a5780639a9aa8d4146104e0578063a64eeff9146104f3578063a9b9836814610506578063ac9650d814610519578063b3e657fb1461053957600080fd5b80637951c6da1461047f5780637cb9cdfa1461049257806381c5492b146104a55780638af745a4146104ba5780638e5cc2b7146104cd57600080fd5b806331dbd475116101df5780634f0d84e3116101a35780634f0d84e3146103d9578063524e62b2146103ec5780636cb6f26c1461040d578063733352b31461042d578063747ddf771461045957806375e025e71461046c57600080fd5b806331dbd4751461037857806337ff630d146103805780633da04e4a146103935780634a9e12c5146103a65780634d74b439146103c657600080fd5b80630ead6f1e116102265780630ead6f1e14610307578063141c98951461032c5780631f6f16a61461033f57806321a9ec211461035257806330cae1681461036557600080fd5b80622f5bc01461026257806303bc0b3e1461028c57806306a36aee146102bc57806309eee809146102dc5780630b441407146102f1575b600080fd5b610275610270366004614714565b61062a565b604051610283929190614855565b60405180910390f35b6102af604051806040016040528060048152602001631491505160e21b81525081565b6040516102839190614883565b6102cf6102ca3660046148ab565b6108e4565b6040516102839190614920565b6102ef6102ea366004614933565b61090e565b005b60045415155b6040519015158152602001610283565b6102af6040518060400160405280600681526020016555504441544560d01b81525081565b6102f761033a3660046148ab565b610948565b6102ef61034d366004614996565b610987565b6102ef6103603660046149f9565b6109bc565b6102ef610373366004614adf565b610ca9565b6102af610d9b565b6102ef61038e366004614b56565b610e29565b6102cf6103a13660046148ab565b610f26565b6102af604051806040016040528060018152602001601560f91b81525081565b6102ef6103d4366004614c93565b610ff1565b6102ef6103e7366004614d1b565b611039565b6103ff6103fa3660046148ab565b611119565b604051908152602001610283565b61042061041b3660046148ab565b61112b565b6040516102839190614d60565b6102af6040518060400160405280600d81526020016c524241435f5245534f5552434560981b81525081565b6102ef610467366004614dac565b611234565b6102ef61047a366004614b56565b6112de565b6102f761048d366004614eb8565b6113d3565b6102ef6104a03660046148ab565b61151b565b6104ad6117d5565b6040516102839190614f2d565b6102ef6104c8366004614f7a565b6117e6565b6102cf6104db366004614714565b611b12565b6102ef6104ee366004614d1b565b611b27565b6102ef610501366004614eb8565b611c13565b6102ef610514366004614fbf565b611c45565b61052c610527366004615078565b61235d565b60405161028391906150ec565b6102af6040518060400160405280600681526020016543524541544560d01b81525081565b6102af6040518060400160405280600681526020016544454c45544560d01b81525081565b6102af612451565b6102ef6124e3565b6102f76105a1366004614f7a565b6125c1565b6102af6040518060400160405280600681526020016526a0a9aa22a960d11b81525081565b6102ef6105d9366004614d1b565b612658565b6102ef6105ec366004614adf565b612738565b6104ad6105ff3660046148ab565b612824565b6102ef610612366004614d1b565b6128f7565b6102ef61062536600461514e565b6129e3565b606080600060028460405161063f91906151bf565b9081526040805160209281900383018120600160009081529352908220925060029061066c9087906151bf565b90815260408051602092819003830181206000808052935290822092506001906106979088906151bf565b9081526040805191829003602090810183206001600081815291909252918220935090916106c69089906151bf565b908152604080516020928190038301902060008080529252902084549091506001600160401b038111156106fc576106fc614607565b60405190808252806020026020018201604052801561074157816020015b604080518082019091526060808252602082015281526020019060019003908161071a5790505b50955061074c835490565b6001600160401b0381111561076357610763614607565b6040519080825280602002602001820160405280156107a857816020015b60408051808201909152606080825260208201528152602001906001900390816107815790505b50945060005b8651811015610858576107c18582612a16565b8782815181106107d3576107d36151db565b602002602001015160000181905250610824838883815181106107f8576107f86151db565b60200260200101516000015160405161081191906151bf565b9081526020016040518091039020612ac8565b878281518110610836576108366151db565b602002602001015160200181905250808061085090615207565b9150506107ae565b5060005b85518110156108da5761086f8482612a16565b868281518110610881576108816151db565b6020026020010151600001819052506108a6828783815181106107f8576107f86151db565b8682815181106108b8576108b86151db565b60200260200101516020018190525080806108d290615207565b91505061085c565b5050505050915091565b6001600160a01b038116600090815260036020526040902060609061090890612ac8565b92915050565b6109386040518060400160405280600981526020016804144445f47524f55560bc1b815250612ba5565b610943838383612c3a565b505050565b600080600a61095684612ebf565b60405161096391906151bf565b908152604051908190036020019020600101546001600160a01b0316141592915050565b6109ae6040518060400160405280600681526020016543524541544560d01b815250612ba5565b6109b88282612fe7565b5050565b6109e96040518060400160405280600c81526020016b05550444154455f47524f55560a41b815250612ba5565b60006109f483612ebf565b905060006001600160a01b0316600a82604051610a1191906151bf565b908152604051908190036020019020600101546001600160a01b031603610acb5760405162461bcd60e51b815260206004820152605860248201527f5b5147444b2d3030383030335d2d546865207665746f2067726f757020646f6560448201527f73206e6f74206578697374732c20696d706f737369626c6520746f206c696e6b60648201527f2069742077697468206d656d6265722073746f726167652e0000000000000000608482015260a4015b60405180910390fd5b6000600a82604051610add91906151bf565b908152604051908190036020019020600201546001600160a01b031690508015610b8d57610b8d816001600160a01b0316634b79c0746040518163ffffffff1660e01b8152600401600060405180830381865afa158015610b42573d6000803e3d6000fd5b505050506040513d6000823e601f3d908101601f19168201604052610b6a91908101906152e4565b600081518110610b7c57610b7c6151db565b60200260200101516103738461308c565b82600a83604051610b9e91906151bf565b90815260405190819003602001902060020180546001600160a01b039283166001600160a01b0319909116179055831615610c5f57610c5f836001600160a01b0316634b79c0746040518163ffffffff1660e01b8152600401600060405180830381865afa158015610c14573d6000803e3d6000fd5b505050506040513d6000823e601f3d908101601f19168201604052610c3c91908101906152e4565b600081518110610c4e57610c4e6151db565b60200260200101516105ec8461308c565b604080516001600160a01b038087168252851660208201527f2ab590f0b59257764cf60af701cdaf4e4cc93be619db3d27af2f1f969c919c8e91015b60405180910390a150505050565b6040518060400160405280600d81526020016c524241435f5245534f5552434560981b8152506040518060400160405280600681526020016544454c45544560d01b815250610cf93383836113d3565b8183604051602001610d0c929190615318565b60405160208183030381529060405290610d395760405162461bcd60e51b8152600401610ac29190614883565b506000835111610d8b5760405162461bcd60e51b815260206004820152601a60248201527f5242414347726f757061626c653a20656d70747920726f6c65730000000000006044820152606401610ac2565b610d9584846130c4565b50505050565b60078054610da890615385565b80601f0160208091040260200160405190810160405280929190818152602001828054610dd490615385565b8015610e215780601f10610df657610100808354040283529160200191610e21565b820191906000526020600020905b815481529060010190602001808311610e0457829003601f168201915b505050505081565b6040518060400160405280600d81526020016c524241435f5245534f5552434560981b8152506040518060400160405280600681526020016543524541544560d01b815250610e793383836113d3565b8183604051602001610e8c929190615318565b60405160208183030381529060405290610eb95760405162461bcd60e51b8152600401610ac29190614883565b5060005b8451811015610f1e57610f0c86868381518110610edc57610edc6151db565b602002602001015160000151878481518110610efa57610efa6151db565b6020026020010151602001518761311e565b80610f1681615207565b915050610ebd565b505050505050565b6001600160a01b0381166000908152600560205260408120606091610f49825490565b905060045481610f5991906153bf565b6001600160401b03811115610f7057610f70614607565b604051908082528060200260200182016040528015610fa357816020015b6060815260200190600190039081610f8e5790505b50925060005b81811015610fe957610fbb8382612a16565b848281518110610fcd57610fcd6151db565b602002602001018190525080610fe290615207565b9050610fa9565b505050919050565b6110186040518060400160405280600681526020016543524541544560d01b815250612ba5565b611024848385846131e2565b61102f8483836133cb565b610d958282612fe7565b6040518060400160405280600d81526020016c524241435f5245534f5552434560981b8152506040518060400160405280600681526020016544454c45544560d01b8152506110893383836113d3565b818360405160200161109c929190615318565b604051602081830303815290604052906110c95760405162461bcd60e51b8152600401610ac29190614883565b50600083511161110f5760405162461bcd60e51b8152602060048201526011602482015270524241433a20656d70747920726f6c657360781b6044820152606401610ac2565b610d9584846134dc565b600061112482612824565b5192915050565b6040805160608082018352815260006020820181905291810191909152600a61115383612ebf565b60405161116091906151bf565b908152602001604051809103902060405180606001604052908160008201805461118990615385565b80601f01602080910402602001604051908101604052809291908181526020018280546111b590615385565b80156112025780601f106111d757610100808354040283529160200191611202565b820191906000526020600020905b8154815290600101906020018083116111e557829003601f168201915b505050918352505060018201546001600160a01b03908116602083015260029092015490911660409091015292915050565b61125e6040518060400160405280600981526020016804144445f47524f55560bc1b815250612ba5565b60005b81518110156109b8576112cc82828151811061127f5761127f6151db565b60200260200101516020015183838151811061129d5761129d6151db565b6020026020010151600001518484815181106112bb576112bb6151db565b602002602001015160400151612c3a565b806112d681615207565b915050611261565b6040518060400160405280600d81526020016c524241435f5245534f5552434560981b8152506040518060400160405280600681526020016544454c45544560d01b81525061132e3383836113d3565b8183604051602001611341929190615318565b6040516020818303038152906040529061136e5760405162461bcd60e51b8152600401610ac29190614883565b5060005b8451811015610f1e576113c186868381518110611391576113916151db565b6020026020010151600001518784815181106113af576113af6151db565b6020026020010151602001518761352f565b806113cb81615207565b915050611372565b6000806113df856108e4565b905060005b815181101561144f576000828281518110611401576114016151db565b602002602001015190506114168187876135fd565b156114275760009350505050611514565b83806114395750611439818787613704565b935050808061144790615207565b9150506113e4565b50600061145b86610f26565b905060005b81518110156115105761148b82828151811061147e5761147e6151db565b6020026020010151611b12565b925060005b83518110156114fd5760008482815181106114ad576114ad6151db565b602002602001015190506114c28189896135fd565b156114d557600095505050505050611514565b85806114e757506114e7818989613704565b95505080806114f590615207565b915050611490565b508061150881615207565b915050611460565b5050505b9392505050565b6115486040518060400160405280600c81526020016b044454c4554455f47524f55560a41b815250612ba5565b600061155382612ebf565b905060006001600160a01b0316600a8260405161157091906151bf565b908152604051908190036020019020600101546001600160a01b03160361160e5760405162461bcd60e51b815260206004820152604660248201527f5b5147444b2d3030383030325d2d546865207665746f2067726f757020646f6560448201527f73206e6f74206578697374732c20696d706f737369626c6520746f2072656d6f6064820152653b329034ba1760d11b608482015260a401610ac2565b6000600a8260405161162091906151bf565b908152604051908190036020019020600201546001600160a01b03169050801561168557611685816001600160a01b0316634b79c0746040518163ffffffff1660e01b8152600401600060405180830381865afa158015610b42573d6000803e3d6000fd5b600a8260405161169591906151bf565b90815260405190819003602001902060006116b082826145b9565b506001810180546001600160a01b031990811690915560029091018054909116905560408051606081018252600860208201908152672b22aa27afa327a960c11b9282019290925290815260009061170790613767565b90506117616117158461308c565b600081518110611727576117276151db565b602002602001015161175a60405180602001604052806040518060400160405280898152602001878152508152506137c1565b60016112de565b61179061176d84613809565b60008151811061177f5761177f6151db565b60200260200101516103738561308c565b61179b60088561382a565b506040516001600160a01b03851681527f6c6a3de918692a79487701ebac9047aba7d0f6cbe7cfdff35f6e3bd0266e733c90602001610c9b565b60606117e1600861383f565b905090565b6118126040518060400160405280600b81526020016a24a72a22a3a920aa24a7a760a91b815250612ba5565b604051638c22360160e01b81526001600160a01b03831690638c2236019061183e908490600401614883565b602060405180830381865afa15801561185b573d6000803e3d6000fd5b505050506040513d601f19601f8201168201806040525081019061187f91906153d2565b6118f15760405162461bcd60e51b815260206004820152603760248201527f5b5147444b2d3030383030305d2d546865206d6f64756c65206e6f7420666f7560448201527f6e6420696e207468652044414f2052656769737472792e0000000000000000006064820152608401610ac2565b600080836001600160a01b03166335817773846040518263ffffffff1660e01b81526004016119209190614883565b602060405180830381865afa15801561193d573d6000803e3d6000fd5b505050506040513d601f19601f8201168201806040525081019061196191906153ef565b60408051600481526024810182526020810180516001600160e01b031663f13bdd4d60e01b17905290516001600160a01b0392909216916119a291906151bf565b600060405180830381855afa9150503d80600081146119dd576040519150601f19603f3d011682016040523d82523d6000602084013e6119e2565b606091505b50915091508180156119f5575060008151115b611a785760405162461bcd60e51b815260206004820152604860248201527f5b5147444b2d3030383030315d2d5468652074617267657420636f6e7472616360448201527f74206d75737420666f6c6c6f7720696e746567726174696f6e20646f63756d65606482015267373a30ba34b7b71760c11b608482015260a401610ac2565b600081806020019051810190611a8e919061540c565b905060005b8151811015610f1e57611b00828281518110611ab157611ab16151db565b602002602001015160000151838381518110611acf57611acf6151db565b602002602001015160200151848481518110611aed57611aed6151db565b602002602001015160400151600161311e565b80611b0a81615207565b915050611a93565b606061090860068360405161081191906151bf565b6040518060400160405280600d81526020016c524241435f5245534f5552434560981b8152506040518060400160405280600681526020016544454c45544560d01b815250611b773383836113d3565b8183604051602001611b8a929190615318565b60405160208183030381529060405290611bb75760405162461bcd60e51b8152600401610ac29190614883565b506000835111611c095760405162461bcd60e51b815260206004820152601b60248201527f5242414347726f757061626c653a20656d7074792067726f75707300000000006044820152606401610ac2565b610d95848461384c565b611c3a6040518060400160405280600681526020016543524541544560d01b815250612ba5565b6109438383836133cb565b600054610100900460ff1615808015611c655750600054600160ff909116105b80611c7f5750303b158015611c7f575060005460ff166001145b611ce25760405162461bcd60e51b815260206004820152602e60248201527f496e697469616c697a61626c653a20636f6e747261637420697320616c72656160448201526d191e481a5b9a5d1a585b1a5e995960921b6064820152608401610ac2565b6000805460ff191660011790558015611d05576000805461ff0019166101001790555b611d0d61389f565b611d3d85611d386040518060400160405280600681526020016526a0a9aa22a960d11b815250613971565b6139b3565b611d6886611d386040518060400160405280600681526020016526a0a9aa22a960d11b815250613971565b6007611d748582615577565b506040805161010081018252600960c082019081526804144445f47524f55560bc1b60e0830152815281518083018352600c81526b044454c4554455f47524f55560a41b6020828101919091528083019190915282518084018452600a81526920a2222fa6a2a6a122a960b11b818301528284015282518084018452600d81526c2222a622aa22afa6a2a6a122a960991b81830152606083015282518084018452600b81526a24a72a22a3a920aa24a7a760a91b818301526080830152825180840190935260138352724348414e47455f44414f5f4d4554414441544160681b9083015260a0810191909152600090611e6c90613a06565b9050611f85611eb085858080601f016020809104026020016040519081016040528093929190818152602001838380828437600092019190915250613b0992505050565b600081518110611ec257611ec26151db565b6020026020010151611f7e6040518060200160405280604051806040016040528060078054611ef090615385565b80601f0160208091040260200160405190810160405280929190818152602001828054611f1c90615385565b8015611f695780601f10611f3e57610100808354040283529160200191611f69565b820191906000526020600020905b815481529060010190602001808311611f4c57829003601f168201915b505050918352505060200187905290526137c1565b6001610e29565b6120db611fc785858080601f016020809104026020016040519081016040528093929190818152602001838380828437600092019190915250613b0992505050565b600081518110611fd957611fd96151db565b6020026020010151611f7e604051806020016040528060405180604001604052808d6001600160a01b0316633e4beca16040518163ffffffff1660e01b8152600401600060405180830381865afa158015612038573d6000803e3d6000fd5b505050506040513d6000823e601f3d908101601f191682016040526120609190810190615636565b81526040805160a0810182526006606082018181526543524541544560d01b60808401528252825180840184528181526555504441544560d01b60208281019190915283810191909152835180850185529182526544454c45544560d01b82820152928201529101906120d290613b2a565b905290526137c1565b600061216160405180606001604052806040518060400160405280600d81526020016c4352454154455f564f54494e4760981b8152508152602001604051806040016040528060088152602001672b27aa22afa327a960c11b815250815260200160405180604001604052806004815260200163564f544560e01b815250815250613b2a565b90506121c6886121a687878080601f016020809104026020016040519081016040528093929190818152602001838380828437600092019190915250613bbb92505050565b6000815181106121b8576121b86151db565b602002602001015183613bdc565b60006121fd60405180602001604052806040518060400160405280600681526020016511561411549560d21b815250815250613767565b9050612242896121a688888080601f016020809104026020016040519081016040528093929190818152602001838380828437600092019190915250613c9892505050565b61230c6122b38a6001600160a01b0316633e4beca16040518163ffffffff1660e01b8152600401600060405180830381865afa158015612286573d6000803e3d6000fd5b505050506040513d6000823e601f3d908101601f191682016040526122ae9190810190615636565b613cb9565b6000815181106122c5576122c56151db565b60200260200101516105ec88888080601f016020809104026020016040519081016040528093929190818152602001838380828437600092019190915250613bbb92505050565b5050508015610f1e576000805461ff0019169055604051600181527f7f26b83ff96e1f2b6a682f133852f6798a09c465da95921460cefb3847402498906020015b60405180910390a1505050505050565b6060816001600160401b0381111561237757612377614607565b6040519080825280602002602001820160405280156123aa57816020015b60608152602001906001900390816123955790505b50905060005b8281101561244a5761241a308585848181106123ce576123ce6151db565b90506020028101906123e0919061566a565b8080601f016020809104026020016040519081016040528093929190818152602001838380828437600092019190915250613cda92505050565b82828151811061242c5761242c6151db565b6020026020010181905250808061244290615207565b9150506123b0565b5092915050565b60606007805461246090615385565b80601f016020809104026020016040519081016040528092919081815260200182805461248c90615385565b80156124d95780601f106124ae576101008083540402835291602001916124d9565b820191906000526020600020905b8154815290600101906020018083116124bc57829003601f168201915b5050505050905090565b6040518060400160405280600d81526020016c524241435f5245534f5552434560981b8152506040518060400160405280600681526020016555504441544560d01b8152506125333383836113d3565b8183604051602001612546929190615318565b604051602081830303815290604052906125735760405162461bcd60e51b8152600401610ac29190614883565b506004805460011890557f24fa34c0bf7e6ede131bebfcec90266c50d844496bcf1de81f90746374a5d9626125a9600454151590565b60405190151581526020015b60405180910390a15050565b600061151483600780546125d490615385565b80601f016020809104026020016040519081016040528092919081815260200182805461260090615385565b801561264d5780601f106126225761010080835404028352916020019161264d565b820191906000526020600020905b81548152906001019060200180831161263057829003601f168201915b5050505050846113d3565b6040518060400160405280600d81526020016c524241435f5245534f5552434560981b8152506040518060400160405280600681526020016543524541544560d01b8152506126a83383836113d3565b81836040516020016126bb929190615318565b604051602081830303815290604052906126e85760405162461bcd60e51b8152600401610ac29190614883565b50600083511161272e5760405162461bcd60e51b8152602060048201526011602482015270524241433a20656d70747920726f6c657360781b6044820152606401610ac2565b610d9584846139b3565b6040518060400160405280600d81526020016c524241435f5245534f5552434560981b8152506040518060400160405280600681526020016543524541544560d01b8152506127883383836113d3565b818360405160200161279b929190615318565b604051602081830303815290604052906127c85760405162461bcd60e51b8152600401610ac29190614883565b50600083511161281a5760405162461bcd60e51b815260206004820152601a60248201527f5242414347726f757061626c653a20656d70747920726f6c65730000000000006044820152606401610ac2565b610d958484613cff565b60606000600a61283384612ebf565b60405161284091906151bf565b90815260405190819003602001902060028101549091506001600160a01b031661287a575050604080516000815260208101909152919050565b8060020160009054906101000a90046001600160a01b03166001600160a01b0316639eab52536040518163ffffffff1660e01b8152600401600060405180830381865afa1580156128cf573d6000803e3d6000fd5b505050506040513d6000823e601f3d908101601f1916820160405261151491908101906156b7565b6040518060400160405280600d81526020016c524241435f5245534f5552434560981b8152506040518060400160405280600681526020016543524541544560d01b8152506129473383836113d3565b818360405160200161295a929190615318565b604051602081830303815290604052906129875760405162461bcd60e51b8152600401610ac29190614883565b5060008351116129d95760405162461bcd60e51b815260206004820152601b60248201527f5242414347726f757061626c653a20656d7074792067726f75707300000000006044820152606401610ac2565b610d958484613d59565b612a0a6040518060400160405280600681526020016543524541544560d01b815250612ba5565b610d95848484846131e2565b6060826000018281548110612a2d57612a2d6151db565b906000526020600020018054612a4290615385565b80601f0160208091040260200160405190810160405280929190818152602001828054612a6e90615385565b8015612abb5780601f10612a9057610100808354040283529160200191612abb565b820191906000526020600020905b815481529060010190602001808311612a9e57829003601f168201915b5050505050905092915050565b606081600001805480602002602001604051908101604052809291908181526020016000905b82821015612b9a578382906000526020600020018054612b0d90615385565b80601f0160208091040260200160405190810160405280929190818152602001828054612b3990615385565b8015612b865780601f10612b5b57610100808354040283529160200191612b86565b820191906000526020600020905b815481529060010190602001808311612b6957829003601f168201915b505050505081526020019060010190612aee565b505050509050919050565b612baf33826125c1565b612c375760405162461bcd60e51b815260206004820152604d60248201527f5b5147444b2d3030383030365d2d5468652073656e646572206973206e6f742060448201527f616c6c6f77656420746f20706572666f726d2074686520616374696f6e2c206160648201526c31b1b2b9b9903232b734b2b21760991b608482015260a401610ac2565b50565b6000612c4584612ebf565b905060006001600160a01b0316600a82604051612c6291906151bf565b908152604051908190036020019020600101546001600160a01b031614612ce05760405162461bcd60e51b815260206004820152602c60248201527f5b5147444b2d3030383030345d2d546865207665746f2067726f757020616c7260448201526b32b0b23c9032bc34b9ba399760a11b6064820152608401610ac2565b82600a82604051612cf191906151bf565b90815260405190819003602001902090612d0b9082615577565b5083600a82604051612d1d91906151bf565b908152602001604051809103902060010160006101000a8154816001600160a01b0302191690836001600160a01b0316021790555081600a82604051612d6391906151bf565b908152604080516020928190038301812060020180546001600160a01b0319166001600160a01b0395909516949094179093556060830181526008918301918252672b22aa27afa327a960c11b908301528152600090612dc290613767565b9050612e15612dd08361308c565b600081518110612de257612de26151db565b6020026020010151611f7e60405180602001604052806040518060400160405280888152602001878152508152506137c1565b612e21610c3c83613809565b6001600160a01b03831615612e7157612e71836001600160a01b0316634b79c0746040518163ffffffff1660e01b8152600401600060405180830381865afa158015610c14573d6000803e3d6000fd5b612e7c600886613dac565b507f0a16582e86830354533cc5c6fb616843acfeb2c6dd6f0637f42c1cf32853abc4858585604051612eb093929190615745565b60405180910390a15050505050565b60408051600481526024810182526020810180516001600160e01b031663bb65dc8360e01b17905290516060916000916001600160a01b03851691612f03916151bf565b600060405180830381855afa9150503d8060008114612f3e576040519150601f19603f3d011682016040523d82523d6000602084013e612f43565b606091505b509150506000815111612fd35760405162461bcd60e51b815260206004820152604c60248201527f5b5147444b2d3030383030355d2d5468652074617267657420636f6e7472616360448201527f74206d75737420696d706c656d656e7420746865204944414f5265736f75726360648201526b329034b73a32b93330b1b29760a11b608482015260a401610ac2565b808060200190518101906115149190615636565b600061301e60405180602001604052806040518060400160405280600681526020016511561411549560d21b815250815250613767565b9050600061302d848385613dc1565b905061305d61303b84613c98565b60008151811061304d5761304d6151db565b6020026020010151826001610e29565b610d9561306984613f10565b60008151811061307b5761307b6151db565b60200260200101516105ec85613c98565b60606109086040518060200160405280846040516020016130ad919061577a565b604051602081830303815290604052815250613767565b6130ed816006846040516130d891906151bf565b90815260405190819003602001902090613f31565b7f9ba35c12cc0b45bae6e2f4fd0085b072dfa11802727a4dca990ad11a960ab31682826040516125b59291906157b3565b600060028560405161313091906151bf565b908152604080516020928190038301812085151560009081529352908220925060019061315e9088906151bf565b9081526040805191829003602090810183208615156000908152915220906131879087906151bf565b90815260405190819003602001902090506131a28185613f7c565b6131ac8286613fc7565b507f06ea5bb05be257dd30f31cc76f4077a3df230e09f7e33e9b52fb09c40a8f695e8686868660405161234d94939291906157d8565b600061326160405180606001604052806040518060400160405280600681526020016543524541544560d01b81525081526020016040518060400160405280600681526020016555504441544560d01b81525081526020016040518060400160405280600681526020016544454c45544560d01b815250815250613b2a565b90506000613270858385613dc1565b905061327e61303b84613b09565b6133be61328a84613b09565b60008151811061329c5761329c6151db565b6020026020010151611f7e604051806020016040528060405180604001604052808c6001600160a01b0316631af6c0646040518163ffffffff1660e01b8152600401602060405180830381865afa1580156132fb573d6000803e3d6000fd5b505050506040513d601f19601f8201168201806040525081019061331f91906153ef565b6001600160a01b03166316b728176040518163ffffffff1660e01b8152600401600060405180830381865afa15801561335c573d6000803e3d6000fd5b505050506040513d6000823e601f3d908101601f191682016040526133849190810190615636565b81526020016120d260405180602001604052806040518060400160405280600681526020016555504441544560d01b815250815250613767565b610f1e846105d985613b09565b600061345160405180606001604052806040518060400160405280600d81526020016c4352454154455f564f54494e4760981b8152508152602001604051806040016040528060088152602001672b27aa22afa327a960c11b815250815260200160405180604001604052806004815260200163564f544560e01b815250815250613b2a565b90506000613460848385613dc1565b905061346e61303b84613bbb565b6134d56134b2866001600160a01b0316633e4beca16040518163ffffffff1660e01b8152600401600060405180830381865afa158015612286573d6000803e3d6000fd5b6000815181106134c4576134c46151db565b60200260200101516105ec85613bbb565b5050505050565b6001600160a01b03821660009081526003602052604090206134fe9082613f31565b7f037c273ac6ee1105154063d4b014a5afeec9981076c152f47a0899c6e285474082826040516125b5929190615825565b600060028560405161354191906151bf565b908152604080516020928190038301812085151560009081529352908220925060019061356f9088906151bf565b9081526040805191829003602090810183208615156000908152915220906135989087906151bf565b90815260405190819003602001902090506135b38185613f31565b80546000036135c8576135c68286614029565b505b7f27f963dfdedb973db8acb94be0be26fbd4c55498bc54cfd0733b9da9c0ab82968686868660405161234d94939291906157d8565b60008060018560405161361091906151bf565b90815260408051602092819003830181206000808052908452828120828401845260018352601560f91b94830194909452915192935090918391613653916151bf565b908152602001604051809103902090506000828660405161367491906151bf565b908152602001604051809103902090506136b0604051806040016040528060018152602001601560f91b815250836141e890919063ffffffff16565b806136c057506136c082866141e8565b806136e957506040805180820190915260018152601560f91b60208201526136e99082906141e8565b806136f957506136f981866141e8565b979650505050505050565b60008060018560405161371791906151bf565b9081526020016040518091039020600060011515151581526020019081526020016000209050600081604051806040016040528060018152602001601560f91b81525060405161365391906151bf565b604080516001808252818301909252606091816020015b606081526020019060019003908161377e5790505090508160005b6020020151816000815181106137b1576137b16151db565b6020026020010181905250919050565b604080516001808252818301909252606091816020015b60408051808201909152606080825260208201528152602001906001900390816137d8579050509050816000613799565b60606109086040518060200160405280846040516020016130ad9190615849565b6000611514836001600160a01b038416614215565b60606000611514836142fe565b6001600160a01b038216600090815260056020526040902061386e9082613f31565b7f4a1d3cc865b3d60b500acd482ee43bf242eade7364f8d537b561e923ab64a52882826040516125b5929190615825565b600054610100900460ff1661390a5760405162461bcd60e51b815260206004820152602b60248201527f496e697469616c697a61626c653a20636f6e7472616374206973206e6f74206960448201526a6e697469616c697a696e6760a81b6064820152608401610ac2565b61396f6040518060400160405280600681526020016526a0a9aa22a960d11b815250604051806040016040528060018152602001601560f91b815250613968604051806040016040528060018152602001601560f91b815250613971565b600161311e565b565b604080516001808252818301909252606091816020015b606081526020019060019003908161398857905050905081816000815181106137b1576137b16151db565b6001600160a01b03821660009081526003602052604090206139d59082613f7c565b7f44240f5b60cedf44a65c3717503d91c46a899ef33c5348880e4c29131ac8731182826040516125b5929190615825565b60408051600680825260e08201909252606091816020015b6060815260200190600190039081613a1e57505082518151919250908290600090613a4b57613a4b6151db565b6020908102919091010152816001602002015181600181518110613a7157613a716151db565b6020908102919091010152816002602002015181600281518110613a9757613a976151db565b6020908102919091010152816003602002015181600381518110613abd57613abd6151db565b6020908102919091010152816004602002015181600481518110613ae357613ae36151db565b60209081029190910101528160056020020151816005815181106137b1576137b16151db565b60606109086040518060200160405280846040516020016130ad919061587e565b60408051600380825260808201909252606091816020015b6060815260200190600190039081613b4257505082518151919250908290600090613b6f57613b6f6151db565b6020908102919091010152816001602002015181600181518110613b9557613b956151db565b60209081029190910101528160026020020151816002815181106137b1576137b16151db565b60606109086040518060200160405280846040516020016130ad91906158b4565b613c0682611f7e6040518060200160405280604051806040016040528060078054611ef090615385565b61094382611f7e60405180602001604052806040518060400160405280896001600160a01b0316633e4beca16040518163ffffffff1660e01b8152600401600060405180830381865afa158015613c61573d6000803e3d6000fd5b505050506040513d6000823e601f3d908101601f19168201604052613c899190810190615636565b815260200187905290526137c1565b60606109086040518060200160405280846040516020016130ad91906158dd565b60606109086040518060200160405280846040516020016130ad9190615906565b606061151483836040518060600160405280602781526020016159da6027913961435a565b613d2881600684604051613d1391906151bf565b90815260405190819003602001902090613f7c565b7f3c78b40ecb23192d0574c551ffadc5ae26920dbcb7a9d2359dfedbd8d381a64982826040516125b59291906157b3565b6001600160a01b0382166000908152600560205260409020613d7b9082613f7c565b7fb9f639551b4b6fd19206b3cdc0df0a37da14896683791aff139509644cb48f8482826040516125b5929190615825565b6000611514836001600160a01b0384166143d2565b60606000613e046040518060400160405280601a81526020017f44414f5f434f4e465f504152414d455445525f53544f5241474500000000000081525084614419565b90506000613e476040518060400160405280601981526020017f44414f5f5245475f504152414d455445525f53544f524147450000000000000081525085614419565b90506000613e7f6040518060400160405280601281526020017144414f5f4d454d4245525f53544f5241474560701b81525086614419565b90506000613e8d8887614419565b60408051808201825286815260208082018b9052825180840184528781528082018c9052835180850185528781528083018d9052845180860186528681528084018e90528551608081018752858152938401839052948301819052606083018590529495509193919290613f0090614445565b9c9b505050505050505050505050565b60606109086040518060200160405280846040516020016130ad9190615937565b60005b815181101561094357613f69828281518110613f5257613f526151db565b60200260200101518461402990919063ffffffff16565b5080613f7481615207565b915050613f34565b60005b815181101561094357613fb4828281518110613f9d57613f9d6151db565b602002602001015184613fc790919063ffffffff16565b5080613fbf81615207565b915050613f7f565b6000613fd383836141e8565b61402157825460018101845560008481526020902001613ff38382615577565b50825460405160018501906140099085906151bf565b90815260405190819003602001902055506001610908565b506000610908565b600080836001018360405161403e91906151bf565b9081526020016040518091039020549050806000146141de576000614064600183615974565b855490915060009061407890600190615974565b905081811461417f576000866000018281548110614098576140986151db565b9060005260206000200180546140ad90615385565b80601f01602080910402602001604051908101604052809291908181526020018280546140d990615385565b80156141265780601f106140fb57610100808354040283529160200191614126565b820191906000526020600020905b81548152906001019060200180831161410957829003601f168201915b5050505050905080876000018481548110614143576141436151db565b9060005260206000200190816141599190615577565b5083876001018260405161416d91906151bf565b90815260405190819003602001902055505b855486908061419057614190615987565b6001900381819060005260206000200160006141ac91906145b9565b905585600101856040516141c091906151bf565b90815260200160405180910390206000905560019350505050610908565b6000915050610908565b600082600101826040516141fc91906151bf565b9081526040519081900360200190205415159392505050565b600081815260018301602052604081205480156141de576000614239600183615974565b855490915060009061424d90600190615974565b90508181146142b257600086600001828154811061426d5761426d6151db565b9060005260206000200154905080876000018481548110614290576142906151db565b6000918252602080832090910192909255918252600188019052604090208390555b85548690806142c3576142c3615987565b600190038181906000526020600020016000905590558560010160008681526020019081526020016000206000905560019350505050610908565b60608160000180548060200260200160405190810160405280929190818152602001828054801561434e57602002820191906000526020600020905b81548152602001906001019080831161433a575b50505050509050919050565b6060600080856001600160a01b03168560405161437791906151bf565b600060405180830381855af49150503d80600081146143b2576040519150601f19603f3d011682016040523d82523d6000602084013e6143b7565b606091505b50915091506143c88683838761450e565b9695505050505050565b600081815260018301602052604081205461402157508154600181810184556000848152602080822090930184905584548482528286019093526040902091909155610908565b6060828260405160200161442e92919061599d565b604051602081830303815290604052905092915050565b60408051600480825260a08201909252606091816020015b604080518082019091526060808252602082015281526020019060019003908161445d5750508251815191925090829060009061449c5761449c6151db565b60209081029190910101528160016020020151816001815181106144c2576144c26151db565b60209081029190910101528160026020020151816002815181106144e8576144e86151db565b60209081029190910101528160036020020151816003815181106137b1576137b16151db565b6060831561457d578251600003614576576001600160a01b0385163b6145765760405162461bcd60e51b815260206004820152601d60248201527f416464726573733a2063616c6c20746f206e6f6e2d636f6e74726163740000006044820152606401610ac2565b5081614587565b614587838361458f565b949350505050565b81511561459f5781518083602001fd5b8060405162461bcd60e51b8152600401610ac29190614883565b5080546145c590615385565b6000825580601f106145d5575050565b601f016020900490600052602060002090810190612c3791905b8082111561460357600081556001016145ef565b5090565b634e487b7160e01b600052604160045260246000fd5b604080519081016001600160401b038111828210171561463f5761463f614607565b60405290565b604051606081016001600160401b038111828210171561463f5761463f614607565b604051601f8201601f191681016001600160401b038111828210171561468f5761468f614607565b604052919050565b60006001600160401b038211156146b0576146b0614607565b50601f01601f191660200190565b600082601f8301126146cf57600080fd5b81356146e26146dd82614697565b614667565b8181528460208386010111156146f757600080fd5b816020850160208301376000918101602001919091529392505050565b60006020828403121561472657600080fd5b81356001600160401b0381111561473c57600080fd5b614587848285016146be565b60005b8381101561476357818101518382015260200161474b565b50506000910152565b60008151808452614784816020860160208601614748565b601f01601f19169290920160200192915050565b60008282518085526020808601955060058183821b8501018287016000805b8681101561484657601f1980898603018c528351604081518188526147de8289018261476c565b928a0151888403898c01528051808552908b019392508a83019150808a1b83018b01875b8281101561482e578685830301845261481c82875161476c565b958d0195938d01939150600101614802565b509f8b019f98505050948801945050506001016147b7565b50919998505050505050505050565b6040815260006148686040830185614798565b828103602084015261487a8185614798565b95945050505050565b602081526000611514602083018461476c565b6001600160a01b0381168114612c3757600080fd5b6000602082840312156148bd57600080fd5b813561151481614896565b600082825180855260208086019550808260051b84010181860160005b8481101561491357601f1986840301895261490183835161476c565b988401989250908301906001016148e5565b5090979650505050505050565b60208152600061151460208301846148c8565b60008060006060848603121561494857600080fd5b833561495381614896565b925060208401356001600160401b0381111561496e57600080fd5b61497a868287016146be565b925050604084013561498b81614896565b809150509250925092565b600080604083850312156149a957600080fd5b82356001600160401b03808211156149c057600080fd5b6149cc868387016146be565b935060208501359150808211156149e257600080fd5b506149ef858286016146be565b9150509250929050565b60008060408385031215614a0c57600080fd5b8235614a1781614896565b91506020830135614a2781614896565b809150509250929050565b60006001600160401b03821115614a4b57614a4b614607565b5060051b60200190565b600082601f830112614a6657600080fd5b81356020614a766146dd83614a32565b82815260059290921b84018101918181019086841115614a9557600080fd5b8286015b84811015614ad45780356001600160401b03811115614ab85760008081fd5b614ac68986838b01016146be565b845250918301918301614a99565b509695505050505050565b60008060408385031215614af257600080fd5b82356001600160401b0380821115614b0957600080fd5b614b15868387016146be565b93506020850135915080821115614b2b57600080fd5b506149ef85828601614a55565b8015158114612c3757600080fd5b8035614b5181614b38565b919050565b600080600060608486031215614b6b57600080fd5b83356001600160401b0380821115614b8257600080fd5b614b8e878388016146be565b9450602091508186013581811115614ba557600080fd5b8601601f81018813614bb657600080fd5b8035614bc46146dd82614a32565b81815260059190911b8201840190848101908a831115614be357600080fd5b8584015b83811015614c7457803586811115614bfe57600080fd5b85016040818e03601f19011215614c155760008081fd5b614c1d61461d565b8882013588811115614c2f5760008081fd5b614c3d8f8b838601016146be565b825250604082013588811115614c535760008081fd5b614c618f8b83860101614a55565b828b015250845250918601918601614be7565b50809750505050505050614c8a60408501614b46565b90509250925092565b60008060008060808587031215614ca957600080fd5b8435614cb481614896565b93506020850135614cc481614896565b925060408501356001600160401b0380821115614ce057600080fd5b614cec888389016146be565b93506060870135915080821115614d0257600080fd5b50614d0f878288016146be565b91505092959194509250565b60008060408385031215614d2e57600080fd5b8235614d3981614896565b915060208301356001600160401b03811115614d5457600080fd5b6149ef85828601614a55565b602081526000825160606020840152614d7c608084018261476c565b60208501516001600160a01b03908116604086810191909152909501519094166060909301929092525090919050565b60006020808385031215614dbf57600080fd5b82356001600160401b0380821115614dd657600080fd5b818501915085601f830112614dea57600080fd5b8135614df86146dd82614a32565b81815260059190911b83018401908481019088831115614e1757600080fd5b8585015b83811015614eab57803585811115614e335760008081fd5b86016060818c03601f1901811315614e4b5760008081fd5b614e53614645565b8983013588811115614e655760008081fd5b614e738e8c838701016146be565b825250604080840135614e8581614896565b828c01529282013592614e9784614896565b810192909252508352918601918601614e1b565b5098975050505050505050565b600080600060608486031215614ecd57600080fd5b8335614ed881614896565b925060208401356001600160401b0380821115614ef457600080fd5b614f00878388016146be565b93506040860135915080821115614f1657600080fd5b50614f23868287016146be565b9150509250925092565b6020808252825182820181905260009190848201906040850190845b81811015614f6e5783516001600160a01b031683529284019291840191600101614f49565b50909695505050505050565b60008060408385031215614f8d57600080fd5b8235614f9881614896565b915060208301356001600160401b03811115614fb357600080fd5b6149ef858286016146be565b600080600080600060808688031215614fd757600080fd5b8535614fe281614896565b94506020860135614ff281614896565b935060408601356001600160401b038082111561500e57600080fd5b61501a89838a016146be565b9450606088013591508082111561503057600080fd5b818801915088601f83011261504457600080fd5b81358181111561505357600080fd5b89602082850101111561506557600080fd5b9699959850939650602001949392505050565b6000806020838503121561508b57600080fd5b82356001600160401b03808211156150a257600080fd5b818501915085601f8301126150b657600080fd5b8135818111156150c557600080fd5b8660208260051b85010111156150da57600080fd5b60209290920196919550909350505050565b6000602080830181845280855180835260408601915060408160051b870101925083870160005b8281101561514157603f1988860301845261512f85835161476c565b94509285019290850190600101615113565b5092979650505050505050565b6000806000806080858703121561516457600080fd5b843561516f81614896565b935060208501356001600160401b038082111561518b57600080fd5b615197888389016146be565b9450604087013591506151a982614896565b90925060608601359080821115614d0257600080fd5b600082516151d1818460208701614748565b9190910192915050565b634e487b7160e01b600052603260045260246000fd5b634e487b7160e01b600052601160045260246000fd5b600060018201615219576152196151f1565b5060010190565b600082601f83011261523157600080fd5b815161523f6146dd82614697565b81815284602083860101111561525457600080fd5b614587826020830160208701614748565b600082601f83011261527657600080fd5b815160206152866146dd83614a32565b82815260059290921b840181019181810190868411156152a557600080fd5b8286015b84811015614ad45780516001600160401b038111156152c85760008081fd5b6152d68986838b0101615220565b8452509183019183016152a9565b6000602082840312156152f657600080fd5b81516001600160401b0381111561530c57600080fd5b61458784828501615265565b680292120a19d103737960bd1b81526000835161533c816009850160208801614748565b7f207065726d697373696f6e20666f72207265736f7572636520000000000000006009918401918201528351615379816022840160208801614748565b01602201949350505050565b600181811c9082168061539957607f821691505b6020821081036153b957634e487b7160e01b600052602260045260246000fd5b50919050565b80820180821115610908576109086151f1565b6000602082840312156153e457600080fd5b815161151481614b38565b60006020828403121561540157600080fd5b815161151481614896565b6000602080838503121561541f57600080fd5b82516001600160401b038082111561543657600080fd5b818501915085601f83011261544a57600080fd5b81516154586146dd82614a32565b81815260059190911b8301840190848101908883111561547757600080fd5b8585015b83811015614eab578051858111156154935760008081fd5b86016060818c03601f19018113156154ab5760008081fd5b6154b3614645565b89830151888111156154c55760008081fd5b6154d38e8c83870101615220565b825250604080840151898111156154ea5760008081fd5b6154f88f8d83880101615220565b838d0152509183015191888311156155105760008081fd5b61551e8e8c85870101615265565b908201528552505091860191860161547b565b601f82111561094357600081815260208120601f850160051c810160208610156155585750805b601f850160051c820191505b81811015610f1e57828155600101615564565b81516001600160401b0381111561559057615590614607565b6155a48161559e8454615385565b84615531565b602080601f8311600181146155d957600084156155c15750858301515b600019600386901b1c1916600185901b178555610f1e565b600085815260208120601f198616915b82811015615608578886015182559484019460019091019084016155e9565b50858210156156265787850151600019600388901b60f8161c191681555b5050505050600190811b01905550565b60006020828403121561564857600080fd5b81516001600160401b0381111561565e57600080fd5b61458784828501615220565b6000808335601e1984360301811261568157600080fd5b8301803591506001600160401b0382111561569b57600080fd5b6020019150368190038213156156b057600080fd5b9250929050565b600060208083850312156156ca57600080fd5b82516001600160401b038111156156e057600080fd5b8301601f810185136156f157600080fd5b80516156ff6146dd82614a32565b81815260059190911b8201830190838101908783111561571e57600080fd5b928401925b828410156136f957835161573681614896565b82529284019290840190615723565b600060018060a01b03808616835260606020840152615767606084018661476c565b9150808416604084015250949350505050565b702b32ba37a3b937bab82937b632a337b91d60791b8152600082516157a6816011850160208701614748565b9190910160110192915050565b6040815260006157c6604083018561476c565b828103602084015261487a81856148c8565b6080815260006157eb608083018761476c565b82810360208401526157fd818761476c565b9050828103604084015261581181866148c8565b915050821515606083015295945050505050565b6001600160a01b0383168152604060208201819052600090614587908301846148c8565b6c2b32ba37a3b937bab82337b91d60991b81526000825161587181600d850160208701614748565b91909101600d0192915050565b6d2220a7ab37ba34b733a937b6329d60911b8152600082516158a781600e850160208701614748565b91909101600e0192915050565b6d2220a7a6b2b6b132b92937b6329d60911b8152600082516158a781600e850160208701614748565b6d2220a7a2bc3832b93a2937b6329d60911b8152600082516158a781600e850160208701614748565b682220a7a3b937bab81d60b91b81526000825161592a816009850160208701614748565b9190910160090192915050565b742220a7a2bc3832b93a2b37ba34b733a3b937bab81d60591b815260008251615967816015850160208701614748565b9190910160150192915050565b81810381811115610908576109086151f1565b634e487b7160e01b600052603160045260246000fd5b600083516159af818460208801614748565b601d60f91b90830190815283516159cd816001840160208801614748565b0160010194935050505056fe416464726573733a206c6f772d6c6576656c2064656c65676174652063616c6c206661696c6564a26469706673582212201bb54030758caba34cdcc230a740b42d258bf443da537de5d7950a8da08390c264736f6c63430008130033",
  "linkReferences": {},
  "deployedLinkReferences": {}
}