{
  "_format": "hh-sol-artifact-1",
  "contractName": "DAORegistry",
  "sourceName": "@q-dev/gdk-contracts/DAO/DAORegistry.sol",
  "abi": [
    {
      "inputs": [
        {
          "internalType": "string",
          "name": "name",
          "type": "string"
        },
        {
          "internalType": "enum ParameterType",
          "name": "expected",
          "type": "uint8"
        },
        {
          "internalType": "enum ParameterType",
          "name": "actual",
          "type": "uint8"
        }
      ],
      "name": "InvalidParameterType",
      "type": "error"
    },
    {
      "anonymous": false,
      "inputs": [
        {
          "indexed": false,
          "internalType": "string",
          "name": "name",
          "type": "string"
        },
        {
          "indexed": false,
          "internalType": "address",
          "name": "contractAddress",
          "type": "address"
        }
      ],
      "name": "ContractAdded",
      "type": "event"
    },
    {
      "anonymous": false,
      "inputs": [
        {
          "indexed": false,
          "internalType": "string",
          "name": "name",
          "type": "string"
        }
      ],
      "name": "ContractRemoved",
      "type": "event"
    },
    {
      "anonymous": false,
      "inputs": [
        {
          "indexed": false,
          "internalType": "string",
          "name": "daoURI",
          "type": "string"
        }
      ],
      "name": "DAOURIChanged",
      "type": "event"
    },
    {
      "anonymous": false,
      "inputs": [
        {
          "indexed": false,
          "internalType": "uint8",
          "name": "version",
          "type": "uint8"
        }
      ],
      "name": "Initialized",
      "type": "event"
    },
    {
      "anonymous": false,
      "inputs": [],
      "name": "Initialized",
      "type": "event"
    },
    {
      "anonymous": false,
      "inputs": [
        {
          "indexed": false,
          "internalType": "string",
          "name": "panelName",
          "type": "string"
        }
      ],
      "name": "PanelAdded",
      "type": "event"
    },
    {
      "anonymous": false,
      "inputs": [
        {
          "indexed": false,
          "internalType": "string",
          "name": "panelName",
          "type": "string"
        }
      ],
      "name": "PanelRemoved",
      "type": "event"
    },
    {
      "anonymous": false,
      "inputs": [
        {
          "indexed": false,
          "internalType": "string",
          "name": "name",
          "type": "string"
        },
        {
          "indexed": false,
          "internalType": "address",
          "name": "contractAddress",
          "type": "address"
        },
        {
          "indexed": false,
          "internalType": "address",
          "name": "implementation",
          "type": "address"
        }
      ],
      "name": "ProxyContractAdded",
      "type": "event"
    },
    {
      "anonymous": false,
      "inputs": [
        {
          "indexed": false,
          "internalType": "string",
          "name": "name",
          "type": "string"
        },
        {
          "indexed": false,
          "internalType": "address",
          "name": "newImplementation",
          "type": "address"
        }
      ],
      "name": "ProxyContractUpgraded",
      "type": "event"
    },
    {
      "inputs": [],
      "name": "DAO_REGISTRY_RESOURCE",
      "outputs": [
        {
          "internalType": "string",
          "name": "",
          "type": "string"
        }
      ],
      "stateMutability": "view",
      "type": "function"
    },
    {
      "inputs": [
        {
          "internalType": "address",
          "name": "permissionManager_",
          "type": "address"
        },
        {
          "internalType": "address",
          "name": "masterAccess_",
          "type": "address"
        },
        {
          "internalType": "string",
          "name": "panelName_",
          "type": "string"
        },
        {
          "internalType": "string",
          "name": "registryResource_",
          "type": "string"
        },
        {
          "internalType": "string",
          "name": "daoURI_",
          "type": "string"
        }
      ],
      "name": "__DAORegistry_init",
      "outputs": [],
      "stateMutability": "nonpayable",
      "type": "function"
    },
    {
      "inputs": [
        {
          "internalType": "string",
          "name": "name_",
          "type": "string"
        },
        {
          "internalType": "address",
          "name": "contractAddress_",
          "type": "address"
        }
      ],
      "name": "addContract",
      "outputs": [],
      "stateMutability": "nonpayable",
      "type": "function"
    },
    {
      "inputs": [
        {
          "internalType": "string",
          "name": "panelName_",
          "type": "string"
        }
      ],
      "name": "addPanel",
      "outputs": [],
      "stateMutability": "nonpayable",
      "type": "function"
    },
    {
      "inputs": [
        {
          "internalType": "string",
          "name": "name_",
          "type": "string"
        },
        {
          "internalType": "address",
          "name": "contractAddress_",
          "type": "address"
        }
      ],
      "name": "addProxyContract",
      "outputs": [],
      "stateMutability": "nonpayable",
      "type": "function"
    },
    {
      "inputs": [
        {
          "internalType": "address",
          "name": "account_",
          "type": "address"
        },
        {
          "internalType": "string",
          "name": "permission_",
          "type": "string"
        }
      ],
      "name": "checkPermission",
      "outputs": [
        {
          "internalType": "bool",
          "name": "",
          "type": "bool"
        }
      ],
      "stateMutability": "view",
      "type": "function"
    },
    {
      "inputs": [],
      "name": "daoURI",
      "outputs": [
        {
          "internalType": "string",
          "name": "_daoURI",
          "type": "string"
        }
      ],
      "stateMutability": "view",
      "type": "function"
    },
    {
      "inputs": [
        {
          "internalType": "address",
          "name": "account_",
          "type": "address"
        }
      ],
      "name": "getAccountStatuses",
      "outputs": [
        {
          "components": [
            {
              "internalType": "string[]",
              "name": "groups",
              "type": "string[]"
            },
            {
              "internalType": "bool[]",
              "name": "isMember",
              "type": "bool[]"
            }
          ],
          "internalType": "struct IDAORegistry.AccountStatus",
          "name": "status",
          "type": "tuple"
        }
      ],
      "stateMutability": "view",
      "type": "function"
    },
    {
      "inputs": [
        {
          "internalType": "string",
          "name": "panelName_",
          "type": "string"
        }
      ],
      "name": "getConfDAOParameterStorage",
      "outputs": [
        {
          "internalType": "address",
          "name": "",
          "type": "address"
        }
      ],
      "stateMutability": "view",
      "type": "function"
    },
    {
      "inputs": [
        {
          "internalType": "string",
          "name": "name_",
          "type": "string"
        }
      ],
      "name": "getContract",
      "outputs": [
        {
          "internalType": "address",
          "name": "",
          "type": "address"
        }
      ],
      "stateMutability": "view",
      "type": "function"
    },
    {
      "inputs": [
        {
          "internalType": "string",
          "name": "panelName_",
          "type": "string"
        }
      ],
      "name": "getDAOMemberStorage",
      "outputs": [
        {
          "internalType": "address",
          "name": "",
          "type": "address"
        }
      ],
      "stateMutability": "view",
      "type": "function"
    },
    {
      "inputs": [],
      "name": "getDAOVault",
      "outputs": [
        {
          "internalType": "address",
          "name": "",
          "type": "address"
        }
      ],
      "stateMutability": "view",
      "type": "function"
    },
    {
      "inputs": [
        {
          "internalType": "string",
          "name": "panelName_",
          "type": "string"
        }
      ],
      "name": "getExpertsDAOVoting",
      "outputs": [
        {
          "internalType": "address",
          "name": "",
          "type": "address"
        }
      ],
      "stateMutability": "view",
      "type": "function"
    },
    {
      "inputs": [
        {
          "internalType": "string",
          "name": "panelName_",
          "type": "string"
        }
      ],
      "name": "getGeneralDAOVoting",
      "outputs": [
        {
          "internalType": "address",
          "name": "",
          "type": "address"
        }
      ],
      "stateMutability": "view",
      "type": "function"
    },
    {
      "inputs": [
        {
          "internalType": "string",
          "name": "name_",
          "type": "string"
        }
      ],
      "name": "getImplementation",
      "outputs": [
        {
          "internalType": "address",
          "name": "",
          "type": "address"
        }
      ],
      "stateMutability": "view",
      "type": "function"
    },
    {
      "inputs": [],
      "name": "getPanels",
      "outputs": [
        {
          "internalType": "string[]",
          "name": "",
          "type": "string[]"
        }
      ],
      "stateMutability": "view",
      "type": "function"
    },
    {
      "inputs": [],
      "name": "getPermissionManager",
      "outputs": [
        {
          "internalType": "address",
          "name": "",
          "type": "address"
        }
      ],
      "stateMutability": "view",
      "type": "function"
    },
    {
      "inputs": [],
      "name": "getProxyUpgrader",
      "outputs": [
        {
          "internalType": "address",
          "name": "",
          "type": "address"
        }
      ],
      "stateMutability": "view",
      "type": "function"
    },
    {
      "inputs": [
        {
          "internalType": "string",
          "name": "panelName_",
          "type": "string"
        }
      ],
      "name": "getRegDAOParameterStorage",
      "outputs": [
        {
          "internalType": "address",
          "name": "",
          "type": "address"
        }
      ],
      "stateMutability": "view",
      "type": "function"
    },
    {
      "inputs": [],
      "name": "getResource",
      "outputs": [
        {
          "internalType": "string",
          "name": "",
          "type": "string"
        }
      ],
      "stateMutability": "view",
      "type": "function"
    },
    {
      "inputs": [],
      "name": "getVotingFactory",
      "outputs": [
        {
          "internalType": "address",
          "name": "",
          "type": "address"
        }
      ],
      "stateMutability": "view",
      "type": "function"
    },
    {
      "inputs": [],
      "name": "getVotingRegistry",
      "outputs": [
        {
          "internalType": "address",
          "name": "",
          "type": "address"
        }
      ],
      "stateMutability": "view",
      "type": "function"
    },
    {
      "inputs": [
        {
          "internalType": "string",
          "name": "name_",
          "type": "string"
        }
      ],
      "name": "hasContract",
      "outputs": [
        {
          "internalType": "bool",
          "name": "",
          "type": "bool"
        }
      ],
      "stateMutability": "view",
      "type": "function"
    },
    {
      "inputs": [
        {
          "internalType": "string",
          "name": "name_",
          "type": "string"
        }
      ],
      "name": "injectDependencies",
      "outputs": [],
      "stateMutability": "nonpayable",
      "type": "function"
    },
    {
      "inputs": [],
      "name": "isAbleToAddPanel",
      "outputs": [
        {
          "internalType": "bool",
          "name": "",
          "type": "bool"
        }
      ],
      "stateMutability": "view",
      "type": "function"
    },
    {
      "inputs": [
        {
          "internalType": "string",
          "name": "name_",
          "type": "string"
        },
        {
          "internalType": "address",
          "name": "contractAddress_",
          "type": "address"
        }
      ],
      "name": "justAddProxyContract",
      "outputs": [],
      "stateMutability": "nonpayable",
      "type": "function"
    },
    {
      "inputs": [],
      "name": "permissionManager",
      "outputs": [
        {
          "internalType": "contract PermissionManager",
          "name": "",
          "type": "address"
        }
      ],
      "stateMutability": "view",
      "type": "function"
    },
    {
      "inputs": [
        {
          "internalType": "string",
          "name": "name_",
          "type": "string"
        }
      ],
      "name": "removeContract",
      "outputs": [],
      "stateMutability": "nonpayable",
      "type": "function"
    },
    {
      "inputs": [
        {
          "internalType": "string",
          "name": "panelName_",
          "type": "string"
        }
      ],
      "name": "removePanel",
      "outputs": [],
      "stateMutability": "nonpayable",
      "type": "function"
    },
    {
      "inputs": [
        {
          "internalType": "string",
          "name": "daoURI_",
          "type": "string"
        }
      ],
      "name": "setDAOMetadata",
      "outputs": [],
      "stateMutability": "nonpayable",
      "type": "function"
    },
    {
      "inputs": [
        {
          "internalType": "string",
          "name": "name_",
          "type": "string"
        },
        {
          "internalType": "address",
          "name": "newImplementation_",
          "type": "address"
        }
      ],
      "name": "upgradeContract",
      "outputs": [],
      "stateMutability": "nonpayable",
      "type": "function"
    },
    {
      "inputs": [
        {
          "internalType": "string",
          "name": "name_",
          "type": "string"
        },
        {
          "internalType": "address",
          "name": "newImplementation_",
          "type": "address"
        },
        {
          "internalType": "bytes",
          "name": "data_",
          "type": "bytes"
        }
      ],
      "name": "upgradeContractAndCall",
      "outputs": [],
      "stateMutability": "nonpayable",
      "type": "function"
    }
  ],
  "bytecode": "0x608060405234801561001057600080fd5b506146ed806100206000396000f3fe60806040523480156200001157600080fd5b5060043610620002195760003560e01c80638133b93a1162000125578063bdda65e911620000af578063d8ad4e1c116200007a578063d8ad4e1c1462000480578063db590a611462000497578063e0e084f814620004ae578063e4523aef14620004c557600080fd5b8063bdda65e9146200042c578063bf5b60161462000443578063cc7a2049146200045a578063d10611fc146200046e57600080fd5b80639a06df5011620000f05780639a06df5014620003ea578063ab22f0eb14620003f4578063afb2f2e8146200040b578063bb65dc83146200042257600080fd5b80638133b93a146200037f5780638c22360114620003a557806397623b5814620003bc578063977d1e1814620003d357600080fd5b806351dad82c11620001a75780637019d39111620001725780637019d39114620003465780637034731b14620003505780637444a137146200035a5780637d35a62f146200037557600080fd5b806351dad82c14620002ea57806365ab609014620003015780636b68389614620003185780636bbe8694146200032f57600080fd5b806334c9e96211620001e857806334c9e962146200028c5780633581777314620002a35780633e4beca114620002ba5780634c12ce5714620002d357600080fd5b806301d12909146200021e5780631271bd5314620002525780631adad8cf146200026b5780631af6c0641462000282575b600080fd5b620002356200022f366004620026c1565b620004de565b6040516001600160a01b0390911681526020015b60405180910390f35b620002696200026336600462002762565b62000520565b005b620002696200027c366004620027be565b62000591565b62000235620005ff565b620002696200029d366004620027be565b62000632565b62000235620002b4366004620026c1565b62000745565b620002c462000795565b60405162000249919062002857565b62000235620002e4366004620026c1565b6200082b565b62000269620002fb36600462002762565b62000863565b6200023562000312366004620026c1565b620008cf565b6200023562000329366004620026c1565b62000916565b62000269620003403660046200286c565b62000a19565b6200023562000ac0565b620002c462000af8565b6200036462000b92565b604051901515815260200162000249565b6200023562000c94565b6200039662000390366004620028f9565b62000ccb565b60405162000249919062002919565b62000364620003b6366004620026c1565b62001082565b62000269620003cd366004620027be565b620010c1565b62000269620003e4366004620027be565b6200112b565b62000235620011a4565b6200026962000405366004620029d1565b620011df565b620002696200041c366004620027be565b62001452565b620002c462001556565b620002356200043d366004620026c1565b62001567565b620002696200045436600462002762565b620015ae565b60065462000235906001600160a01b031681565b6002546001600160a01b031662000235565b620003646200049136600462002a9d565b6200161a565b62000235620004a8366004620026c1565b62001696565b62000269620004bf36600462002762565b620016ce565b620004cf6200173a565b60405162000249919062002af2565b60006200051a620002b46040518060400160405280601281526020017144414f5f4d454d4245525f53544f5241474560701b8152508462001748565b92915050565b620005496040518060400160405280600681526020016555504441544560d01b81525062001776565b6200058c83838080601f0160208091040260200160405190810160405280939291908181526020018383808284376000920191909152508592506200180f915050565b505050565b620005ba6040518060400160405280600681526020016543524541544560d01b81525062001776565b620005fb82828080601f0160208091040260200160405190810160405280939291908181526020018383808284376000920191909152506200182b92505050565b5050565b60006200062d60405180604001604052806009815260200168111053d7d59055531560ba1b81525062000745565b905090565b6200065b6040518060400160405280600681526020016543524541544560d01b81525062001776565b620006a082828080601f016020809104026020016040519081016040528093929190818152602001838380828437600092019190915250600793925050620018469050565b620007075760405162461bcd60e51b815260206004820152602c60248201527f44414f52656769737472793a2070616e656c20616c726561647920657869737460448201526b7320696e207468652044414f60a01b60648201526084015b60405180910390fd5b7e3b4a8fbf1e09fe14725a89179d30ef1821abca15dacbecd26cae2ffba25a0982826040516200073992919062002b81565b60405180910390a15050565b6000806003836040516200075a919062002b97565b908152604051908190036020019020546001600160a01b03169050806200051a5760405162461bcd60e51b8152600401620006fe9062002bb5565b60058054620007a49062002c02565b80601f0160208091040260200160405190810160405280929190818152602001828054620007d29062002c02565b8015620008235780601f10620007f75761010080835404028352916020019162000823565b820191906000526020600020905b8154815290600101906020018083116200080557829003601f168201915b505050505081565b60006200051a620002b46040518060400160405280600e81526020016d455850455254535f564f54494e4760901b8152508462001748565b6200088c6040518060400160405280600681526020016543524541544560d01b81525062001776565b6200058c83838080601f016020809104026020016040519081016040528093929190818152602001838380828437600092019190915250859250620018b1915050565b60006200051a620002b46040518060400160405280601a81526020017f44414f5f434f4e465f504152414d455445525f53544f524147450000000000008152508462001748565b6000806003836040516200092b919062002b97565b908152604051908190036020019020546001600160a01b0316905080620009665760405162461bcd60e51b8152600401620006fe9062002bb5565b6001600160a01b03811660009081526004602052604090205460ff16620009a15760405162461bcd60e51b8152600401620006fe9062002c3e565b600254604051630ad6396560e11b81526001600160a01b038381166004830152909116906315ac72ca90602401602060405180830381865afa158015620009ec573d6000803e3d6000fd5b505050506040513d601f19601f8201168201806040525081019062000a12919062002c85565b9392505050565b62000a426040518060400160405280600681526020016555504441544560d01b81525062001776565b62000ab985858080601f01602080910402602001604051908101604052809392919081815260200183838082843760009201919091525050604080516020601f880181900481028201810190925286815288935091508690869081908401838280828437600092019190915250620019d092505050565b5050505050565b60006200062d6040518060400160405280601381526020017244414f5f564f54494e475f524547495354525960681b81525062000745565b60606001805462000b099062002c02565b80601f016020809104026020016040519081016040528092919081815260200182805462000b379062002c02565b801562000b885780601f1062000b5c5761010080835404028352916020019162000b88565b820191906000526020600020905b81548152906001019060200180831162000b6a57829003601f168201915b5050505050905090565b60008062000bc86040518060400160405280601081526020016f2220a7902a37b5b2b7102437b63232b960811b815250620008cf565b604080518082018252601b81527f636f6e737469747574696f6e2e6d617850616e656c50657244414f000000000060208201529051632591ac6b60e21b815291925060009162000c7f916001600160a01b03851691639646b1ac9162000c319160040162002857565b600060405180830381865afa15801562000c4f573d6000803e3d6000fd5b505050506040513d6000823e601f3d908101601f1916820160405262000c79919081019062002cf0565b62001b05565b90508062000c8c60075490565b109250505090565b60006200062d6040518060400160405280601281526020017144414f5f564f54494e475f464143544f525960701b81525062000745565b6040805180820190915260608082526020820152600062000ced600762001b24565b905060008151600162000d01919062002ddf565b6001600160401b0381111562000d1b5762000d1b620025c7565b60405190808252806020026020018201604052801562000d5057816020015b606081526020019060019003908162000d3a5790505b50905060008251600162000d65919062002ddf565b6001600160401b0381111562000d7f5762000d7f620025c7565b60405190808252806020026020018201604052801562000da9578160200160208202803683370190505b5090506040518060400160405280601081526020016f2220a7902a37b5b2b7102437b63232b960811b8152508260008151811062000deb5762000deb62002df5565b60209081029190910181019190915260065460408051808201825260088152672b27aa22afa327a960c11b9381019390935251633ca8e36d60e11b81526001600160a01b0390911691637951c6da9162000e4e9189916005919060040162002e0b565b602060405180830381865afa15801562000e6c573d6000803e3d6000fd5b505050506040513d601f19601f8201168201806040525081019062000e92919062002ec3565b8160008151811062000ea85762000ea862002df5565b9115156020928302919091019091015260005b8351811015620010735762000eec84828151811062000ede5762000ede62002df5565b602002602001015162001c0b565b60008151811062000f015762000f0162002df5565b60200260200101518382600162000f19919062002ddf565b8151811062000f2c5762000f2c62002df5565b6020026020010181905250600660009054906101000a90046001600160a01b03166001600160a01b0316637951c6da8762000faa6040518060400160405280600e81526020016d455850455254535f564f54494e4760901b81525088868151811062000f9c5762000f9c62002df5565b602002602001015162001748565b6040518060400160405280600681526020016511561411549560d21b8152506040518463ffffffff1660e01b815260040162000fe99392919062002ee7565b602060405180830381865afa15801562001007573d6000803e3d6000fd5b505050506040513d601f19601f820116820180604052508101906200102d919062002ec3565b826200103b83600162002ddf565b815181106200104e576200104e62002df5565b91151560209283029190910190910152806200106a8162002f2b565b91505062000ebb565b50908352602083015250919050565b6000806001600160a01b0316600383604051620010a0919062002b97565b908152604051908190036020019020546001600160a01b0316141592915050565b620010ea6040518060400160405280600681526020016544454c45544560d01b81525062001776565b620005fb82828080601f01602080910402602001604051908101604052809392919081815260200183838082843760009201919091525062001c4792505050565b62001161604051806040016040528060138152602001724348414e47455f44414f5f4d4554414441544160681b81525062001776565b60016200117082848362002f99565b507f8e8c91427e9a9cdace71730e2a332d5bb800a30d3fbe20c2685cc32f28c1f9f982826040516200073992919062002b81565b60006200062d604051806040016040528060168152602001752220a7afa822a926a4a9a9a4a7a72fa6a0a720a3a2a960511b81525062000745565b600054610100900460ff1615808015620012005750600054600160ff909116105b806200121c5750303b1580156200121c575060005460ff166001145b620012815760405162461bcd60e51b815260206004820152602e60248201527f496e697469616c697a61626c653a20636f6e747261637420697320616c72656160448201526d191e481a5b9a5d1a585b1a5e995960921b6064820152608401620006fe565b6000805460ff191660011790558015620012a5576000805461ff0019166101001790555b620012b08962001d15565b620012f183838080601f01602080910402602001604051908101604052809392919081815260200183838082843760009201919091525062001d8392505050565b620012fb620011a4565b600680546001600160a01b0319166001600160a01b039290921691821790556040805180820190915260168152752220a7afa822a926a4a9a9a4a7a72fa6a0a720a3a2a960511b602082015260009162001356919062001dbb565b905060056200136786888362002f99565b50600654604051631537306d60e31b81526001600160a01b039091169063a9b9836890620013a29030908d9086908e908e9060040162003065565b600060405180830381600087803b158015620013bd57600080fd5b505af1158015620013d2573d6000803e3d6000fd5b50506040517f5daa87a0e9463431830481fd4b6e3403442dfb9a12b9c07597e9f61d50b633c8925060009150a150801562001447576000805461ff0019169055604051600181527f7f26b83ff96e1f2b6a682f133852f6798a09c465da95921460cefb38474024989060200160405180910390a15b505050505050505050565b6200147b6040518060400160405280600681526020016544454c45544560d01b81525062001776565b620014c082828080601f01602080910402602001604051908101604052809392919081815260200183838082843760009201919091525060079392505062001de79050565b620015235760405162461bcd60e51b815260206004820152602c60248201527f44414f52656769737472793a2070616e656c20646f6573206e6f74206578697360448201526b7420696e207468652044414f60a01b6064820152608401620006fe565b7f9e446cf6b11f8fe66bb176efaebf9567c993e6b580a0dbcb7112893ff0fee3a582826040516200073992919062002b81565b60606005805462000b099062002c02565b60006200051a620002b46040518060400160405280601981526020017f44414f5f5245475f504152414d455445525f53544f52414745000000000000008152508462001748565b620015d76040518060400160405280600681526020016543524541544560d01b81525062001776565b6200058c83838080601f01602080910402602001604051908101604052809392919081815260200183838082843760009201919091525085925062001fc9915050565b600654604051633ca8e36d60e11b81526000916001600160a01b031690637951c6da9062001652908690600590879060040162002e0b565b602060405180830381865afa15801562001670573d6000803e3d6000fd5b505050506040513d601f19601f8201168201806040525081019062000a12919062002ec3565b60006200051a620002b46040518060400160405280600e81526020016d47454e4552414c5f564f54494e4760901b8152508462001748565b620016f76040518060400160405280600681526020016543524541544560d01b81525062001776565b6200058c83838080601f01602080910402602001604051908101604052809392919081815260200183838082843760009201919091525085925062002066915050565b60606200062d600762001b24565b606082826040516020016200175f929190620030b4565b604051602081830303815290604052905092915050565b6200178233826200161a565b6200180c5760405162461bcd60e51b815260206004820152604d60248201527f5b5147444b2d3030363030305d2d5468652073656e646572206973206e6f742060448201527f616c6c6f77656420746f20706572666f726d2074686520616374696f6e2c206160648201526c31b1b2b9b9903232b734b2b21760991b608482015260a401620006fe565b50565b620005fb828260405180602001604052806000815250620019d0565b6200180c816040518060200160405280600081525062002185565b600062001854838362002240565b620018a857825460018101845560008481526020902001620018778382620030f4565b50825460405160018501906200188f90859062002b97565b908152604051908190036020019020555060016200051a565b5060006200051a565b6001600160a01b038116620018da5760405162461bcd60e51b8152600401620006fe90620031c0565b80600383604051620018ed919062002b97565b908152604080516020928190038301812080546001600160a01b0319166001600160a01b03958616179055848416600081815260049485905292909220805460ff19166001179055600254630ad6396560e11b8252928101919091527f10e75df11debcdd8425769babc76babb1b082c13be22ba626bfc8e6de393c4c592859285929116906315ac72ca90602401602060405180830381865afa15801562001999573d6000803e3d6000fd5b505050506040513d601f19601f82011682018060405250810190620019bf919062002c85565b60405162000739939291906200320c565b6000600384604051620019e4919062002b97565b908152604051908190036020019020546001600160a01b031690508062001a1f5760405162461bcd60e51b8152600401620006fe9062002bb5565b6001600160a01b03811660009081526004602052604090205460ff1662001a5a5760405162461bcd60e51b8152600401620006fe9062002c3e565b60025460405163a745e3df60e01b81526001600160a01b039091169063a745e3df9062001a909084908790879060040162003241565b600060405180830381600087803b15801562001aab57600080fd5b505af115801562001ac0573d6000803e3d6000fd5b505050507f0ade5313c9e16e7e06de9ab0edde476cc9a6fd51b973b8685c6c5026028a39d2848460405162001af792919062003278565b60405180910390a150505050565b600062001b148260026200226f565b81602001516200051a90620032a4565b606081600001805480602002602001604051908101604052809291908181526020016000905b8282101562001c0057838290600052602060002001805462001b6c9062002c02565b80601f016020809104026020016040519081016040528092919081815260200182805462001b9a9062002c02565b801562001beb5780601f1062001bbf5761010080835404028352916020019162001beb565b820191906000526020600020905b81548152906001019060200180831162001bcd57829003601f168201915b50505050508152602001906001019062001b4a565b505050509050919050565b60606200051a60405180602001604052808460405160200162001c2f9190620032c9565b604051602081830303815290604052815250620022c8565b600060038260405162001c5b919062002b97565b908152604051908190036020019020546001600160a01b031690508062001c965760405162461bcd60e51b8152600401620006fe9062002bb5565b6001600160a01b03811660009081526004602052604090819020805460ff191690555160039062001cc990849062002b97565b90815260405190819003602001812080546001600160a01b03191690557f0c4eafbc12ea2584eb34031bf52952af5909a5880ef4058cb05c627ae39ffda0906200073990849062002857565b600054610100900460ff1662001d3f5760405162461bcd60e51b8152600401620006fe90620032fc565b62001d4962002320565b6200180c604051806040016040528060168152602001752220a7afa822a926a4a9a9a4a7a72fa6a0a720a3a2a960511b8152508262002066565b600054610100900460ff1662001dad5760405162461bcd60e51b8152600401620006fe90620032fc565b6001620005fb8282620030f4565b60608262001dd46001600160a01b038416601462002398565b6040516020016200175f929190620030b4565b600080836001018360405162001dfe919062002b97565b90815260200160405180910390205490508060001462001fbe57600062001e2760018362003347565b855490915060009062001e3d9060019062003347565b905081811462001f5757600086600001828154811062001e615762001e6162002df5565b90600052602060002001805462001e789062002c02565b80601f016020809104026020016040519081016040528092919081815260200182805462001ea69062002c02565b801562001ef75780601f1062001ecb5761010080835404028352916020019162001ef7565b820191906000526020600020905b81548152906001019060200180831162001ed957829003601f168201915b505050505090508087600001848154811062001f175762001f1762002df5565b90600052602060002001908162001f2f9190620030f4565b5083876001018260405162001f45919062002b97565b90815260405190819003602001902055505b855486908062001f6b5762001f6b6200335d565b60019003818190600052602060002001600062001f89919062002551565b9055856001018560405162001f9f919062002b97565b908152602001604051809103902060009055600193505050506200051a565b60009150506200051a565b6001600160a01b03811662001ff25760405162461bcd60e51b8152600401620006fe90620031c0565b8060038360405162002005919062002b97565b90815260405190819003602001812080546001600160a01b03939093166001600160a01b0319909316929092179091557f8b4ef7d4e5bc8f098e6f637ac0acf4aee47b3f027efea6307264b06b4bc9d2989062000739908490849062003278565b6001600160a01b0381166200208f5760405162461bcd60e51b8152600401620006fe90620031c0565b6002546040805160208101825260008082529151919284926001600160a01b039091169190620020bf9062002590565b620020cd9392919062003241565b604051809103906000f080158015620020ea573d6000803e3d6000fd5b5090508060038460405162002100919062002b97565b908152604080516020928190038301812080546001600160a01b0319166001600160a01b03958616179055928416600090815260049092529020805460ff191660011790557f10e75df11debcdd8425769babc76babb1b082c13be22ba626bfc8e6de393c4c59062002178908590849086906200320c565b60405180910390a1505050565b600060038360405162002199919062002b97565b908152604051908190036020019020546001600160a01b0316905080620021d45760405162461bcd60e51b8152600401620006fe9062002bb5565b604051636913045160e01b815281906001600160a01b0382169063691304519062002206903090879060040162003373565b600060405180830381600087803b1580156200222157600080fd5b505af115801562002236573d6000803e3d6000fd5b5050505050505050565b6000826001018260405162002256919062002b97565b9081526040519081900360200190205415159392505050565b80600581111562002284576200228462003399565b826040015160058111156200229d576200229d62003399565b14620005fb578151604080840151905163381af4c560e11b8152620006fe92918491600401620033d2565b604080516001808252818301909252606091816020015b6060815260200190600190039081620022df5750508251815191925090829060009062002310576200231062002df5565b6020026020010181905250919050565b600054610100900460ff166200234a5760405162461bcd60e51b8152600401620006fe90620032fc565b60405162002358906200259e565b604051809103906000f08015801562002375573d6000803e3d6000fd5b50600280546001600160a01b0319166001600160a01b0392909216919091179055565b60606000620023a983600262003407565b620023b690600262002ddf565b6001600160401b03811115620023d057620023d0620025c7565b6040519080825280601f01601f191660200182016040528015620023fb576020820181803683370190505b509050600360fc1b8160008151811062002419576200241962002df5565b60200101906001600160f81b031916908160001a905350600f60fb1b816001815181106200244b576200244b62002df5565b60200101906001600160f81b031916908160001a90535060006200247184600262003407565b6200247e90600162002ddf565b90505b600181111562002500576f181899199a1a9b1b9c1cb0b131b232b360811b85600f1660108110620024b657620024b662002df5565b1a60f81b828281518110620024cf57620024cf62002df5565b60200101906001600160f81b031916908160001a90535060049490941c93620024f88162003421565b905062002481565b50831562000a125760405162461bcd60e51b815260206004820181905260248201527f537472696e67733a20686578206c656e67746820696e73756666696369656e746044820152606401620006fe565b5080546200255f9062002c02565b6000825580601f1062002570575050565b601f0160209004906000526020600020908101906200180c9190620025ac565b610e3a806200343c83390190565b610442806200427683390190565b5b80821115620025c35760008155600101620025ad565b5090565b634e487b7160e01b600052604160045260246000fd5b604051606081016001600160401b0381118282101715620026025762002602620025c7565b60405290565b604051601f8201601f191681016001600160401b0381118282101715620026335762002633620025c7565b604052919050565b60006001600160401b03821115620026575762002657620025c7565b50601f01601f191660200190565b600082601f8301126200267757600080fd5b81356200268e62002688826200263b565b62002608565b818152846020838601011115620026a457600080fd5b816020850160208301376000918101602001919091529392505050565b600060208284031215620026d457600080fd5b81356001600160401b03811115620026eb57600080fd5b620026f98482850162002665565b949350505050565b60008083601f8401126200271457600080fd5b5081356001600160401b038111156200272c57600080fd5b6020830191508360208285010111156200274557600080fd5b9250929050565b6001600160a01b03811681146200180c57600080fd5b6000806000604084860312156200277857600080fd5b83356001600160401b038111156200278f57600080fd5b6200279d8682870162002701565b9094509250506020840135620027b3816200274c565b809150509250925092565b60008060208385031215620027d257600080fd5b82356001600160401b03811115620027e957600080fd5b620027f78582860162002701565b90969095509350505050565b60005b838110156200282057818101518382015260200162002806565b50506000910152565b600081518084526200284381602086016020860162002803565b601f01601f19169290920160200192915050565b60208152600062000a12602083018462002829565b6000806000806000606086880312156200288557600080fd5b85356001600160401b03808211156200289d57600080fd5b620028ab89838a0162002701565b909750955060208801359150620028c2826200274c565b90935060408701359080821115620028d957600080fd5b50620028e88882890162002701565b969995985093965092949392505050565b6000602082840312156200290c57600080fd5b813562000a12816200274c565b6000602080835260608301845160408386015281815180845260808701915060808160051b8801019350848301925060005b818110156200297d57607f198886030183526200296a85855162002829565b945092850192918501916001016200294b565b5050505084820151848203601f19016040860152805180835290830191600091908401905b80831015620029c657835115158252928401926001929092019190840190620029a2565b509695505050505050565b60008060008060008060008060a0898b031215620029ee57600080fd5b8835620029fb816200274c565b9750602089013562002a0d816200274c565b965060408901356001600160401b038082111562002a2a57600080fd5b62002a388c838d0162002701565b909850965060608b013591508082111562002a5257600080fd5b62002a608c838d0162002701565b909650945060808b013591508082111562002a7a57600080fd5b5062002a898b828c0162002701565b999c989b5096995094979396929594505050565b6000806040838503121562002ab157600080fd5b823562002abe816200274c565b915060208301356001600160401b0381111562002ada57600080fd5b62002ae88582860162002665565b9150509250929050565b6000602080830181845280855180835260408601915060408160051b870101925083870160005b8281101562002b4b57603f1988860301845262002b3885835162002829565b9450928501929085019060010162002b19565b5092979650505050505050565b81835281816020850137506000828201602090810191909152601f909101601f19169091010190565b602081526000620026f960208301848662002b58565b6000825162002bab81846020870162002803565b9190910192915050565b6020808252602d908201527f436f6e74726163747352656769737472793a2074686973206d617070696e672060408201526c191bd95cdb89dd08195e1a5cdd609a1b606082015260800190565b600181811c9082168062002c1757607f821691505b60208210810362002c3857634e487b7160e01b600052602260045260246000fd5b50919050565b60208082526027908201527f436f6e74726163747352656769737472793a206e6f7420612070726f787920636040820152661bdb9d1c9858dd60ca1b606082015260800190565b60006020828403121562002c9857600080fd5b815162000a12816200274c565b600062002cb662002688846200263b565b905082815283838301111562002ccb57600080fd5b62000a1283602083018462002803565b80516006811062002ceb57600080fd5b919050565b60006020828403121562002d0357600080fd5b81516001600160401b038082111562002d1b57600080fd5b908301906060828603121562002d3057600080fd5b62002d3a620025dd565b82518281111562002d4a57600080fd5b8301601f8101871362002d5c57600080fd5b62002d6d8782516020840162002ca5565b82525060208301518281111562002d8357600080fd5b83019150601f8201861362002d9757600080fd5b62002da88683516020850162002ca5565b602082015262002dbb6040840162002cdb565b604082015295945050505050565b634e487b7160e01b600052601160045260246000fd5b808201808211156200051a576200051a62002dc9565b634e487b7160e01b600052603260045260246000fd5b60018060a01b0384168152600060206060818401526000855462002e2f8162002c02565b806060870152608060018084166000811462002e54576001811462002e6f5762002e9f565b60ff1985168984015283151560051b89018301955062002e9f565b8a6000528660002060005b8581101562002e975781548b820186015290830190880162002e7a565b8a0184019650505b5050505050838103604085015262002eb8818662002829565b979650505050505050565b60006020828403121562002ed657600080fd5b8151801515811462000a1257600080fd5b6001600160a01b038416815260606020820181905260009062002f0d9083018562002829565b828103604084015262002f21818562002829565b9695505050505050565b60006001820162002f405762002f4062002dc9565b5060010190565b601f8211156200058c57600081815260208120601f850160051c8101602086101562002f705750805b601f850160051c820191505b8181101562002f915782815560010162002f7c565b505050505050565b6001600160401b0383111562002fb35762002fb3620025c7565b62002fcb8362002fc4835462002c02565b8362002f47565b6000601f84116001811462003002576000851562002fe95750838201355b600019600387901b1c1916600186901b17835562000ab9565b600083815260209020601f19861690835b8281101562003035578685013582556020948501946001909201910162003013565b5086821015620030535760001960f88860031b161c19848701351681555b505060018560011b0183555050505050565b6001600160a01b03868116825285166020820152608060408201819052600090620030939083018662002829565b8281036060840152620030a881858762002b58565b98975050505050505050565b60008351620030c881846020880162002803565b601d60f91b9083019081528351620030e881600184016020880162002803565b01600101949350505050565b81516001600160401b03811115620031105762003110620025c7565b620031288162003121845462002c02565b8462002f47565b602080601f831160018114620031605760008415620031475750858301515b600019600386901b1c1916600185901b17855562002f91565b600085815260208120601f198616915b82811015620031915788860151825594840194600190910190840162003170565b5085821015620031b05787850151600019600388901b60f8161c191681555b5050505050600190811b01905550565b6020808252602c908201527f436f6e74726163747352656769737472793a207a65726f20616464726573732060408201526b34b9903337b93134b23232b760a11b606082015260800190565b60608152600062003221606083018662002829565b6001600160a01b0394851660208401529290931660409091015292915050565b6001600160a01b038481168252831660208201526060604082018190526000906200326f9083018462002829565b95945050505050565b6040815260006200328d604083018562002829565b905060018060a01b03831660208301529392505050565b8051602080830151919081101562002c385760001960209190910360031b1b16919050565b682220a7a3b937bab81d60b91b815260008251620032ef81600985016020870162002803565b9190910160090192915050565b6020808252602b908201527f496e697469616c697a61626c653a20636f6e7472616374206973206e6f74206960408201526a6e697469616c697a696e6760a81b606082015260800190565b818103818111156200051a576200051a62002dc9565b634e487b7160e01b600052603160045260246000fd5b6001600160a01b0383168152604060208201819052600090620026f99083018462002829565b634e487b7160e01b600052602160045260246000fd5b60068110620033ce57634e487b7160e01b600052602160045260246000fd5b9052565b606081526000620033e7606083018662002829565b9050620033f86020830185620033af565b620026f96040830184620033af565b80820281158282048414176200051a576200051a62002dc9565b60008162003433576200343362002dc9565b50600019019056fe608060405260405162000e3a38038062000e3a833981016040819052620000269162000424565b828162000036828260006200004d565b50620000449050826200007f565b50505062000557565b6200005883620000f1565b600082511180620000665750805b156200007a5762000078838362000133565b505b505050565b7f7e644d79422f17c01e4894b5f4f588d331ebfa28653d42ae832dc59e38c9798f620000c160008051602062000df3833981519152546001600160a01b031690565b604080516001600160a01b03928316815291841660208301520160405180910390a1620000ee8162000162565b50565b620000fc8162000200565b6040516001600160a01b038216907fbc7cd75a20ee27fd9adebab32041f755214dbc6bffa90cc0225b39da2e5c2d3b90600090a250565b60606200015b838360405180606001604052806027815260200162000e136027913962000297565b9392505050565b6001600160a01b038116620001cd5760405162461bcd60e51b815260206004820152602660248201527f455243313936373a206e65772061646d696e20697320746865207a65726f206160448201526564647265737360d01b60648201526084015b60405180910390fd5b8060008051602062000df38339815191525b80546001600160a01b0319166001600160a01b039290921691909117905550565b6001600160a01b0381163b6200026f5760405162461bcd60e51b815260206004820152602d60248201527f455243313936373a206e657720696d706c656d656e746174696f6e206973206e60448201526c1bdd08184818dbdb9d1c9858dd609a1b6064820152608401620001c4565b807f360894a13ba1a3210667c828492db98dca3e2076cc3735a920a3ca505d382bbc620001df565b6060600080856001600160a01b031685604051620002b6919062000504565b600060405180830381855af49150503d8060008114620002f3576040519150601f19603f3d011682016040523d82523d6000602084013e620002f8565b606091505b5090925090506200030c8683838762000316565b9695505050505050565b606083156200038a57825160000362000382576001600160a01b0385163b620003825760405162461bcd60e51b815260206004820152601d60248201527f416464726573733a2063616c6c20746f206e6f6e2d636f6e74726163740000006044820152606401620001c4565b508162000396565b6200039683836200039e565b949350505050565b815115620003af5781518083602001fd5b8060405162461bcd60e51b8152600401620001c4919062000522565b80516001600160a01b0381168114620003e357600080fd5b919050565b634e487b7160e01b600052604160045260246000fd5b60005b838110156200041b57818101518382015260200162000401565b50506000910152565b6000806000606084860312156200043a57600080fd5b6200044584620003cb565b92506200045560208501620003cb565b60408501519092506001600160401b03808211156200047357600080fd5b818601915086601f8301126200048857600080fd5b8151818111156200049d576200049d620003e8565b604051601f8201601f19908116603f01168101908382118183101715620004c857620004c8620003e8565b81604052828152896020848701011115620004e257600080fd5b620004f5836020830160208801620003fe565b80955050505050509250925092565b6000825162000518818460208701620003fe565b9190910192915050565b602081526000825180602084015262000543816040850160208701620003fe565b601f01601f19169190910160400192915050565b61088c80620005676000396000f3fe60806040523661001357610011610017565b005b6100115b61001f610169565b6001600160a01b0316330361015f5760606001600160e01b0319600035166364d3180d60e11b810161005a5761005361019c565b9150610157565b63587086bd60e11b6001600160e01b031982160161007a576100536101f3565b63070d7c6960e41b6001600160e01b031982160161009a57610053610239565b621eb96f60e61b6001600160e01b03198216016100b95761005361026a565b63a39f25e560e01b6001600160e01b03198216016100d9576100536102aa565b60405162461bcd60e51b815260206004820152604260248201527f5472616e73706172656e745570677261646561626c6550726f78793a2061646d60448201527f696e2063616e6e6f742066616c6c6261636b20746f2070726f78792074617267606482015261195d60f21b608482015260a4015b60405180910390fd5b815160208301f35b6101676102be565b565b60007fb53127684a568b3173ae13b9f8a6016e243e63b6e8ee1178d6a717850b5d61035b546001600160a01b0316919050565b60606101a66102ce565b60006101b53660048184610683565b8101906101c291906106c9565b90506101df816040518060200160405280600081525060006102d9565b505060408051602081019091526000815290565b60606000806102053660048184610683565b81019061021291906106fa565b91509150610222828260016102d9565b604051806020016040528060008152509250505090565b60606102436102ce565b60006102523660048184610683565b81019061025f91906106c9565b90506101df81610305565b60606102746102ce565b600061027e610169565b604080516001600160a01b03831660208201529192500160405160208183030381529060405291505090565b60606102b46102ce565b600061027e61035c565b6101676102c961035c565b61036b565b341561016757600080fd5b6102e28361038f565b6000825111806102ef5750805b15610300576102fe83836103cf565b505b505050565b7f7e644d79422f17c01e4894b5f4f588d331ebfa28653d42ae832dc59e38c9798f61032e610169565b604080516001600160a01b03928316815291841660208301520160405180910390a1610359816103fb565b50565b60006103666104a4565b905090565b3660008037600080366000845af43d6000803e80801561038a573d6000f35b3d6000fd5b610398816104cc565b6040516001600160a01b038216907fbc7cd75a20ee27fd9adebab32041f755214dbc6bffa90cc0225b39da2e5c2d3b90600090a250565b60606103f4838360405180606001604052806027815260200161083060279139610560565b9392505050565b6001600160a01b0381166104605760405162461bcd60e51b815260206004820152602660248201527f455243313936373a206e65772061646d696e20697320746865207a65726f206160448201526564647265737360d01b606482015260840161014e565b807fb53127684a568b3173ae13b9f8a6016e243e63b6e8ee1178d6a717850b5d61035b80546001600160a01b0319166001600160a01b039290921691909117905550565b60007f360894a13ba1a3210667c828492db98dca3e2076cc3735a920a3ca505d382bbc61018d565b6001600160a01b0381163b6105395760405162461bcd60e51b815260206004820152602d60248201527f455243313936373a206e657720696d706c656d656e746174696f6e206973206e60448201526c1bdd08184818dbdb9d1c9858dd609a1b606482015260840161014e565b807f360894a13ba1a3210667c828492db98dca3e2076cc3735a920a3ca505d382bbc610483565b6060600080856001600160a01b03168560405161057d91906107e0565b600060405180830381855af49150503d80600081146105b8576040519150601f19603f3d011682016040523d82523d6000602084013e6105bd565b606091505b50915091506105ce868383876105d8565b9695505050505050565b60608315610647578251600003610640576001600160a01b0385163b6106405760405162461bcd60e51b815260206004820152601d60248201527f416464726573733a2063616c6c20746f206e6f6e2d636f6e7472616374000000604482015260640161014e565b5081610651565b6106518383610659565b949350505050565b8151156106695781518083602001fd5b8060405162461bcd60e51b815260040161014e91906107fc565b6000808585111561069357600080fd5b838611156106a057600080fd5b5050820193919092039150565b80356001600160a01b03811681146106c457600080fd5b919050565b6000602082840312156106db57600080fd5b6103f4826106ad565b634e487b7160e01b600052604160045260246000fd5b6000806040838503121561070d57600080fd5b610716836106ad565b9150602083013567ffffffffffffffff8082111561073357600080fd5b818501915085601f83011261074757600080fd5b813581811115610759576107596106e4565b604051601f8201601f19908116603f01168101908382118183101715610781576107816106e4565b8160405282815288602084870101111561079a57600080fd5b8260208601602083013760006020848301015280955050505050509250929050565b60005b838110156107d75781810151838201526020016107bf565b50506000910152565b600082516107f28184602087016107bc565b9190910192915050565b602081526000825180602084015261081b8160408501602087016107bc565b601f01601f1916919091016040019291505056fe416464726573733a206c6f772d6c6576656c2064656c65676174652063616c6c206661696c6564a2646970667358221220152c1446ffc2688b7b5eb305e9dfa477d06ebf02e493aa13b2a4f5a7b9d0f4e364736f6c63430008130033b53127684a568b3173ae13b9f8a6016e243e63b6e8ee1178d6a717850b5d6103416464726573733a206c6f772d6c6576656c2064656c65676174652063616c6c206661696c656460a060405234801561001057600080fd5b5033608052608051610412610030600039600061023901526104126000f3fe608060405234801561001057600080fd5b50600436106100365760003560e01c806315ac72ca1461003b578063a745e3df1461006a575b600080fd5b61004e6100493660046102c9565b61007f565b6040516001600160a01b03909116815260200160405180910390f35b61007d6100783660046102ed565b610160565b005b6000610089610237565b600080836001600160a01b03166040516100ad90635c60da1b60e01b815260040190565b600060405180830381855afa9150503d80600081146100e8576040519150601f19603f3d011682016040523d82523d6000602084013e6100ed565b606091505b5091509150816101445760405162461bcd60e51b815260206004820152601a60248201527f50726f787955706772616465723a206e6f7420612070726f787900000000000060448201526064015b60405180910390fd5b80806020019051810190610158919061037f565b949350505050565b610168610237565b80156101d55760405163278f794360e11b81526001600160a01b03851690634f1ef2869061019e9086908690869060040161039c565b600060405180830381600087803b1580156101b857600080fd5b505af11580156101cc573d6000803e3d6000fd5b50505050610231565b604051631b2ce7f360e11b81526001600160a01b038481166004830152851690633659cfe690602401600060405180830381600087803b15801561021857600080fd5b505af115801561022c573d6000803e3d6000fd5b505050505b50505050565b7f00000000000000000000000000000000000000000000000000000000000000006001600160a01b031633146102af5760405162461bcd60e51b815260206004820152601b60248201527f50726f787955706772616465723a206e6f7420616e206f776e65720000000000604482015260640161013b565b565b6001600160a01b03811681146102c657600080fd5b50565b6000602082840312156102db57600080fd5b81356102e6816102b1565b9392505050565b6000806000806060858703121561030357600080fd5b843561030e816102b1565b9350602085013561031e816102b1565b9250604085013567ffffffffffffffff8082111561033b57600080fd5b818701915087601f83011261034f57600080fd5b81358181111561035e57600080fd5b88602082850101111561037057600080fd5b95989497505060200194505050565b60006020828403121561039157600080fd5b81516102e6816102b1565b6001600160a01b03841681526040602082018190528101829052818360608301376000818301606090810191909152601f909201601f191601019291505056fea2646970667358221220513e9c6610c755a0760b51cb517eb5a525cee52f841e115f981bba62955f6ebe64736f6c63430008130033a2646970667358221220b766c87c6ecd9f12aea4313946b01bebc0cd89c289c1b00bc2517012688018dd64736f6c63430008130033",
  "linkReferences": {},
  "deployedLinkReferences": {}
}