{
  "_format": "hh-sol-artifact-1",
  "contractName": "DAOMemberStorage",
  "sourceName": "@q-dev/gdk-contracts/DAO/DAOMemberStorage.sol",
  "abi": [
    {
      "anonymous": false,
      "inputs": [
        {
          "indexed": false,
          "internalType": "uint8",
          "name": "version",
          "type": "uint8"
        }
      ],
      "name": "Initialized",
      "type": "event"
    },
    {
      "anonymous": false,
      "inputs": [
        {
          "indexed": true,
          "internalType": "address",
          "name": "member",
          "type": "address"
        },
        {
          "indexed": false,
          "internalType": "string",
          "name": "group",
          "type": "string"
        }
      ],
      "name": "MemberAdded",
      "type": "event"
    },
    {
      "anonymous": false,
      "inputs": [
        {
          "indexed": true,
          "internalType": "address",
          "name": "member",
          "type": "address"
        },
        {
          "indexed": false,
          "internalType": "string",
          "name": "group",
          "type": "string"
        }
      ],
      "name": "MemberRemoved",
      "type": "event"
    },
    {
      "inputs": [],
      "name": "DAO_MEMBER_STORAGE_RESOURCE",
      "outputs": [
        {
          "internalType": "string",
          "name": "",
          "type": "string"
        }
      ],
      "stateMutability": "view",
      "type": "function"
    },
    {
      "inputs": [
        {
          "internalType": "string",
          "name": "targetPanel_",
          "type": "string"
        },
        {
          "internalType": "string",
          "name": "resource_",
          "type": "string"
        }
      ],
      "name": "__DAOMemberStorage_init",
      "outputs": [],
      "stateMutability": "nonpayable",
      "type": "function"
    },
    {
      "inputs": [
        {
          "internalType": "address",
          "name": "member_",
          "type": "address"
        }
      ],
      "name": "addMember",
      "outputs": [],
      "stateMutability": "nonpayable",
      "type": "function"
    },
    {
      "inputs": [
        {
          "internalType": "address[]",
          "name": "members_",
          "type": "address[]"
        }
      ],
      "name": "addMembers",
      "outputs": [],
      "stateMutability": "nonpayable",
      "type": "function"
    },
    {
      "inputs": [
        {
          "internalType": "address",
          "name": "account_",
          "type": "address"
        },
        {
          "internalType": "string",
          "name": "permission_",
          "type": "string"
        }
      ],
      "name": "checkPermission",
      "outputs": [
        {
          "internalType": "bool",
          "name": "",
          "type": "bool"
        }
      ],
      "stateMutability": "view",
      "type": "function"
    },
    {
      "inputs": [],
      "name": "getGroup",
      "outputs": [
        {
          "internalType": "string[]",
          "name": "",
          "type": "string[]"
        }
      ],
      "stateMutability": "view",
      "type": "function"
    },
    {
      "inputs": [],
      "name": "getInjector",
      "outputs": [
        {
          "internalType": "address",
          "name": "injector_",
          "type": "address"
        }
      ],
      "stateMutability": "view",
      "type": "function"
    },
    {
      "inputs": [],
      "name": "getMembers",
      "outputs": [
        {
          "internalType": "address[]",
          "name": "",
          "type": "address[]"
        }
      ],
      "stateMutability": "view",
      "type": "function"
    },
    {
      "inputs": [],
      "name": "getMembersCount",
      "outputs": [
        {
          "internalType": "uint256",
          "name": "",
          "type": "uint256"
        }
      ],
      "stateMutability": "view",
      "type": "function"
    },
    {
      "inputs": [],
      "name": "getResource",
      "outputs": [
        {
          "internalType": "string",
          "name": "",
          "type": "string"
        }
      ],
      "stateMutability": "view",
      "type": "function"
    },
    {
      "inputs": [
        {
          "internalType": "address",
          "name": "member_",
          "type": "address"
        }
      ],
      "name": "isMember",
      "outputs": [
        {
          "internalType": "bool",
          "name": "",
          "type": "bool"
        }
      ],
      "stateMutability": "view",
      "type": "function"
    },
    {
      "inputs": [],
      "name": "permissionManager",
      "outputs": [
        {
          "internalType": "contract PermissionManager",
          "name": "",
          "type": "address"
        }
      ],
      "stateMutability": "view",
      "type": "function"
    },
    {
      "inputs": [
        {
          "internalType": "address",
          "name": "member_",
          "type": "address"
        }
      ],
      "name": "removeMember",
      "outputs": [],
      "stateMutability": "nonpayable",
      "type": "function"
    },
    {
      "inputs": [
        {
          "internalType": "address[]",
          "name": "members_",
          "type": "address[]"
        }
      ],
      "name": "removeMembers",
      "outputs": [],
      "stateMutability": "nonpayable",
      "type": "function"
    },
    {
      "inputs": [
        {
          "internalType": "address",
          "name": "registryAddress_",
          "type": "address"
        },
        {
          "internalType": "bytes",
          "name": "",
          "type": "bytes"
        }
      ],
      "name": "setDependencies",
      "outputs": [],
      "stateMutability": "nonpayable",
      "type": "function"
    },
    {
      "inputs": [
        {
          "internalType": "address",
          "name": "injector_",
          "type": "address"
        }
      ],
      "name": "setInjector",
      "outputs": [],
      "stateMutability": "nonpayable",
      "type": "function"
    },
    {
      "inputs": [],
      "name": "targetPanel",
      "outputs": [
        {
          "internalType": "string",
          "name": "",
          "type": "string"
        }
      ],
      "stateMutability": "view",
      "type": "function"
    }
  ],
  "bytecode": "0x608060405234801561001057600080fd5b5061146e806100206000396000f3fe608060405234801561001057600080fd5b506004361061010b5760003560e01c806370d3e03f116100a2578063bb65dc8311610071578063bb65dc831461022a578063ca6d56dc14610232578063cc7a204914610245578063d8ad4e1c14610258578063e9ff965f1461026b57600080fd5b806370d3e03f146101cc5780638cb941cc146101df5780639eab5253146101f2578063a230c5241461020757600080fd5b806346ee84b0116100de57806346ee84b01461017e5780634b79c0741461019157806369130451146101a65780636f4d469b146101b957600080fd5b806309772f8f1461011057806309914cba1461012b5780630b1ca49a146101405780633e3b5b1914610155575b600080fd5b610118610273565b6040519081526020015b60405180910390f35b610133610284565b6040516101229190610db9565b61015361014e366004610de1565b610312565b005b600080516020611419833981519152545b6040516001600160a01b039091168152602001610122565b61015361018c366004610dfe565b610345565b6101996103bd565b6040516101229190610ec8565b6101536101b4366004610f24565b610452565b6101536101c7366004610dfe565b6104f8565b6101536101da366004610f79565b61056b565b6101536101ed366004610de1565b610699565b6101fa6106b7565b6040516101229190610fe5565b61021a610215366004610de1565b6106c3565b6040519015158152602001610122565b6101336106d6565b610153610240366004610de1565b610768565b600354610166906001600160a01b031681565b61021a610266366004611048565b610798565b610133610816565b600061027f6004610823565b905090565b600280546102919061110c565b80601f01602080910402602001604051908101604052809291908181526020018280546102bd9061110c565b801561030a5780601f106102df5761010080835404028352916020019161030a565b820191906000526020600020905b8154815290600101906020018083116102ed57829003601f168201915b505050505081565b6103396040518060400160405280600681526020016544454c45544560d01b81525061082d565b610342816108bf565b50565b61036c6040518060400160405280600681526020016544454c45544560d01b81525061082d565b60005b818110156103b8576103a683838381811061038c5761038c611146565b90506020020160208101906103a19190610de1565b6108bf565b806103b081611172565b91505061036f565b505050565b606061027f600280546103cf9061110c565b80601f01602080910402602001604051908101604052809291908181526020018280546103fb9061110c565b80156104485780601f1061041d57610100808354040283529160200191610448565b820191906000526020600020905b81548152906001019060200180831161042b57829003601f168201915b50505050506109a1565b61045a6109d9565b6000839050806001600160a01b0316639a06df506040518163ffffffff1660e01b8152600401602060405180830381865afa15801561049d573d6000803e3d6000fd5b505050506040513d601f19601f820116820180604052508101906104c1919061118b565b600380546001600160a01b0319166001600160a01b0392909216919091179055503360008051602061141983398151915255505050565b61051f6040518060400160405280600681526020016543524541544560d01b81525061082d565b60005b818110156103b85761055983838381811061053f5761053f611146565b90506020020160208101906105549190610de1565b610a5d565b8061056381611172565b915050610522565b600054610100900460ff161580801561058b5750600054600160ff909116105b806105a55750303b1580156105a5575060005460ff166001145b61060d5760405162461bcd60e51b815260206004820152602e60248201527f496e697469616c697a61626c653a20636f6e747261637420697320616c72656160448201526d191e481a5b9a5d1a585b1a5e995960921b60648201526084015b60405180910390fd5b6000805460ff191660011790558015610630576000805461ff0019166101001790555b600261063d8587836111f6565b50600161064b8385836111f6565b508015610692576000805461ff0019169055604051600181527f7f26b83ff96e1f2b6a682f133852f6798a09c465da95921460cefb38474024989060200160405180910390a15b5050505050565b6106a16109d9565b6103428160008051602061141983398151915255565b606061027f6004610b1e565b60006106d0600483610b2b565b92915050565b6060600180546106e59061110c565b80601f01602080910402602001604051908101604052809291908181526020018280546107119061110c565b801561075e5780601f106107335761010080835404028352916020019161075e565b820191906000526020600020905b81548152906001019060200180831161074157829003601f168201915b5050505050905090565b61078f6040518060400160405280600681526020016543524541544560d01b81525061082d565b61034281610a5d565b600354604051633ca8e36d60e11b81526000916001600160a01b031690637951c6da906107ce90869060019087906004016112b6565b602060405180830381865afa1580156107eb573d6000803e3d6000fd5b505050506040513d601f19601f8201168201806040525081019061080f9190611364565b9392505050565b600180546102919061110c565b60006106d0825490565b6108373382610798565b6103425760405162461bcd60e51b815260206004820152604d60248201527f5b5147444b2d3030343030305d2d5468652073656e646572206973206e6f742060448201527f616c6c6f77656420746f20706572666f726d2074686520616374696f6e2c206160648201526c31b1b2b9b9903232b734b2b21760991b608482015260a401610604565b6108ca600482610b4d565b5060006108dd600280546103cf9061110c565b6003546040516326a6aa3560e21b81529192506001600160a01b031690639a9aa8d4906109109085908590600401611386565b600060405180830381600087803b15801561092a57600080fd5b505af115801561093e573d6000803e3d6000fd5b50505050816001600160a01b03167f969f49cd69e4049f144b7dd012d53b6ef9064eca8bca1f4b30162ab52e04f5c18260008151811061098057610980611146565b60200260200101516040516109959190610db9565b60405180910390a25050565b60606106d06040518060200160405280846040516020016109c291906113b2565b604051602081830303815290604052815250610b62565b60006109f16000805160206114198339815191525490565b90506001600160a01b0381161580610a1157506001600160a01b03811633145b6103425760405162461bcd60e51b815260206004820152601a60248201527f446570656e64616e743a206e6f7420616e20696e6a6563746f720000000000006044820152606401610604565b610a68600482610bb6565b506000610a7b600280546103cf9061110c565b600354604051637e6efea560e11b81529192506001600160a01b03169063fcddfd4a90610aae9085908590600401611386565b600060405180830381600087803b158015610ac857600080fd5b505af1158015610adc573d6000803e3d6000fd5b50505050816001600160a01b03167f5660dfedd5f2d238aa153a2c488e927eb29ea0e780d70089f0e90c7409a2079c8260008151811061098057610980611146565b6060600061080f83610bcb565b6001600160a01b0381166000908152600183016020526040812054151561080f565b600061080f836001600160a01b038416610c27565b604080516001808252818301909252606091816020015b6060815260200190600190039081610b7957505082518151919250908290600090610ba657610ba6611146565b6020026020010181905250919050565b600061080f836001600160a01b038416610d1a565b606081600001805480602002602001604051908101604052809291908181526020018280548015610c1b57602002820191906000526020600020905b815481526020019060010190808311610c07575b50505050509050919050565b60008181526001830160205260408120548015610d10576000610c4b6001836113ef565b8554909150600090610c5f906001906113ef565b9050818114610cc4576000866000018281548110610c7f57610c7f611146565b9060005260206000200154905080876000018481548110610ca257610ca2611146565b6000918252602080832090910192909255918252600188019052604090208390555b8554869080610cd557610cd5611402565b6001900381819060005260206000200160009055905585600101600086815260200190815260200160002060009055600193505050506106d0565b60009150506106d0565b6000818152600183016020526040812054610d61575081546001818101845560008481526020808220909301849055845484825282860190935260409020919091556106d0565b5060006106d0565b60005b83811015610d84578181015183820152602001610d6c565b50506000910152565b60008151808452610da5816020860160208601610d69565b601f01601f19169290920160200192915050565b60208152600061080f6020830184610d8d565b6001600160a01b038116811461034257600080fd5b600060208284031215610df357600080fd5b813561080f81610dcc565b60008060208385031215610e1157600080fd5b823567ffffffffffffffff80821115610e2957600080fd5b818501915085601f830112610e3d57600080fd5b813581811115610e4c57600080fd5b8660208260051b8501011115610e6157600080fd5b60209290920196919550909350505050565b600081518084526020808501808196508360051b8101915082860160005b85811015610ebb578284038952610ea9848351610d8d565b98850198935090840190600101610e91565b5091979650505050505050565b60208152600061080f6020830184610e73565b60008083601f840112610eed57600080fd5b50813567ffffffffffffffff811115610f0557600080fd5b602083019150836020828501011115610f1d57600080fd5b9250929050565b600080600060408486031215610f3957600080fd5b8335610f4481610dcc565b9250602084013567ffffffffffffffff811115610f6057600080fd5b610f6c86828701610edb565b9497909650939450505050565b60008060008060408587031215610f8f57600080fd5b843567ffffffffffffffff80821115610fa757600080fd5b610fb388838901610edb565b90965094506020870135915080821115610fcc57600080fd5b50610fd987828801610edb565b95989497509550505050565b6020808252825182820181905260009190848201906040850190845b818110156110265783516001600160a01b031683529284019291840191600101611001565b50909695505050505050565b634e487b7160e01b600052604160045260246000fd5b6000806040838503121561105b57600080fd5b823561106681610dcc565b9150602083013567ffffffffffffffff8082111561108357600080fd5b818501915085601f83011261109757600080fd5b8135818111156110a9576110a9611032565b604051601f8201601f19908116603f011681019083821181831017156110d1576110d1611032565b816040528281528860208487010111156110ea57600080fd5b8260208601602083013760006020848301015280955050505050509250929050565b600181811c9082168061112057607f821691505b60208210810361114057634e487b7160e01b600052602260045260246000fd5b50919050565b634e487b7160e01b600052603260045260246000fd5b634e487b7160e01b600052601160045260246000fd5b6000600182016111845761118461115c565b5060010190565b60006020828403121561119d57600080fd5b815161080f81610dcc565b601f8211156103b857600081815260208120601f850160051c810160208610156111cf5750805b601f850160051c820191505b818110156111ee578281556001016111db565b505050505050565b67ffffffffffffffff83111561120e5761120e611032565b6112228361121c835461110c565b836111a8565b6000601f841160018114611256576000851561123e5750838201355b600019600387901b1c1916600186901b178355610692565b600083815260209020601f19861690835b828110156112875786850135825560209485019460019092019101611267565b50868210156112a45760001960f88860031b161c19848701351681555b505060018560011b0183555050505050565b60018060a01b038416815260006020606081840152600085546112d88161110c565b80606087015260806001808416600081146112fa576001811461131457611342565b60ff1985168984015283151560051b890183019550611342565b8a6000528660002060005b8581101561133a5781548b820186015290830190880161131f565b8a0184019650505b505050505083810360408501526113598186610d8d565b979650505050505050565b60006020828403121561137657600080fd5b8151801515811461080f57600080fd5b6001600160a01b03831681526040602082018190526000906113aa90830184610e73565b949350505050565b742220a7a2bc3832b93a2b37ba34b733a3b937bab81d60591b8152600082516113e2816015850160208701610d69565b9190910160150192915050565b818103818111156106d0576106d061115c565b634e487b7160e01b600052603160045260246000fdfe3d1f25f1ac447e55e7fec744471c4dab1c6a2b6ffb897825f9ea3d2e8c9be583a26469706673582212209c2473927a9aa8e7f81d829cb14a30ff5aa2c95636e739941215b62f384c9e5864736f6c63430008130033",
  "linkReferences": {},
  "deployedLinkReferences": {}
}