{
  "_format": "hh-sol-artifact-1",
  "contractName": "QRC20",
  "sourceName": "contracts/QRC20.sol",
  "abi": [
    {
      "anonymous": false,
      "inputs": [
        {
          "indexed": true,
          "internalType": "address",
          "name": "owner",
          "type": "address"
        },
        {
          "indexed": true,
          "internalType": "address",
          "name": "spender",
          "type": "address"
        },
        {
          "indexed": false,
          "internalType": "uint256",
          "name": "value",
          "type": "uint256"
        }
      ],
      "name": "Approval",
      "type": "event"
    },
    {
      "anonymous": false,
      "inputs": [
        {
          "indexed": false,
          "internalType": "string",
          "name": "contractURI",
          "type": "string"
        }
      ],
      "name": "ContractURIChanged",
      "type": "event"
    },
    {
      "anonymous": false,
      "inputs": [
        {
          "indexed": false,
          "internalType": "uint8",
          "name": "version",
          "type": "uint8"
        }
      ],
      "name": "Initialized",
      "type": "event"
    },
    {
      "anonymous": false,
      "inputs": [
        {
          "indexed": true,
          "internalType": "address",
          "name": "previousOwner",
          "type": "address"
        },
        {
          "indexed": true,
          "internalType": "address",
          "name": "newOwner",
          "type": "address"
        }
      ],
      "name": "OwnershipTransferred",
      "type": "event"
    },
    {
      "anonymous": false,
      "inputs": [
        {
          "indexed": true,
          "internalType": "address",
          "name": "from",
          "type": "address"
        },
        {
          "indexed": true,
          "internalType": "address",
          "name": "to",
          "type": "address"
        },
        {
          "indexed": false,
          "internalType": "uint256",
          "name": "value",
          "type": "uint256"
        }
      ],
      "name": "Transfer",
      "type": "event"
    },
    {
      "inputs": [],
      "name": "CHANGE_METADATA_PERMISSION",
      "outputs": [
        {
          "internalType": "string",
          "name": "",
          "type": "string"
        }
      ],
      "stateMutability": "view",
      "type": "function"
    },
    {
      "inputs": [],
      "name": "QRC20_RESOURCE",
      "outputs": [
        {
          "internalType": "string",
          "name": "",
          "type": "string"
        }
      ],
      "stateMutability": "view",
      "type": "function"
    },
    {
      "inputs": [
        {
          "internalType": "address",
          "name": "owner",
          "type": "address"
        },
        {
          "internalType": "address",
          "name": "spender",
          "type": "address"
        }
      ],
      "name": "allowance",
      "outputs": [
        {
          "internalType": "uint256",
          "name": "",
          "type": "uint256"
        }
      ],
      "stateMutability": "view",
      "type": "function"
    },
    {
      "inputs": [
        {
          "internalType": "address",
          "name": "spender",
          "type": "address"
        },
        {
          "internalType": "uint256",
          "name": "amount",
          "type": "uint256"
        }
      ],
      "name": "approve",
      "outputs": [
        {
          "internalType": "bool",
          "name": "",
          "type": "bool"
        }
      ],
      "stateMutability": "nonpayable",
      "type": "function"
    },
    {
      "inputs": [
        {
          "internalType": "address",
          "name": "account",
          "type": "address"
        }
      ],
      "name": "balanceOf",
      "outputs": [
        {
          "internalType": "uint256",
          "name": "",
          "type": "uint256"
        }
      ],
      "stateMutability": "view",
      "type": "function"
    },
    {
      "inputs": [
        {
          "internalType": "address",
          "name": "account",
          "type": "address"
        },
        {
          "internalType": "uint256",
          "name": "amount",
          "type": "uint256"
        }
      ],
      "name": "burnFrom",
      "outputs": [],
      "stateMutability": "nonpayable",
      "type": "function"
    },
    {
      "inputs": [],
      "name": "contractURI",
      "outputs": [
        {
          "internalType": "string",
          "name": "",
          "type": "string"
        }
      ],
      "stateMutability": "view",
      "type": "function"
    },
    {
      "inputs": [],
      "name": "decimals",
      "outputs": [
        {
          "internalType": "uint8",
          "name": "",
          "type": "uint8"
        }
      ],
      "stateMutability": "view",
      "type": "function"
    },
    {
      "inputs": [
        {
          "internalType": "address",
          "name": "spender",
          "type": "address"
        },
        {
          "internalType": "uint256",
          "name": "subtractedValue",
          "type": "uint256"
        }
      ],
      "name": "decreaseAllowance",
      "outputs": [
        {
          "internalType": "bool",
          "name": "",
          "type": "bool"
        }
      ],
      "stateMutability": "nonpayable",
      "type": "function"
    },
    {
      "inputs": [
        {
          "internalType": "address",
          "name": "spender",
          "type": "address"
        },
        {
          "internalType": "uint256",
          "name": "addedValue",
          "type": "uint256"
        }
      ],
      "name": "increaseAllowance",
      "outputs": [
        {
          "internalType": "bool",
          "name": "",
          "type": "bool"
        }
      ],
      "stateMutability": "nonpayable",
      "type": "function"
    },
    {
      "inputs": [
        {
          "internalType": "string",
          "name": "name_",
          "type": "string"
        },
        {
          "internalType": "string",
          "name": "symbol_",
          "type": "string"
        },
        {
          "internalType": "uint8",
          "name": "decimals_",
          "type": "uint8"
        },
        {
          "internalType": "string",
          "name": "contractURI_",
          "type": "string"
        },
        {
          "internalType": "string",
          "name": "resource_",
          "type": "string"
        },
        {
          "internalType": "uint256",
          "name": "totalSupplyCap_",
          "type": "uint256"
        }
      ],
      "name": "initialize",
      "outputs": [],
      "stateMutability": "nonpayable",
      "type": "function"
    },
    {
      "inputs": [
        {
          "internalType": "address",
          "name": "account",
          "type": "address"
        },
        {
          "internalType": "uint256",
          "name": "amount",
          "type": "uint256"
        }
      ],
      "name": "mintTo",
      "outputs": [],
      "stateMutability": "nonpayable",
      "type": "function"
    },
    {
      "inputs": [],
      "name": "name",
      "outputs": [
        {
          "internalType": "string",
          "name": "",
          "type": "string"
        }
      ],
      "stateMutability": "view",
      "type": "function"
    },
    {
      "inputs": [],
      "name": "owner",
      "outputs": [
        {
          "internalType": "address",
          "name": "",
          "type": "address"
        }
      ],
      "stateMutability": "view",
      "type": "function"
    },
    {
      "inputs": [],
      "name": "renounceOwnership",
      "outputs": [],
      "stateMutability": "nonpayable",
      "type": "function"
    },
    {
      "inputs": [
        {
          "internalType": "string",
          "name": "contractURI_",
          "type": "string"
        }
      ],
      "name": "setContractMetadata",
      "outputs": [],
      "stateMutability": "nonpayable",
      "type": "function"
    },
    {
      "inputs": [],
      "name": "symbol",
      "outputs": [
        {
          "internalType": "string",
          "name": "",
          "type": "string"
        }
      ],
      "stateMutability": "view",
      "type": "function"
    },
    {
      "inputs": [],
      "name": "totalSupply",
      "outputs": [
        {
          "internalType": "uint256",
          "name": "",
          "type": "uint256"
        }
      ],
      "stateMutability": "view",
      "type": "function"
    },
    {
      "inputs": [],
      "name": "totalSupplyCap",
      "outputs": [
        {
          "internalType": "uint256",
          "name": "",
          "type": "uint256"
        }
      ],
      "stateMutability": "view",
      "type": "function"
    },
    {
      "inputs": [
        {
          "internalType": "address",
          "name": "to",
          "type": "address"
        },
        {
          "internalType": "uint256",
          "name": "amount",
          "type": "uint256"
        }
      ],
      "name": "transfer",
      "outputs": [
        {
          "internalType": "bool",
          "name": "",
          "type": "bool"
        }
      ],
      "stateMutability": "nonpayable",
      "type": "function"
    },
    {
      "inputs": [
        {
          "internalType": "address",
          "name": "from",
          "type": "address"
        },
        {
          "internalType": "address",
          "name": "to",
          "type": "address"
        },
        {
          "internalType": "uint256",
          "name": "amount",
          "type": "uint256"
        }
      ],
      "name": "transferFrom",
      "outputs": [
        {
          "internalType": "bool",
          "name": "",
          "type": "bool"
        }
      ],
      "stateMutability": "nonpayable",
      "type": "function"
    },
    {
      "inputs": [
        {
          "internalType": "address",
          "name": "newOwner",
          "type": "address"
        }
      ],
      "name": "transferOwnership",
      "outputs": [],
      "stateMutability": "nonpayable",
      "type": "function"
    }
  ],
  "bytecode": "0x608060405234801561001057600080fd5b50611593806100206000396000f3fe608060405234801561001057600080fd5b50600436106101425760003560e01c80638da5cb5b116100b8578063af4b90831161007c578063af4b908314610292578063bb102aea146102c0578063dd62ed3e146102c9578063e8a3d485146102dc578063f2fde38b146102e4578063fce55037146102f757600080fd5b80638da5cb5b146102365780639166cb451461025157806395d89b4114610264578063a457c2d71461026c578063a9059cbb1461027f57600080fd5b8063313ce5671161010a578063313ce567146101b557806339509351146101ca578063449a52f8146101dd57806370a08231146101f2578063715018a61461021b57806379cc67901461022357600080fd5b806306fdde031461014757806307dff4d914610165578063095ea7b31461016d57806318160ddd1461019057806323b872dd146101a2575b600080fd5b61014f61030a565b60405161015c9190610ffe565b60405180910390f35b61014f61039c565b61018061017b366004611068565b61042a565b604051901515815260200161015c565b6035545b60405190815260200161015c565b6101806101b0366004611092565b610444565b609a5460405160ff909116815260200161015c565b6101806101d8366004611068565b610468565b6101f06101eb366004611068565b61048a565b005b6101946102003660046110ce565b6001600160a01b031660009081526033602052604090205490565b6101f061054d565b6101f0610231366004611068565b610561565b6066546040516001600160a01b03909116815260200161015c565b6101f061025f36600461114a565b610586565b61014f610775565b61018061027a366004611068565b610784565b61018061028d366004611068565b6107ff565b61014f6040518060400160405280600f81526020016e4348414e47455f4d4554414441544160881b81525081565b61019460995481565b6101946102d736600461122e565b61080d565b61014f610838565b6101f06102f23660046110ce565b610847565b6101f0610305366004611261565b6108c0565b606060368054610319906112a3565b80601f0160208091040260200160405190810160405280929190818152602001828054610345906112a3565b80156103925780601f1061036757610100808354040283529160200191610392565b820191906000526020600020905b81548152906001019060200180831161037557829003601f168201915b5050505050905090565b609880546103a9906112a3565b80601f01602080910402602001604051908101604052809291908181526020018280546103d5906112a3565b80156104225780601f106103f757610100808354040283529160200191610422565b820191906000526020600020905b81548152906001019060200180831161040557829003601f168201915b505050505081565b600033610438818585610913565b60019150505b92915050565b600033610452858285610a38565b61045d858585610ab2565b506001949350505050565b60003361043881858561047b838361080d565b61048591906112dd565b610913565b610492610c5d565b60995415806104b65750609954816104a960355490565b6104b391906112dd565b11155b61053f5760405162461bcd60e51b815260206004820152604960248201527f5b5147444b2d3031353030305d2d54686520746f74616c20737570706c79206360448201527f617061636974792065786365656465642c206d696e74696e67206973206e6f746064820152681030b63637bbb2b21760b91b608482015260a4015b60405180910390fd5b6105498282610cb7565b5050565b610555610c5d565b61055f6000610d78565b565b6001600160a01b038216331461057c5761057c823383610a38565b6105498282610dca565b600054610100900460ff16158080156105a65750600054600160ff909116105b806105c05750303b1580156105c0575060005460ff166001145b6106235760405162461bcd60e51b815260206004820152602e60248201527f496e697469616c697a61626c653a20636f6e747261637420697320616c72656160448201526d191e481a5b9a5d1a585b1a5e995960921b6064820152608401610536565b6000805460ff191660011790558015610646576000805461ff0019166101001790555b6106b98b8b8080601f01602080910402602001604051908101604052809392919081815260200183838082843760009201919091525050604080516020601f8f018190048102820181019092528d815292508d91508c9081908401838280828437600092019190915250610efb92505050565b6106f886868080601f016020809104026020016040519081016040528093929190818152602001838380828437600092019190915250610f2c92505050565b6098610705848683611362565b50609a805460ff191660ff89161790556099829055610722610f5f565b8015610768576000805461ff0019169055604051600181527f7f26b83ff96e1f2b6a682f133852f6798a09c465da95921460cefb38474024989060200160405180910390a15b5050505050505050505050565b606060378054610319906112a3565b60003381610792828661080d565b9050838110156107f25760405162461bcd60e51b815260206004820152602560248201527f45524332303a2064656372656173656420616c6c6f77616e63652062656c6f77604482015264207a65726f60d81b6064820152608401610536565b61045d8286868403610913565b600033610438818585610ab2565b6001600160a01b03918216600090815260346020908152604080832093909416825291909152205490565b606060658054610319906112a3565b61084f610c5d565b6001600160a01b0381166108b45760405162461bcd60e51b815260206004820152602660248201527f4f776e61626c653a206e6577206f776e657220697320746865207a65726f206160448201526564647265737360d01b6064820152608401610536565b6108bd81610d78565b50565b6108c8610c5d565b60656108d5828483611362565b507fd5ee5eaf65263bab5d569890714d123ad48a9e54409d35e71d374f3dd300bba08282604051610907929190611423565b60405180910390a15050565b6001600160a01b0383166109755760405162461bcd60e51b8152602060048201526024808201527f45524332303a20617070726f76652066726f6d20746865207a65726f206164646044820152637265737360e01b6064820152608401610536565b6001600160a01b0382166109d65760405162461bcd60e51b815260206004820152602260248201527f45524332303a20617070726f766520746f20746865207a65726f206164647265604482015261737360f01b6064820152608401610536565b6001600160a01b0383811660008181526034602090815260408083209487168084529482529182902085905590518481527f8c5be1e5ebec7d5bd14f71427d1e84f3dd0314c0f7b2291e5b200ac8c7c3b92591015b60405180910390a3505050565b6000610a44848461080d565b90506000198114610aac5781811015610a9f5760405162461bcd60e51b815260206004820152601d60248201527f45524332303a20696e73756666696369656e7420616c6c6f77616e63650000006044820152606401610536565b610aac8484848403610913565b50505050565b6001600160a01b038316610b165760405162461bcd60e51b815260206004820152602560248201527f45524332303a207472616e736665722066726f6d20746865207a65726f206164604482015264647265737360d81b6064820152608401610536565b6001600160a01b038216610b785760405162461bcd60e51b815260206004820152602360248201527f45524332303a207472616e7366657220746f20746865207a65726f206164647260448201526265737360e81b6064820152608401610536565b6001600160a01b03831660009081526033602052604090205481811015610bf05760405162461bcd60e51b815260206004820152602660248201527f45524332303a207472616e7366657220616d6f756e7420657863656564732062604482015265616c616e636560d01b6064820152608401610536565b6001600160a01b0380851660008181526033602052604080822086860390559286168082529083902080548601905591517fddf252ad1be2c89b69c2b068fc378daa952ba7f163c4a11628f55a4df523b3ef90610c509086815260200190565b60405180910390a3610aac565b6066546001600160a01b0316331461055f5760405162461bcd60e51b815260206004820181905260248201527f4f776e61626c653a2063616c6c6572206973206e6f7420746865206f776e65726044820152606401610536565b6001600160a01b038216610d0d5760405162461bcd60e51b815260206004820152601f60248201527f45524332303a206d696e7420746f20746865207a65726f2061646472657373006044820152606401610536565b8060356000828254610d1f91906112dd565b90915550506001600160a01b0382166000818152603360209081526040808320805486019055518481527fddf252ad1be2c89b69c2b068fc378daa952ba7f163c4a11628f55a4df523b3ef910160405180910390a35050565b606680546001600160a01b038381166001600160a01b0319831681179093556040519116919082907f8be0079c531659141344cd1fd0a4f28419497f9722a3daafe3b4186f6b6457e090600090a35050565b6001600160a01b038216610e2a5760405162461bcd60e51b815260206004820152602160248201527f45524332303a206275726e2066726f6d20746865207a65726f206164647265736044820152607360f81b6064820152608401610536565b6001600160a01b03821660009081526033602052604090205481811015610e9e5760405162461bcd60e51b815260206004820152602260248201527f45524332303a206275726e20616d6f756e7420657863656564732062616c616e604482015261636560f01b6064820152608401610536565b6001600160a01b03831660008181526033602090815260408083208686039055603580548790039055518581529192917fddf252ad1be2c89b69c2b068fc378daa952ba7f163c4a11628f55a4df523b3ef9101610a2b565b505050565b600054610100900460ff16610f225760405162461bcd60e51b815260040161053690611452565b6105498282610f8e565b600054610100900460ff16610f535760405162461bcd60e51b815260040161053690611452565b6065610549828261149d565b600054610100900460ff16610f865760405162461bcd60e51b815260040161053690611452565b61055f610fce565b600054610100900460ff16610fb55760405162461bcd60e51b815260040161053690611452565b6036610fc1838261149d565b506037610ef6828261149d565b600054610100900460ff16610ff55760405162461bcd60e51b815260040161053690611452565b61055f33610d78565b600060208083528351808285015260005b8181101561102b5785810183015185820160400152820161100f565b506000604082860101526040601f19601f8301168501019250505092915050565b80356001600160a01b038116811461106357600080fd5b919050565b6000806040838503121561107b57600080fd5b6110848361104c565b946020939093013593505050565b6000806000606084860312156110a757600080fd5b6110b08461104c565b92506110be6020850161104c565b9150604084013590509250925092565b6000602082840312156110e057600080fd5b6110e98261104c565b9392505050565b60008083601f84011261110257600080fd5b50813567ffffffffffffffff81111561111a57600080fd5b60208301915083602082850101111561113257600080fd5b9250929050565b803560ff8116811461106357600080fd5b60008060008060008060008060008060c08b8d03121561116957600080fd5b8a3567ffffffffffffffff8082111561118157600080fd5b61118d8e838f016110f0565b909c509a5060208d01359150808211156111a657600080fd5b6111b28e838f016110f0565b909a5098508891506111c660408e01611139565b975060608d01359150808211156111dc57600080fd5b6111e88e838f016110f0565b909750955060808d013591508082111561120157600080fd5b5061120e8d828e016110f0565b9150809450508092505060a08b013590509295989b9194979a5092959850565b6000806040838503121561124157600080fd5b61124a8361104c565b91506112586020840161104c565b90509250929050565b6000806020838503121561127457600080fd5b823567ffffffffffffffff81111561128b57600080fd5b611297858286016110f0565b90969095509350505050565b600181811c908216806112b757607f821691505b6020821081036112d757634e487b7160e01b600052602260045260246000fd5b50919050565b8082018082111561043e57634e487b7160e01b600052601160045260246000fd5b634e487b7160e01b600052604160045260246000fd5b601f821115610ef657600081815260208120601f850160051c8101602086101561133b5750805b601f850160051c820191505b8181101561135a57828155600101611347565b505050505050565b67ffffffffffffffff83111561137a5761137a6112fe565b61138e8361138883546112a3565b83611314565b6000601f8411600181146113c257600085156113aa5750838201355b600019600387901b1c1916600186901b17835561141c565b600083815260209020601f19861690835b828110156113f357868501358255602094850194600190920191016113d3565b50868210156114105760001960f88860031b161c19848701351681555b505060018560011b0183555b5050505050565b60208152816020820152818360408301376000818301604090810191909152601f909201601f19160101919050565b6020808252602b908201527f496e697469616c697a61626c653a20636f6e7472616374206973206e6f74206960408201526a6e697469616c697a696e6760a81b606082015260800190565b815167ffffffffffffffff8111156114b7576114b76112fe565b6114cb816114c584546112a3565b84611314565b602080601f83116001811461150057600084156114e85750858301515b600019600386901b1c1916600185901b17855561135a565b600085815260208120601f198616915b8281101561152f57888601518255948401946001909101908401611510565b508582101561154d5787850151600019600388901b60f8161c191681555b5050505050600190811b0190555056fea264697066735822122072be7c879d9c19b5a37fcb74242c83a073e4d2b94f26ae874622624b1c592e7664736f6c63430008130033",
  "linkReferences": {},
  "deployedLinkReferences": {}
}