{
  "_format": "hh-sol-artifact-1",
  "contractName": "DAOParameterStorage",
  "sourceName": "@q-dev/gdk-contracts/DAO/DAOParameterStorage.sol",
  "abi": [
    {
      "inputs": [
        {
          "internalType": "string",
          "name": "parameterName",
          "type": "string"
        }
      ],
      "name": "DAOParameterStorage__ParameterNotFound",
      "type": "error"
    },
    {
      "anonymous": false,
      "inputs": [
        {
          "indexed": false,
          "internalType": "uint8",
          "name": "version",
          "type": "uint8"
        }
      ],
      "name": "Initialized",
      "type": "event"
    },
    {
      "inputs": [],
      "name": "DAO_PARAMETER_STORAGE_RESOURCE",
      "outputs": [
        {
          "internalType": "string",
          "name": "",
          "type": "string"
        }
      ],
      "stateMutability": "view",
      "type": "function"
    },
    {
      "inputs": [
        {
          "internalType": "string",
          "name": "resource_",
          "type": "string"
        }
      ],
      "name": "__DAOParameterStorage_init",
      "outputs": [],
      "stateMutability": "nonpayable",
      "type": "function"
    },
    {
      "inputs": [
        {
          "internalType": "address",
          "name": "member_",
          "type": "address"
        },
        {
          "internalType": "string",
          "name": "permission_",
          "type": "string"
        }
      ],
      "name": "checkPermission",
      "outputs": [
        {
          "internalType": "bool",
          "name": "",
          "type": "bool"
        }
      ],
      "stateMutability": "view",
      "type": "function"
    },
    {
      "inputs": [
        {
          "internalType": "string",
          "name": "parameterName_",
          "type": "string"
        }
      ],
      "name": "getDAOParameter",
      "outputs": [
        {
          "components": [
            {
              "internalType": "string",
              "name": "name",
              "type": "string"
            },
            {
              "internalType": "bytes",
              "name": "value",
              "type": "bytes"
            },
            {
              "internalType": "enum ParameterType",
              "name": "solidityType",
              "type": "uint8"
            }
          ],
          "internalType": "struct Parameter",
          "name": "",
          "type": "tuple"
        }
      ],
      "stateMutability": "view",
      "type": "function"
    },
    {
      "inputs": [],
      "name": "getDAOParameters",
      "outputs": [
        {
          "components": [
            {
              "internalType": "string",
              "name": "name",
              "type": "string"
            },
            {
              "internalType": "bytes",
              "name": "value",
              "type": "bytes"
            },
            {
              "internalType": "enum ParameterType",
              "name": "solidityType",
              "type": "uint8"
            }
          ],
          "internalType": "struct Parameter[]",
          "name": "",
          "type": "tuple[]"
        }
      ],
      "stateMutability": "view",
      "type": "function"
    },
    {
      "inputs": [],
      "name": "getInjector",
      "outputs": [
        {
          "internalType": "address",
          "name": "injector_",
          "type": "address"
        }
      ],
      "stateMutability": "view",
      "type": "function"
    },
    {
      "inputs": [],
      "name": "getResource",
      "outputs": [
        {
          "internalType": "string",
          "name": "",
          "type": "string"
        }
      ],
      "stateMutability": "view",
      "type": "function"
    },
    {
      "inputs": [],
      "name": "permissionManager",
      "outputs": [
        {
          "internalType": "contract PermissionManager",
          "name": "",
          "type": "address"
        }
      ],
      "stateMutability": "view",
      "type": "function"
    },
    {
      "inputs": [
        {
          "internalType": "string",
          "name": "parameterName_",
          "type": "string"
        }
      ],
      "name": "removeDAOParameter",
      "outputs": [],
      "stateMutability": "nonpayable",
      "type": "function"
    },
    {
      "inputs": [
        {
          "internalType": "string[]",
          "name": "parameterNames_",
          "type": "string[]"
        }
      ],
      "name": "removeDAOParameters",
      "outputs": [],
      "stateMutability": "nonpayable",
      "type": "function"
    },
    {
      "inputs": [
        {
          "components": [
            {
              "internalType": "string",
              "name": "name",
              "type": "string"
            },
            {
              "internalType": "bytes",
              "name": "value",
              "type": "bytes"
            },
            {
              "internalType": "enum ParameterType",
              "name": "solidityType",
              "type": "uint8"
            }
          ],
          "internalType": "struct Parameter",
          "name": "parameter_",
          "type": "tuple"
        }
      ],
      "name": "setDAOParameter",
      "outputs": [],
      "stateMutability": "nonpayable",
      "type": "function"
    },
    {
      "inputs": [
        {
          "components": [
            {
              "internalType": "string",
              "name": "name",
              "type": "string"
            },
            {
              "internalType": "bytes",
              "name": "value",
              "type": "bytes"
            },
            {
              "internalType": "enum ParameterType",
              "name": "solidityType",
              "type": "uint8"
            }
          ],
          "internalType": "struct Parameter[]",
          "name": "parameters_",
          "type": "tuple[]"
        }
      ],
      "name": "setDAOParameters",
      "outputs": [],
      "stateMutability": "nonpayable",
      "type": "function"
    },
    {
      "inputs": [
        {
          "internalType": "address",
          "name": "registryAddress_",
          "type": "address"
        },
        {
          "internalType": "bytes",
          "name": "",
          "type": "bytes"
        }
      ],
      "name": "setDependencies",
      "outputs": [],
      "stateMutability": "nonpayable",
      "type": "function"
    },
    {
      "inputs": [
        {
          "internalType": "address",
          "name": "injector_",
          "type": "address"
        }
      ],
      "name": "setInjector",
      "outputs": [],
      "stateMutability": "nonpayable",
      "type": "function"
    },
    {
      "inputs": [],
      "name": "votingType",
      "outputs": [
        {
          "internalType": "enum VotingType",
          "name": "",
          "type": "uint8"
        }
      ],
      "stateMutability": "view",
      "type": "function"
    }
  ],
  "bytecode": "0x608060405234801561001057600080fd5b50611ced806100206000396000f3fe608060405234801561001057600080fd5b50600436106100f55760003560e01c8063a9aa6a9b11610097578063cc7a204911610066578063cc7a2049146101f3578063d8ad4e1c1461020b578063d90925851461022e578063fcae0a441461024357600080fd5b8063a9aa6a9b146101a9578063ae71109c146101c3578063bb65dc83146101d8578063cabc429d146101e057600080fd5b806369130451116100d357806369130451146101505780637760fe67146101635780638cb941cc146101765780639646b1ac1461018957600080fd5b806314529092146100fa5780632b1c312e1461010f5780633e3b5b1914610122575b600080fd5b61010d610108366004611391565b610256565b005b61010d61011d366004611391565b6102c0565b600080516020611c98833981519152545b6040516001600160a01b0390911681526020015b60405180910390f35b61010d61015e3660046113e8565b6103de565b61010d61017136600461143d565b61048a565b61010d61018436600461147f565b6104bd565b61019c610197366004611391565b6104db565b6040516101479190611559565b6002546101b69060ff1681565b604051610147919061156c565b6101cb610586565b6040516101479190611586565b6101cb610614565b61010d6101ee3660046115de565b6106a6565b6002546101339061010090046001600160a01b031681565b61021e61021936600461162a565b610716565b6040519015158152602001610147565b610236610792565b60405161014791906116ee565b61010d6102513660046115de565b6107a3565b61027d6040518060400160405280600681526020016544454c45544560d01b815250610848565b6102bc82828080601f0160208091040260200160405190810160405280939291908181526020018383808284376000920191909152506108da92505050565b5050565b600054610100900460ff16158080156102e05750600054600160ff909116105b806102fa5750303b1580156102fa575060005460ff166001145b6103625760405162461bcd60e51b815260206004820152602e60248201527f496e697469616c697a61626c653a20636f6e747261637420697320616c72656160448201526d191e481a5b9a5d1a585b1a5e995960921b60648201526084015b60405180910390fd5b6000805460ff191660011790558015610385576000805461ff0019166101001790555b60016103928385836117ed565b5080156103d9576000805461ff0019169055604051600181527f7f26b83ff96e1f2b6a682f133852f6798a09c465da95921460cefb38474024989060200160405180910390a15b505050565b6103e66108ee565b6000839050806001600160a01b0316639a06df506040518163ffffffff1660e01b8152600401602060405180830381865afa158015610429573d6000803e3d6000fd5b505050506040513d601f19601f8201168201806040525081019061044d91906118a8565b600260016101000a8154816001600160a01b0302191690836001600160a01b03160217905550506103d933600080516020611c9883398151915255565b6104b16040518060400160405280600681526020016555504441544560d01b815250610848565b6104ba81610972565b50565b6104c56108ee565b6104ba81600080516020611c9883398151915255565b6104fb604080516060808201835280825260208201529081016000905290565b61053a83838080601f0160208091040260200160405190810160405280939291908181526020018383808284376000920191909152506109d892505050565b61057d83838080601f016020809104026020016040519081016040528093929190818152602001838380828437600092019190915250600393925050610a029050565b90505b92915050565b6001805461059390611750565b80601f01602080910402602001604051908101604052809291908181526020018280546105bf90611750565b801561060c5780601f106105e15761010080835404028352916020019161060c565b820191906000526020600020905b8154815290600101906020018083116105ef57829003601f168201915b505050505081565b60606001805461062390611750565b80601f016020809104026020016040519081016040528092919081815260200182805461064f90611750565b801561069c5780601f106106715761010080835404028352916020019161069c565b820191906000526020600020905b81548152906001019060200180831161067f57829003601f168201915b5050505050905090565b6106cd6040518060400160405280600681526020016555504441544560d01b815250610848565b60005b818110156103d9576107048383838181106106ed576106ed6118c5565b90506020028101906106ff91906118db565b610972565b8061070e81611911565b9150506106d0565b600254604051633ca8e36d60e11b815260009161010090046001600160a01b031690637951c6da90610751908690600190879060040161192a565b602060405180830381865afa15801561076e573d6000803e3d6000fd5b505050506040513d601f19601f8201168201806040525081019061057d91906119d8565b606061079e6003610bd9565b905090565b6107ca6040518060400160405280600681526020016544454c45544560d01b815250610848565b60005b818110156103d9576108368383838181106107ea576107ea6118c5565b90506020028101906107fc91906119fa565b8080601f0160208091040260200160405190810160405280939291908181526020018383808284376000920191909152506108da92505050565b8061084081611911565b9150506107cd565b6108523382610716565b6104ba5760405162461bcd60e51b815260206004820152604d60248201527f5b5147444b2d3030353030305d2d5468652073656e646572206973206e6f742060448201527f616c6c6f77656420746f20706572666f726d2074686520616374696f6e2c206160648201526c31b1b2b9b9903232b734b2b21760991b608482015260a401610359565b6108e3816109d8565b6102bc600382610d93565b6000610906600080516020611c988339815191525490565b90506001600160a01b038116158061092657506001600160a01b03811633145b6104ba5760405162461bcd60e51b815260206004820152601a60248201527f446570656e64616e743a206e6f7420616e20696e6a6563746f720000000000006044820152606401610359565b6109bd61097f82806119fa565b8080601f0160208091040260200160405190810160405280939291908181526020018383808284376000920191909152506003939250506110989050565b156109cd576102bc6003826110c5565b6102bc60038261118a565b6109e3600382611098565b6104ba57806040516375b29ba760e01b81526004016103599190611586565b610a22604080516060808201835280825260208201529081016000905290565b8260000160018460010184604051610a3a9190611a41565b908152602001604051809103902054610a539190611a53565b81548110610a6357610a636118c5565b9060005260206000209060030201604051806060016040529081600082018054610a8c90611750565b80601f0160208091040260200160405190810160405280929190818152602001828054610ab890611750565b8015610b055780601f10610ada57610100808354040283529160200191610b05565b820191906000526020600020905b815481529060010190602001808311610ae857829003601f168201915b50505050508152602001600182018054610b1e90611750565b80601f0160208091040260200160405190810160405280929190818152602001828054610b4a90611750565b8015610b975780601f10610b6c57610100808354040283529160200191610b97565b820191906000526020600020905b815481529060010190602001808311610b7a57829003601f168201915b5050509183525050600282015460209091019060ff166005811115610bbe57610bbe6114ec565b6005811115610bcf57610bcf6114ec565b9052509392505050565b606081600001805480602002602001604051908101604052809291908181526020016000905b82821015610d885783829060005260206000209060030201604051806060016040529081600082018054610c3290611750565b80601f0160208091040260200160405190810160405280929190818152602001828054610c5e90611750565b8015610cab5780601f10610c8057610100808354040283529160200191610cab565b820191906000526020600020905b815481529060010190602001808311610c8e57829003601f168201915b50505050508152602001600182018054610cc490611750565b80601f0160208091040260200160405190810160405280929190818152602001828054610cf090611750565b8015610d3d5780601f10610d1257610100808354040283529160200191610d3d565b820191906000526020600020905b815481529060010190602001808311610d2057829003601f168201915b5050509183525050600282015460209091019060ff166005811115610d6457610d646114ec565b6005811115610d7557610d756114ec565b8152505081526020019060010190610bff565b505050509050919050565b6000808360010183604051610da89190611a41565b90815260200160405180910390205490508060001461108e576000610dce600183611a53565b8554909150600090610de290600190611a53565b9050818114611010576000866000018281548110610e0257610e026118c5565b9060005260206000209060030201604051806060016040529081600082018054610e2b90611750565b80601f0160208091040260200160405190810160405280929190818152602001828054610e5790611750565b8015610ea45780601f10610e7957610100808354040283529160200191610ea4565b820191906000526020600020905b815481529060010190602001808311610e8757829003601f168201915b50505050508152602001600182018054610ebd90611750565b80601f0160208091040260200160405190810160405280929190818152602001828054610ee990611750565b8015610f365780601f10610f0b57610100808354040283529160200191610f36565b820191906000526020600020905b815481529060010190602001808311610f1957829003601f168201915b5050509183525050600282015460209091019060ff166005811115610f5d57610f5d6114ec565b6005811115610f6e57610f6e6114ec565b81525050905080876000018481548110610f8a57610f8a6118c5565b600091825260209091208251600390920201908190610fa99082611a66565b5060208201516001820190610fbe9082611a66565b50604082015160028201805460ff19166001836005811115610fe257610fe26114ec565b021790555050815160405186925060018a0191610ffe91611a41565b90815260405190819003602001902055505b855486908061102157611021611b20565b6000828152602081206000199092019160038302019061104182826112fa565b61104f6001830160006112fa565b50600201805460ff1916905590556040516001870190611070908790611a41565b90815260200160405180910390206000905560019350505050610580565b6000915050610580565b600082600101826040516110ac9190611a41565b9081526040519081900360200190205415159392505050565b600061110f836110d584806119fa565b8080601f01602080910402602001604051908101604052809392919081815260200183838082843760009201919091525061109892505050565b15611182578183600180820161112584806119fa565b604051611133929190611b36565b90815260200160405180910390205461114c9190611a53565b8154811061115c5761115c6118c5565b906000526020600020906003020181816111769190611b83565b90505060019050610580565b506000610580565b600061119a836110d584806119fa565b6111825760408051606081019091528390806111b685806119fa565b8080601f0160208091040260200160405190810160405280939291908181526020018383808284376000920191909152505050908252506020908101906111ff908601866119fa565b8080601f0160208091040260200160405190810160405280939291908181526020018383808284376000920191909152505050908252506020016112496060860160408701611c7a565b600581111561125a5761125a6114ec565b905281546001810183556000928352602090922081519192600302019081906112839082611a66565b50602082015160018201906112989082611a66565b50604082015160028201805460ff191660018360058111156112bc576112bc6114ec565b02179055505083549050600184016112d484806119fa565b6040516112e2929190611b36565b90815260405190819003602001902055506001610580565b50805461130690611750565b6000825580601f10611316575050565b601f0160209004906000526020600020908101906104ba91905b808211156113445760008155600101611330565b5090565b60008083601f84011261135a57600080fd5b50813567ffffffffffffffff81111561137257600080fd5b60208301915083602082850101111561138a57600080fd5b9250929050565b600080602083850312156113a457600080fd5b823567ffffffffffffffff8111156113bb57600080fd5b6113c785828601611348565b90969095509350505050565b6001600160a01b03811681146104ba57600080fd5b6000806000604084860312156113fd57600080fd5b8335611408816113d3565b9250602084013567ffffffffffffffff81111561142457600080fd5b61143086828701611348565b9497909650939450505050565b60006020828403121561144f57600080fd5b813567ffffffffffffffff81111561146657600080fd5b82016060818503121561147857600080fd5b9392505050565b60006020828403121561149157600080fd5b8135611478816113d3565b60005b838110156114b757818101518382015260200161149f565b50506000910152565b600081518084526114d881602086016020860161149c565b601f01601f19169290920160200192915050565b634e487b7160e01b600052602160045260246000fd5b600081516060845261151760608501826114c0565b90506020830151848203602086015261153082826114c0565b915050604083015160068110611548576115486114ec565b806040860152508091505092915050565b60208152600061057d6020830184611502565b6020810160038310611580576115806114ec565b91905290565b60208152600061057d60208301846114c0565b60008083601f8401126115ab57600080fd5b50813567ffffffffffffffff8111156115c357600080fd5b6020830191508360208260051b850101111561138a57600080fd5b600080602083850312156115f157600080fd5b823567ffffffffffffffff81111561160857600080fd5b6113c785828601611599565b634e487b7160e01b600052604160045260246000fd5b6000806040838503121561163d57600080fd5b8235611648816113d3565b9150602083013567ffffffffffffffff8082111561166557600080fd5b818501915085601f83011261167957600080fd5b81358181111561168b5761168b611614565b604051601f8201601f19908116603f011681019083821181831017156116b3576116b3611614565b816040528281528860208487010111156116cc57600080fd5b8260208601602083013760006020848301015280955050505050509250929050565b6000602080830181845280855180835260408601915060408160051b870101925083870160005b8281101561174357603f19888603018452611731858351611502565b94509285019290850190600101611715565b5092979650505050505050565b600181811c9082168061176457607f821691505b60208210810361178457634e487b7160e01b600052602260045260246000fd5b50919050565b601f8211156103d957600081815260208120601f850160051c810160208610156117b15750805b601f850160051c820191505b818110156117d0578281556001016117bd565b505050505050565b600019600383901b1c191660019190911b1790565b67ffffffffffffffff83111561180557611805611614565b611819836118138354611750565b8361178a565b6000601f84116001811461184757600085156118355750838201355b61183f86826117d8565b8455506118a1565b600083815260209020601f19861690835b828110156118785786850135825560209485019460019092019101611858565b50868210156118955760001960f88860031b161c19848701351681555b505060018560011b0183555b5050505050565b6000602082840312156118ba57600080fd5b8151611478816113d3565b634e487b7160e01b600052603260045260246000fd5b60008235605e198336030181126118f157600080fd5b9190910192915050565b634e487b7160e01b600052601160045260246000fd5b600060018201611923576119236118fb565b5060010190565b60018060a01b0384168152600060206060818401526000855461194c81611750565b806060870152608060018084166000811461196e5760018114611988576119b6565b60ff1985168984015283151560051b8901830195506119b6565b8a6000528660002060005b858110156119ae5781548b8201860152908301908801611993565b8a0184019650505b505050505083810360408501526119cd81866114c0565b979650505050505050565b6000602082840312156119ea57600080fd5b8151801515811461147857600080fd5b6000808335601e19843603018112611a1157600080fd5b83018035915067ffffffffffffffff821115611a2c57600080fd5b60200191503681900382131561138a57600080fd5b600082516118f181846020870161149c565b81810381811115610580576105806118fb565b815167ffffffffffffffff811115611a8057611a80611614565b611a9481611a8e8454611750565b8461178a565b602080601f831160018114611ac35760008415611ab15750858301515b611abb85826117d8565b8655506117d0565b600085815260208120601f198616915b82811015611af257888601518255948401946001909101908401611ad3565b5085821015611b105787850151600019600388901b60f8161c191681555b5050505050600190811b01905550565b634e487b7160e01b600052603160045260246000fd5b8183823760009101908152919050565b600681106104ba57600080fd5b6000813561058081611b46565b60068210611b7057611b706114ec565b60ff1981541660ff831681178255505050565b611b8d82836119fa565b67ffffffffffffffff811115611ba557611ba5611614565b611bb981611bb38554611750565b8561178a565b6000601f821160018114611be75760008315611bd55750838201355b611bdf84826117d8565b865550611c41565b600085815260209020601f19841690835b82811015611c185786850135825560209485019460019092019101611bf8565b5084821015611c355760001960f88660031b161c19848701351681555b505060018360011b0185555b50505050611c5260208301836119fa565b611c608183600186016117ed565b50506102bc611c7160408401611b53565b60028301611b60565b600060208284031215611c8c57600080fd5b813561147881611b4656fe3d1f25f1ac447e55e7fec744471c4dab1c6a2b6ffb897825f9ea3d2e8c9be583a26469706673582212204634de887e5ce69b147207f84771f437561284682524aab5912635fc7755200164736f6c63430008130033",
  "linkReferences": {},
  "deployedLinkReferences": {}
}