{
  "_format": "hh-sol-artifact-1",
  "contractName": "ProxyUpgrader",
  "sourceName": "@dlsl/dev-modules/contracts-registry/proxy/ProxyUpgrader.sol",
  "abi": [
    {
      "inputs": [],
      "stateMutability": "nonpayable",
      "type": "constructor"
    },
    {
      "inputs": [
        {
          "internalType": "address",
          "name": "what_",
          "type": "address"
        }
      ],
      "name": "getImplementation",
      "outputs": [
        {
          "internalType": "address",
          "name": "",
          "type": "address"
        }
      ],
      "stateMutability": "view",
      "type": "function"
    },
    {
      "inputs": [
        {
          "internalType": "address",
          "name": "what_",
          "type": "address"
        },
        {
          "internalType": "address",
          "name": "to_",
          "type": "address"
        },
        {
          "internalType": "bytes",
          "name": "data_",
          "type": "bytes"
        }
      ],
      "name": "upgrade",
      "outputs": [],
      "stateMutability": "nonpayable",
      "type": "function"
    }
  ],
  "bytecode": "0x60a060405234801561001057600080fd5b5033608052608051610412610030600039600061023901526104126000f3fe608060405234801561001057600080fd5b50600436106100365760003560e01c806315ac72ca1461003b578063a745e3df1461006a575b600080fd5b61004e6100493660046102c9565b61007f565b6040516001600160a01b03909116815260200160405180910390f35b61007d6100783660046102ed565b610160565b005b6000610089610237565b600080836001600160a01b03166040516100ad90635c60da1b60e01b815260040190565b600060405180830381855afa9150503d80600081146100e8576040519150601f19603f3d011682016040523d82523d6000602084013e6100ed565b606091505b5091509150816101445760405162461bcd60e51b815260206004820152601a60248201527f50726f787955706772616465723a206e6f7420612070726f787900000000000060448201526064015b60405180910390fd5b80806020019051810190610158919061037f565b949350505050565b610168610237565b80156101d55760405163278f794360e11b81526001600160a01b03851690634f1ef2869061019e9086908690869060040161039c565b600060405180830381600087803b1580156101b857600080fd5b505af11580156101cc573d6000803e3d6000fd5b50505050610231565b604051631b2ce7f360e11b81526001600160a01b038481166004830152851690633659cfe690602401600060405180830381600087803b15801561021857600080fd5b505af115801561022c573d6000803e3d6000fd5b505050505b50505050565b7f00000000000000000000000000000000000000000000000000000000000000006001600160a01b031633146102af5760405162461bcd60e51b815260206004820152601b60248201527f50726f787955706772616465723a206e6f7420616e206f776e65720000000000604482015260640161013b565b565b6001600160a01b03811681146102c657600080fd5b50565b6000602082840312156102db57600080fd5b81356102e6816102b1565b9392505050565b6000806000806060858703121561030357600080fd5b843561030e816102b1565b9350602085013561031e816102b1565b9250604085013567ffffffffffffffff8082111561033b57600080fd5b818701915087601f83011261034f57600080fd5b81358181111561035e57600080fd5b88602082850101111561037057600080fd5b95989497505060200194505050565b60006020828403121561039157600080fd5b81516102e6816102b1565b6001600160a01b03841681526040602082018190528101829052818360608301376000818301606090810191909152601f909201601f191601019291505056fea2646970667358221220513e9c6610c755a0760b51cb517eb5a525cee52f841e115f981bba62955f6ebe64736f6c63430008130033",
  "linkReferences": {},
  "deployedLinkReferences": {}
}