{
  "_format": "hh-sol-artifact-1",
  "contractName": "DAOVault",
  "sourceName": "@q-dev/gdk-contracts/DAO/DAOVault.sol",
  "abi": [
    {
      "anonymous": false,
      "inputs": [
        {
          "indexed": true,
          "internalType": "address",
          "name": "tokenAddress",
          "type": "address"
        },
        {
          "indexed": true,
          "internalType": "address",
          "name": "sender",
          "type": "address"
        }
      ],
      "name": "AuthenticatedBySBT",
      "type": "event"
    },
    {
      "anonymous": false,
      "inputs": [
        {
          "indexed": true,
          "internalType": "address",
          "name": "tokenAddress",
          "type": "address"
        },
        {
          "indexed": true,
          "internalType": "address",
          "name": "sender",
          "type": "address"
        }
      ],
      "name": "AuthorizedBySBT",
      "type": "event"
    },
    {
      "anonymous": false,
      "inputs": [
        {
          "indexed": false,
          "internalType": "uint8",
          "name": "version",
          "type": "uint8"
        }
      ],
      "name": "Initialized",
      "type": "event"
    },
    {
      "anonymous": false,
      "inputs": [
        {
          "indexed": true,
          "internalType": "address",
          "name": "tokenAddress",
          "type": "address"
        },
        {
          "indexed": true,
          "internalType": "address",
          "name": "sender",
          "type": "address"
        },
        {
          "indexed": false,
          "internalType": "uint256",
          "name": "tokenId",
          "type": "uint256"
        }
      ],
      "name": "NFTDeposited",
      "type": "event"
    },
    {
      "anonymous": false,
      "inputs": [
        {
          "indexed": true,
          "internalType": "address",
          "name": "tokenAddress",
          "type": "address"
        },
        {
          "indexed": true,
          "internalType": "address",
          "name": "sender",
          "type": "address"
        },
        {
          "indexed": false,
          "internalType": "uint256",
          "name": "tokenId",
          "type": "uint256"
        },
        {
          "indexed": false,
          "internalType": "uint256",
          "name": "unlockTime",
          "type": "uint256"
        }
      ],
      "name": "NFTLocked",
      "type": "event"
    },
    {
      "anonymous": false,
      "inputs": [
        {
          "indexed": true,
          "internalType": "address",
          "name": "tokenAddress",
          "type": "address"
        },
        {
          "indexed": true,
          "internalType": "address",
          "name": "sender",
          "type": "address"
        },
        {
          "indexed": false,
          "internalType": "uint256",
          "name": "tokenId",
          "type": "uint256"
        }
      ],
      "name": "NFTWithdrew",
      "type": "event"
    },
    {
      "anonymous": false,
      "inputs": [
        {
          "indexed": true,
          "internalType": "address",
          "name": "tokenAddress",
          "type": "address"
        },
        {
          "indexed": true,
          "internalType": "address",
          "name": "sender",
          "type": "address"
        }
      ],
      "name": "SBTAuthorizationRevoked",
      "type": "event"
    },
    {
      "anonymous": false,
      "inputs": [
        {
          "indexed": true,
          "internalType": "address",
          "name": "tokenAddress",
          "type": "address"
        },
        {
          "indexed": true,
          "internalType": "address",
          "name": "sender",
          "type": "address"
        },
        {
          "indexed": false,
          "internalType": "uint256",
          "name": "amount",
          "type": "uint256"
        }
      ],
      "name": "TokensDeposited",
      "type": "event"
    },
    {
      "anonymous": false,
      "inputs": [
        {
          "indexed": true,
          "internalType": "address",
          "name": "tokenAddress",
          "type": "address"
        },
        {
          "indexed": true,
          "internalType": "address",
          "name": "sender",
          "type": "address"
        },
        {
          "indexed": false,
          "internalType": "uint256",
          "name": "amount",
          "type": "uint256"
        },
        {
          "indexed": false,
          "internalType": "uint256",
          "name": "unlockTime",
          "type": "uint256"
        }
      ],
      "name": "TokensLocked",
      "type": "event"
    },
    {
      "anonymous": false,
      "inputs": [
        {
          "indexed": true,
          "internalType": "address",
          "name": "tokenAddress",
          "type": "address"
        },
        {
          "indexed": true,
          "internalType": "address",
          "name": "sender",
          "type": "address"
        },
        {
          "indexed": false,
          "internalType": "uint256",
          "name": "amount",
          "type": "uint256"
        }
      ],
      "name": "TokensWithdrew",
      "type": "event"
    },
    {
      "inputs": [],
      "name": "CONNECTED_DAO_REGISTRY",
      "outputs": [
        {
          "internalType": "string",
          "name": "",
          "type": "string"
        }
      ],
      "stateMutability": "view",
      "type": "function"
    },
    {
      "inputs": [],
      "name": "DAO_VAULT_RESOURCE",
      "outputs": [
        {
          "internalType": "string",
          "name": "",
          "type": "string"
        }
      ],
      "stateMutability": "view",
      "type": "function"
    },
    {
      "inputs": [],
      "name": "MAX_LOCKED_TIME",
      "outputs": [
        {
          "internalType": "uint256",
          "name": "",
          "type": "uint256"
        }
      ],
      "stateMutability": "view",
      "type": "function"
    },
    {
      "inputs": [
        {
          "internalType": "contract DAORegistry",
          "name": "dao_",
          "type": "address"
        }
      ],
      "name": "__DAOVault_init",
      "outputs": [],
      "stateMutability": "nonpayable",
      "type": "function"
    },
    {
      "inputs": [
        {
          "internalType": "address",
          "name": "tokenAddress_",
          "type": "address"
        }
      ],
      "name": "authorizeBySBT",
      "outputs": [],
      "stateMutability": "nonpayable",
      "type": "function"
    },
    {
      "inputs": [
        {
          "internalType": "address",
          "name": "tokenAddress_",
          "type": "address"
        },
        {
          "internalType": "uint256",
          "name": "amount_",
          "type": "uint256"
        }
      ],
      "name": "depositERC20",
      "outputs": [],
      "stateMutability": "nonpayable",
      "type": "function"
    },
    {
      "inputs": [
        {
          "internalType": "address",
          "name": "tokenAddress_",
          "type": "address"
        },
        {
          "internalType": "uint256",
          "name": "tokenId_",
          "type": "uint256"
        }
      ],
      "name": "depositNFT",
      "outputs": [],
      "stateMutability": "nonpayable",
      "type": "function"
    },
    {
      "inputs": [],
      "name": "depositNative",
      "outputs": [],
      "stateMutability": "payable",
      "type": "function"
    },
    {
      "inputs": [],
      "name": "getInjector",
      "outputs": [
        {
          "internalType": "address",
          "name": "injector_",
          "type": "address"
        }
      ],
      "stateMutability": "view",
      "type": "function"
    },
    {
      "inputs": [
        {
          "internalType": "address",
          "name": "userAddress_",
          "type": "address"
        },
        {
          "internalType": "address",
          "name": "tokenAddress_",
          "type": "address"
        }
      ],
      "name": "getTimeLockInfo",
      "outputs": [
        {
          "components": [
            {
              "internalType": "uint256",
              "name": "withdrawalAmount",
              "type": "uint256"
            },
            {
              "internalType": "uint256",
              "name": "lockedAmount",
              "type": "uint256"
            },
            {
              "internalType": "uint256",
              "name": "unlockTime",
              "type": "uint256"
            }
          ],
          "internalType": "struct IDAOVault.TomeLockInfo",
          "name": "info_",
          "type": "tuple"
        }
      ],
      "stateMutability": "view",
      "type": "function"
    },
    {
      "inputs": [
        {
          "internalType": "address",
          "name": "tokenAddress_",
          "type": "address"
        }
      ],
      "name": "getTokenSupply",
      "outputs": [
        {
          "internalType": "uint256",
          "name": "",
          "type": "uint256"
        }
      ],
      "stateMutability": "view",
      "type": "function"
    },
    {
      "inputs": [
        {
          "internalType": "address",
          "name": "userAddress_",
          "type": "address"
        },
        {
          "internalType": "address",
          "name": "tokenAddress_",
          "type": "address"
        }
      ],
      "name": "getUserNFTs",
      "outputs": [
        {
          "internalType": "uint256[]",
          "name": "",
          "type": "uint256[]"
        }
      ],
      "stateMutability": "view",
      "type": "function"
    },
    {
      "inputs": [
        {
          "internalType": "address",
          "name": "userAddress_",
          "type": "address"
        }
      ],
      "name": "getUserTokens",
      "outputs": [
        {
          "internalType": "address[]",
          "name": "",
          "type": "address[]"
        }
      ],
      "stateMutability": "view",
      "type": "function"
    },
    {
      "inputs": [
        {
          "internalType": "address",
          "name": "userAddress_",
          "type": "address"
        },
        {
          "internalType": "address",
          "name": "tokenAddress_",
          "type": "address"
        }
      ],
      "name": "getUserVotingPower",
      "outputs": [
        {
          "internalType": "uint256",
          "name": "",
          "type": "uint256"
        }
      ],
      "stateMutability": "view",
      "type": "function"
    },
    {
      "inputs": [
        {
          "internalType": "address",
          "name": "sender_",
          "type": "address"
        },
        {
          "internalType": "address",
          "name": "tokenAddress_",
          "type": "address"
        }
      ],
      "name": "isAuthorizedBySBT",
      "outputs": [
        {
          "internalType": "bool",
          "name": "",
          "type": "bool"
        }
      ],
      "stateMutability": "view",
      "type": "function"
    },
    {
      "inputs": [
        {
          "internalType": "address",
          "name": "tokenAddress_",
          "type": "address"
        }
      ],
      "name": "isSupportedNFT",
      "outputs": [
        {
          "internalType": "bool",
          "name": "",
          "type": "bool"
        }
      ],
      "stateMutability": "view",
      "type": "function"
    },
    {
      "inputs": [
        {
          "internalType": "address",
          "name": "tokenAddress_",
          "type": "address"
        }
      ],
      "name": "isSupportedSBT",
      "outputs": [
        {
          "internalType": "bool",
          "name": "",
          "type": "bool"
        }
      ],
      "stateMutability": "view",
      "type": "function"
    },
    {
      "inputs": [
        {
          "internalType": "address",
          "name": "sender_",
          "type": "address"
        },
        {
          "internalType": "address",
          "name": "tokenAddress_",
          "type": "address"
        },
        {
          "internalType": "uint256",
          "name": "amount_",
          "type": "uint256"
        },
        {
          "internalType": "uint256",
          "name": "timeToLock_",
          "type": "uint256"
        }
      ],
      "name": "lock",
      "outputs": [],
      "stateMutability": "nonpayable",
      "type": "function"
    },
    {
      "inputs": [
        {
          "internalType": "address",
          "name": "",
          "type": "address"
        },
        {
          "internalType": "address",
          "name": "",
          "type": "address"
        }
      ],
      "name": "lockedTokens",
      "outputs": [
        {
          "components": [
            {
              "internalType": "bytes32[]",
              "name": "_values",
              "type": "bytes32[]"
            },
            {
              "internalType": "uint256[]",
              "name": "_priorities",
              "type": "uint256[]"
            }
          ],
          "internalType": "struct PriorityQueue.Queue",
          "name": "_queue",
          "type": "tuple"
        }
      ],
      "stateMutability": "view",
      "type": "function"
    },
    {
      "inputs": [],
      "name": "permissionManager",
      "outputs": [
        {
          "internalType": "contract PermissionManager",
          "name": "",
          "type": "address"
        }
      ],
      "stateMutability": "view",
      "type": "function"
    },
    {
      "inputs": [
        {
          "internalType": "address",
          "name": "tokenAddress_",
          "type": "address"
        }
      ],
      "name": "revokeSBTAuthorization",
      "outputs": [],
      "stateMutability": "nonpayable",
      "type": "function"
    },
    {
      "inputs": [
        {
          "internalType": "address",
          "name": "registryAddress_",
          "type": "address"
        },
        {
          "internalType": "bytes",
          "name": "",
          "type": "bytes"
        }
      ],
      "name": "setDependencies",
      "outputs": [],
      "stateMutability": "nonpayable",
      "type": "function"
    },
    {
      "inputs": [
        {
          "internalType": "address",
          "name": "injector_",
          "type": "address"
        }
      ],
      "name": "setInjector",
      "outputs": [],
      "stateMutability": "nonpayable",
      "type": "function"
    },
    {
      "inputs": [
        {
          "internalType": "address",
          "name": "",
          "type": "address"
        }
      ],
      "name": "tokenBalance",
      "outputs": [
        {
          "internalType": "uint256",
          "name": "",
          "type": "uint256"
        }
      ],
      "stateMutability": "view",
      "type": "function"
    },
    {
      "inputs": [
        {
          "internalType": "address",
          "name": "",
          "type": "address"
        },
        {
          "internalType": "address",
          "name": "",
          "type": "address"
        }
      ],
      "name": "userTokenBalance",
      "outputs": [
        {
          "internalType": "uint256",
          "name": "",
          "type": "uint256"
        }
      ],
      "stateMutability": "view",
      "type": "function"
    },
    {
      "inputs": [
        {
          "internalType": "address",
          "name": "tokenAddress_",
          "type": "address"
        },
        {
          "internalType": "uint256",
          "name": "amount_",
          "type": "uint256"
        }
      ],
      "name": "withdrawERC20",
      "outputs": [],
      "stateMutability": "nonpayable",
      "type": "function"
    },
    {
      "inputs": [
        {
          "internalType": "address",
          "name": "tokenAddress_",
          "type": "address"
        },
        {
          "internalType": "uint256",
          "name": "tokenId_",
          "type": "uint256"
        }
      ],
      "name": "withdrawNFT",
      "outputs": [],
      "stateMutability": "nonpayable",
      "type": "function"
    },
    {
      "inputs": [
        {
          "internalType": "uint256",
          "name": "amount_",
          "type": "uint256"
        }
      ],
      "name": "withdrawNative",
      "outputs": [],
      "stateMutability": "nonpayable",
      "type": "function"
    },
    {
      "stateMutability": "payable",
      "type": "receive"
    }
  ],
  "bytecode": "0x608060405234801561001057600080fd5b5061366a806100206000396000f3fe6080604052600436106101bb5760003560e01c806384276d81116100ec578063b47064c81161008a578063d62f0f0511610064578063d62f0f051461059b578063db6b5246146105bb578063eedc966a146105c3578063f2866c78146105f057600080fd5b8063b47064c814610523578063c615f5ff1461055b578063cc7a20491461057b57600080fd5b80638cb941cc116100c65780638cb941cc146104a357806397feb926146104c35780639b5b9b18146104e3578063a1db97821461050357600080fd5b806384276d811461044e5780638a729d571461046e5780638c9b2f191461048e57600080fd5b80634b86c225116101595780635f10bb5a116101335780635f10bb5a146103ce5780636088e93a146103ee57806365ed36191461040e578063691304511461042e57600080fd5b80634b86c22514610361578063519dc8d2146103815780635ba6fdae146103ae57600080fd5b80631b465d85116101955780631b465d85146102935780631b956801146102c35780633291bc00146102e95780633e3b5b191461032b57600080fd5b80630774e003146101e5578063155ad9da1461021b57806316b728171461024857600080fd5b366101e0576101de73eeeeeeeeeeeeeeeeeeeeeeeeeeeeeeeeeeeeeeee34610610565b005b600080fd5b3480156101f157600080fd5b50610205610200366004612f3e565b6107fc565b6040516102129190612fb2565b60405180910390f35b34801561022757600080fd5b5061023b610236366004612f3e565b6108cc565b6040516102129190613013565b34801561025457600080fd5b506102866040518060400160405280601281526020017144414f5f5641554c545f5245534f5552434560701b81525081565b6040516102129190613076565b34801561029f57600080fd5b506102b36102ae366004612f3e565b610906565b6040519015158152602001610212565b3480156102cf57600080fd5b506102db6301e1338081565b604051908152602001610212565b3480156102f557600080fd5b50610309610304366004612f3e565b61099b565b6040805182518152602080840151908201529181015190820152606001610212565b34801561033757600080fd5b50600080516020613615833981519152545b6040516001600160a01b039091168152602001610212565b34801561036d57600080fd5b506101de61037c366004613089565b610a2f565b34801561038d57600080fd5b506103a161039c3660046130cf565b610c22565b60405161021291906130ec565b3480156103ba57600080fd5b506101de6103c93660046130cf565b610c46565b3480156103da57600080fd5b506102db6103e9366004612f3e565b610dc4565b3480156103fa57600080fd5b506101de610409366004613139565b610ecf565b34801561041a57600080fd5b506101de6104293660046130cf565b6110a2565b34801561043a57600080fd5b506101de610449366004613165565b6111f7565b34801561045a57600080fd5b506101de6104693660046131ea565b6112a2565b34801561047a57600080fd5b506102b36104893660046130cf565b6112c3565b34801561049a57600080fd5b506102866112ef565b3480156104af57600080fd5b506101de6104be3660046130cf565b61137d565b3480156104cf57600080fd5b506101de6104de366004613139565b61139b565b3480156104ef57600080fd5b506101de6104fe366004613139565b61141d565b34801561050f57600080fd5b506101de61051e366004613139565b6115ea565b34801561052f57600080fd5b506102db61053e366004612f3e565b600360209081526000928352604080842090915290825290205481565b34801561056757600080fd5b506101de6105763660046130cf565b6115f4565b34801561058757600080fd5b50600254610349906001600160a01b031681565b3480156105a757600080fd5b506102b36105b63660046130cf565b6116c0565b6101de6116fd565b3480156105cf57600080fd5b506102db6105de3660046130cf565b60056020526000908152604090205481565b3480156105fc57600080fd5b506102db61060b3660046130cf565b61171d565b33600090815260066020526040902061062990836117c2565b503360009081526003602090815260408083206001600160a01b03861684529091528120805483929061065d908490613219565b90915550506001600160a01b0382166000908152600560205260408120805483929061068a908490613219565b9091555050600254600180546001600160a01b039092169163fcddfd4a91339161073b91906106b89061322c565b80601f01602080910402602001604051908101604052809291908181526020018280546106e49061322c565b80156107315780601f1061070657610100808354040283529160200191610731565b820191906000526020600020905b81548152906001019060200180831161071457829003601f168201915b50505050506117d7565b6040518363ffffffff1660e01b8152600401610758929190613266565b600060405180830381600087803b15801561077257600080fd5b505af1158015610786573d6000803e3d6000fd5b50503360009081526004602090815260408083206001600160a01b038816845290915290206107b79250905061180f565b60405181815233906001600160a01b038416907fcbc4a4091b012bb1329c38bbbb15455f5cac5aa3673da0a7f38cd61a4f495517906020015b60405180910390a35050565b600460209081526000928352604080842082529183529181902081518154606094810282018501845292810183815291939092849284929091849184018282801561086657602002820191906000526020600020905b815481526020019060010190808311610852575b50505050508152602001600182018054806020026020016040519081016040528092919081815260200182805480156108be57602002820191906000526020600020905b8154815260200190600101908083116108aa575b505050505081525050905081565b6001600160a01b0380831660009081526007602090815260408083209385168352929052206060906108fd90611843565b90505b92915050565b6000610911826112c3565b801561098557506040516370a0823160e01b81526001600160a01b0384811660048301528316906370a0823190602401602060405180830381865afa15801561095e573d6000803e3d6000fd5b505050506040513d601f19601f8201168201806040525081019061098291906132d8565b15155b1561099257506001610900565b50600092915050565b6109bf60405180606001604052806000815260200160008152602001600081525090565b6001600160a01b03808416600081815260036020908152604080832094871680845294825280832054938352600482528083209483529390529182209091908190610a0a9084611857565b8186529092509050610a1c82846132f1565b6020850152604084015250909392505050565b610a566040518060400160405280600681526020016555504441544560d01b815250611950565b610a64426301e13380613219565b811115610ac85760405162461bcd60e51b815260206004820152602760248201527f5b5147444b2d3030373030325d2d546865206c6f636b2074696d65206973207460448201526637b7903134b39760c91b60648201526084015b60405180910390fd5b610ad1836112c3565b15610b2557610ae08484611a73565b836001600160a01b0316836001600160a01b03167febd9c0ebdf8165fc5da27059cc612a2a9a554570ae02eaffebd5927e0b42ba0360405160405180910390a3610c1c565b610b2e836116c0565b15610b4357610b3e848483611bb2565b610c1c565b60008211610bb95760405162461bcd60e51b815260206004820152603760248201527f5b5147444b2d3030373030335d2d54686520616d6f756e7420746f206c6f636b60448201527f2073686f756c64206265206d6f7265207468616e20302e0000000000000000006064820152608401610abf565b610bc584848484611ce1565b836001600160a01b0316836001600160a01b03167fc8b76441f0c994977de3f73de32b3573a68b94e5d786ffd899638438754c9de98484604051610c13929190918252602082015260400190565b60405180910390a35b50505050565b6001600160a01b038116600090815260066020526040902060609061090090611843565b600054610100900460ff1615808015610c665750600054600160ff909116105b80610c805750303b158015610c80575060005460ff166001145b610ce35760405162461bcd60e51b815260206004820152602e60248201527f496e697469616c697a61626c653a20636f6e747261637420697320616c72656160448201526d191e481a5b9a5d1a585b1a5e995960921b6064820152608401610abf565b6000805460ff191660011790558015610d06576000805461ff0019166101001790555b816001600160a01b0316633e4beca16040518163ffffffff1660e01b8152600401600060405180830381865afa158015610d44573d6000803e3d6000fd5b505050506040513d6000823e601f3d908101601f19168201604052610d6c919081019061331a565b600190610d79908261340a565b508015610dc0576000805461ff0019169055604051600181527f7f26b83ff96e1f2b6a682f133852f6798a09c465da95921460cefb38474024989060200160405180910390a15b5050565b6000610dcf826112c3565b15610e59576040516370a0823160e01b81526001600160a01b0384811660048301528316906370a0823190602401602060405180830381865afa158015610e1a573d6000803e3d6000fd5b505050506040513d601f19601f82011682018060405250810190610e3e91906132d8565b600003610e4c576000610e4f565b60015b60ff169050610900565b610e62826116c0565b15610ea3576001600160a01b0380841660009081526007602090815260408083209386168352929052908120610e9790611dc5565b11610e4c576000610e4f565b506001600160a01b03918216600090815260036020908152604080832093909416825291909152205490565b3360009081526004602090815260408083206001600160a01b03861684529091529020610efc9082611dcf565b610f5d5760405162461bcd60e51b815260206004820152602c60248201527f5b5147444b2d3030373030345d2d547279696e6720746f20776974686472617760448201526b103637b1b5b2b21027232a1760a11b6064820152608401610abf565b3360009081526007602090815260408083206001600160a01b03861684529091528120610f8a9082611e4c565b3360009081526007602090815260408083206001600160a01b03881684529091529020909150610fba9082611e58565b503360009081526007602090815260408083206001600160a01b03871684529091529020610fe790611dc5565b600003610ff757610ff783611e64565b6040516323b872dd60e01b8152306004820152336024820152604481018290526001600160a01b038416906323b872dd90606401600060405180830381600087803b15801561104557600080fd5b505af1158015611059573d6000803e3d6000fd5b50506040518481523392506001600160a01b03861691507fc617bea150d0faba989138893645e26986fe9575047f0976d166a8d368a68acf9060200160405180910390a3505050565b6110ac3382610906565b61112c5760405162461bcd60e51b815260206004820152604560248201527f5b5147444b2d3030373030315d2d5468652075736572206973206e6f7420617560448201527f74686f72697a6564206f7220746f6b656e20646f6573206e6f7420737570706f606482015264393a32b21760d91b608482015260a401610abf565b33600090815260066020526040902061114590826117c2565b50600254600180546001600160a01b039092169163fcddfd4a91339161116f91906106b89061322c565b6040518363ffffffff1660e01b815260040161118c929190613266565b600060405180830381600087803b1580156111a657600080fd5b505af11580156111ba573d6000803e3d6000fd5b50506040513392506001600160a01b03841691507f7ab50fbe6badc8cf1b546b0ac8273949b92081d7ac314cff86422dd35676a59090600090a350565b6111ff611f11565b6000839050806001600160a01b0316639a06df506040518163ffffffff1660e01b8152600401602060405180830381865afa158015611242573d6000803e3d6000fd5b505050506040513d601f19601f8201168201806040525081019061126691906134ca565b600280546001600160a01b0319166001600160a01b0392909216919091179055503360008051602061361583398151915255505050565b505050565b6112c073eeeeeeeeeeeeeeeeeeeeeeeeeeeeeeeeeeeeeeee82611f95565b50565b60006112ce826116c0565b801561090057506109006001600160a01b038316630489b56f60e01b6121e7565b600180546112fc9061322c565b80601f01602080910402602001604051908101604052809291908181526020018280546113289061322c565b80156113755780601f1061134a57610100808354040283529160200191611375565b820191906000526020600020905b81548152906001019060200180831161135857829003601f168201915b505050505081565b611385611f11565b6112c08160008051602061361583398151915255565b6040516323b872dd60e01b8152336004820152306024820152604481018290526001600160a01b038316906323b872dd906064016020604051808303816000875af11580156113ee573d6000803e3d6000fd5b505050506040513d601f19601f8201168201806040525081019061141291906134e7565b50610dc08282610610565b611426826116c0565b6114865760405162461bcd60e51b815260206004820152602b60248201527f5b5147444b2d3030373030305d2d54686520746f6b656e20646f6573206e6f7460448201526a1039bab83837b93a32b21760a91b6064820152608401610abf565b6040516323b872dd60e01b8152336004820152306024820152604481018290526001600160a01b038316906323b872dd90606401600060405180830381600087803b1580156114d457600080fd5b505af11580156114e8573d6000803e3d6000fd5b505033600090815260066020526040902061150692509050836117c2565b503360009081526007602090815260408083206001600160a01b038616845290915290206115349082612203565b50600254600180546001600160a01b039092169163fcddfd4a91339161155e91906106b89061322c565b6040518363ffffffff1660e01b815260040161157b929190613266565b600060405180830381600087803b15801561159557600080fd5b505af11580156115a9573d6000803e3d6000fd5b50506040518381523392506001600160a01b03851691507f2214288c094665e4969e2968c71e56e0ab3c69646a5c773ec8c2a7ca3bf18808906020016107f0565b610dc08282611f95565b6115fe3382610906565b61167e5760405162461bcd60e51b815260206004820152604560248201527f5b5147444b2d3030373030355d2d5468652075736572206973206e6f7420617560448201527f74686f72697a6564206f7220746f6b656e20646f6573206e6f7420737570706f606482015264393a32b21760d91b608482015260a401610abf565b61168781611e64565b60405133906001600160a01b038316907f6a6868ce3517ae462252ae560c23849f8e855d8d526b13f928c896f534b6afb490600090a350565b60006116dc6001600160a01b0383166380ac58cd60e01b6121e7565b801561090057506109006001600160a01b03831663780e9d6360e01b6121e7565b61171b73eeeeeeeeeeeeeeeeeeeeeeeeeeeeeeeeeeeeeeee34610610565b565b600073eeeeeeeeeeeeeeeeeeeeeeeeeeeeeeeeeeeeeeed196001600160a01b0383160161176057506001600160a01b031660009081526005602052604090205490565b816001600160a01b03166318160ddd6040518163ffffffff1660e01b8152600401602060405180830381865afa15801561179e573d6000803e3d6000fd5b505050506040513d601f19601f8201168201806040525081019061090091906132d8565b60006108fd836001600160a01b03841661220b565b60606109006040518060200160405280846040516020016117f89190613509565b60405160208183030381529060405281525061225a565b425b600061181c83611dc5565b11801561183057508061182e836122ae565b105b15610dc05761183e826122b9565b611811565b60606000611850836122c2565b9392505050565b6000806000806118668661231e565b915091506000805b8351811015611925574284828151811061188a5761188a61353a565b60200260200101511061191357848482815181106118aa576118aa61353a565b602002602001015111156118d5578381815181106118ca576118ca61353a565b602002602001015194505b818382815181106118e8576118e861353a565b60200260200101511115611913578281815181106119085761190861353a565b602002602001015191505b8061191d81613550565b91505061186e565b508581106119395760009450505050611949565b61194381876132f1565b94505050505b9250929050565b600254604080518082018252601281527144414f5f5641554c545f5245534f5552434560701b60208201529051633ca8e36d60e11b81526001600160a01b0390921691637951c6da916119aa913391908690600401613569565b602060405180830381865afa1580156119c7573d6000803e3d6000fd5b505050506040513d601f19601f820116820180604052508101906119eb91906134e7565b6112c05760405162461bcd60e51b815260206004820152604d60248201527f5b5147444b2d3030373031315d2d5468652073656e646572206973206e6f742060448201527f616c6c6f77656420746f20706572666f726d2074686520616374696f6e2c206160648201526c31b1b2b9b9903232b734b2b21760991b608482015260a401610abf565b6040516370a0823160e01b81526001600160a01b038381166004830152600091908316906370a0823190602401602060405180830381865afa158015611abd573d6000803e3d6000fd5b505050506040513d601f19601f82011682018060405250810190611ae191906132d8565b6001600160a01b0384166000908152600660205260408120911515925090611b099084612342565b9050818015611b155750805b15611b205750505050565b81611b895760405162461bcd60e51b815260206004820152603360248201527f5b5147444b2d3030373030365d2d546865207573657220646f6573206e6f74206044820152723430bb32903a34329029a12a103a37b5b2b71760691b6064820152608401610abf565b6001600160a01b0384166000908152600660205260409020611bab90846117c2565b5050505050565b6001600160a01b0380841660009081526007602090815260408083209386168352929052908120611be290611dc5565b11611c2f5760405162461bcd60e51b815260206004820152601d60248201527f5b5147444b2d3030373030385d2d4e6f204e465420746f206c6f636b2e0000006044820152606401610abf565b6001600160a01b0380841660009081526007602090815260408083209386168352929052908120611c609082611e4c565b6001600160a01b038086166000908152600460209081526040808320938816835292905220909150611c93908284612364565b836001600160a01b0316836001600160a01b03167f20396bfcfa769a8877030da41fa31e149ebb9173688ae00a7fdb9b8c50b913b78385604051610c13929190918252602082015260400190565b6001600160a01b03808516600090815260036020908152604080832093871683529290522054821115611d675760405162461bcd60e51b815260206004820152602860248201527f5b5147444b2d3030373030375d2d4e6f7420656e6f75676820746f6b656e73206044820152673a37903637b1b59760c11b6064820152608401610abf565b6001600160a01b038085166000908152600460209081526040808320938716835292905220611d959061180f565b6001600160a01b038085166000908152600460209081526040808320938716835292905220610c1c9083836123ce565b6000610900825490565b6000611dda83611dc5565b600003611de957506001610900565b8183600001600101600081548110611e0357611e0361353a565b906000526020600020015414611e1b57506001610900565b825442908490600090611e3057611e3061353a565b906000526020600020015460001c101561099257506001610900565b60006108fd83836123d9565b60006108fd8383612403565b336000908152600660205260409020611e7d90826124f6565b50336000908152600660205260409020611e9690611dc5565b6000036112c057600254600180546001600160a01b0390921691639a9aa8d4913391611ec691906106b89061322c565b6040518363ffffffff1660e01b8152600401611ee3929190613266565b600060405180830381600087803b158015611efd57600080fd5b505af1158015611bab573d6000803e3d6000fd5b6000611f296000805160206136158339815191525490565b90506001600160a01b0381161580611f4957506001600160a01b03811633145b6112c05760405162461bcd60e51b815260206004820152601a60248201527f446570656e64616e743a206e6f7420616e20696e6a6563746f720000000000006044820152606401610abf565b3360008181526003602090815260408083206001600160a01b03871680855290835281842054948452600483528184209084529091529020611fd7918361250b565b61203e5760405162461bcd60e51b815260206004820152603260248201527f5b5147444b2d3030373030395d2d547279696e6720746f2077697468647261776044820152711036b7b932903a3430b7103637b1b5b2b21760711b6064820152608401610abf565b3360009081526003602090815260408083206001600160a01b03861684529091529020548111156120c65760405162461bcd60e51b815260206004820152602c60248201527f5b5147444b2d3030373031305d2d4e6f7420656e6f75676820746f6b656e732060448201526b3a37903bb4ba34323930bb9760a11b6064820152608401610abf565b3360009081526003602090815260408083206001600160a01b03861684529091529020546120f59082906132f1565b6000036121055761210582611e64565b3360009081526003602090815260408083206001600160a01b0386168452909152812080548392906121389084906132f1565b90915550506001600160a01b038216600090815260056020526040812080548392906121659084906132f1565b90915550503360009081526004602090815260408083206001600160a01b038616845290915290206121969061180f565b6121aa6001600160a01b038316338361257c565b60405181815233906001600160a01b038416907ffd3c769270d445b58006501ec3c836a667c58d0b51d98cbb007d4d040a93c09e906020016107f0565b60006121f283612676565b80156108fd57506108fd83836126a9565b60006108fd83835b600081815260018301602052604081205461225257508154600181810184556000848152602080822090930184905584548482528286019093526040902091909155610900565b506000610900565b604080516001808252818301909252606091816020015b60608152602001906001900390816122715750508251815191925090829060009061229e5761229e61353a565b6020026020010181905250919050565b600061090082612732565b6112c081612765565b60608160000180548060200260200160405190810160405280929190818152602001828054801561231257602002820191906000526020600020905b8154815260200190600101908083116122fe575b50505050509050919050565b60608061233061232d846122c2565b90565b6123398461286b565b91509150915091565b6001600160a01b038116600090815260018301602052604081205415156108fd565b61236d83611dc5565b60000361237f5761129d8382846128c5565b8254819084906000906123945761239461353a565b906000526020600020015460001c101561129d578254819084906000906123bd576123bd61353a565b600091825260209091200155505050565b61129d8382846128c5565b60008260000182815481106123f0576123f061353a565b9060005260206000200154905092915050565b600081815260018301602052604081205480156124ec5760006124276001836132f1565b855490915060009061243b906001906132f1565b90508181146124a057600086600001828154811061245b5761245b61353a565b906000526020600020015490508087600001848154811061247e5761247e61353a565b6000918252602080832090910192909255918252600188019052604090208390555b85548690806124b1576124b16135a9565b600190038181906000526020600020016000905590558560010160008681526020019081526020016000206000905560019350505050610900565b6000915050610900565b60006108fd836001600160a01b038416612403565b6000425b600061251a86611dc5565b11156125715760008061252c876128d0565b915091508282101561254857612541876122b9565b505061250f565b856125538287613219565b11156125655760009350505050611850565b60019350505050611850565b506001949350505050565b73eeeeeeeeeeeeeeeeeeeeeeeeeeeeeeeeeeeeeeed196001600160a01b03841601612662576000826001600160a01b03168260405160006040518083038185875af1925050503d80600081146125ee576040519150601f19603f3d011682016040523d82523d6000602084013e6125f3565b606091505b5050905080610c1c5760405162461bcd60e51b815260206004820152603560248201527f5b5147444b2d3031393030305d2d5472616e7366657272696e67206f66206e616044820152743a34bb329031bab93932b731bc903330b4b632b21760591b6064820152608401610abf565b61129d6001600160a01b03841683836128ea565b6000612689826301ffc9a760e01b6126a9565b801561090057506126a2826001600160e01b03196126a9565b1592915050565b604080516001600160e01b03198316602480830191909152825180830390910181526044909101909152602080820180516001600160e01b03166301ffc9a760e01b178152825160009392849283928392918391908a617530fa92503d9150600051905082801561271b575060208210155b80156127275750600081115b979650505050505050565b600061273d8261293c565b816000016000815481106127535761275361353a565b90600052602060002001549050919050565b61276e8161293c565b6000612778825490565b9050816127866001836132f1565b815481106127965761279661353a565b9060005260206000200154826000016000815481106127b7576127b761353a565b6000918252602090912001556001808301906127d390836132f1565b815481106127e3576127e361353a565b9060005260206000200154826001016000815481106128045761280461353a565b6000918252602090912001558154829080612821576128216135a9565b600190038181906000526020600020016000905590558160010180548061284a5761284a6135a9565b60019003818190600052602060002001600090559055610dc0826000612993565b60608160010180548060200260200160405190810160405280929190818152602001828054801561231257602002820191906000526020600020908154815260200190600101908083116122fe5750505050509050919050565b61129d8383836129bf565b60008080806128de85612a05565b90969095509350505050565b604080516001600160a01b038416602482015260448082018490528251808303909101815260649091019091526020810180516001600160e01b031663a9059cbb60e01b17905261129d908490612a3b565b6000612946825490565b116112c05760405162461bcd60e51b815260206004820152601a60248201527f5072696f7269747951756575653a20656d7074792071756575650000000000006044820152606401610abf565b600061299f8383612b10565b90508082036129ad57505050565b6129b8838284612bda565b9050612993565b8254600181810185556000858152602080822090930185905581860180548084018255908252929020909101829055835461129d918591612a0091906132f1565b612cea565b600080612a1183612732565b83600101600081548110612a2757612a2761353a565b906000526020600020015491509150915091565b6000612a90826040518060400160405280602081526020017f5361666545524332303a206c6f772d6c6576656c2063616c6c206661696c6564815250856001600160a01b0316612d609092919063ffffffff16565b9050805160001480612ab1575080806020019051810190612ab191906134e7565b61129d5760405162461bcd60e51b815260206004820152602a60248201527f5361666545524332303a204552433230206f7065726174696f6e20646964206e6044820152691bdd081cdd58d8d9595960b21b6064820152608401610abf565b600182018054600091908383612b2582612d77565b90508281108015612b6d5750838281548110612b4357612b4361353a565b9060005260206000200154848281548110612b6057612b6061353a565b9060005260206000200154115b15612b76578091505b612b7f86612d8f565b90508281108015612bc75750838281548110612b9d57612b9d61353a565b9060005260206000200154848281548110612bba57612bba61353a565b9060005260206000200154115b15612bd0578091505b5095945050505050565b825483906001820190829084908110612bf557612bf561353a565b9060005260206000200154828581548110612c1257612c1261353a565b9060005260206000200154838681548110612c2f57612c2f61353a565b906000526020600020016000858781548110612c4d57612c4d61353a565b906000526020600020016000849190505583919050555050808381548110612c7757612c7761353a565b9060005260206000200154818581548110612c9457612c9461353a565b9060005260206000200154828681548110612cb157612cb161353a565b906000526020600020016000848781548110612ccf57612ccf61353a565b60009182526020909120019290925591909155505050505050565b6000826001018281548110612d0157612d0161353a565b906000526020600020015490505b811561129d576000612d2083612da7565b905081846001018281548110612d3857612d3861353a565b906000526020600020015410612d4e5750505050565b612d59848285612bda565b9150612d0f565b6060612d6f8484600085612dc0565b949350505050565b6000612d848260026135bf565b610900906001613219565b6000612d9c8260026135bf565b610900906002613219565b60006002612db66001846132f1565b61090091906135d6565b606082471015612e215760405162461bcd60e51b815260206004820152602660248201527f416464726573733a20696e73756666696369656e742062616c616e636520666f6044820152651c8818d85b1b60d21b6064820152608401610abf565b600080866001600160a01b03168587604051612e3d91906135f8565b60006040518083038185875af1925050503d8060008114612e7a576040519150601f19603f3d011682016040523d82523d6000602084013e612e7f565b606091505b50915091506127278783838760608315612efa578251600003612ef3576001600160a01b0385163b612ef35760405162461bcd60e51b815260206004820152601d60248201527f416464726573733a2063616c6c20746f206e6f6e2d636f6e74726163740000006044820152606401610abf565b5081612d6f565b612d6f8383815115612f0f5781518083602001fd5b8060405162461bcd60e51b8152600401610abf9190613076565b6001600160a01b03811681146112c057600080fd5b60008060408385031215612f5157600080fd5b8235612f5c81612f29565b91506020830135612f6c81612f29565b809150509250929050565b600081518084526020808501945080840160005b83811015612fa757815187529582019590820190600101612f8b565b509495945050505050565b6020808252825160408383015280516060840181905260009291820190839060808601905b80831015612ff75783518252928401926001929092019190840190612fd7565b5092860151858403601f19016040870152926127278185612f77565b6020815260006108fd6020830184612f77565b60005b83811015613041578181015183820152602001613029565b50506000910152565b60008151808452613062816020860160208601613026565b601f01601f19169290920160200192915050565b6020815260006108fd602083018461304a565b6000806000806080858703121561309f57600080fd5b84356130aa81612f29565b935060208501356130ba81612f29565b93969395505050506040820135916060013590565b6000602082840312156130e157600080fd5b813561185081612f29565b6020808252825182820181905260009190848201906040850190845b8181101561312d5783516001600160a01b031683529284019291840191600101613108565b50909695505050505050565b6000806040838503121561314c57600080fd5b823561315781612f29565b946020939093013593505050565b60008060006040848603121561317a57600080fd5b833561318581612f29565b9250602084013567ffffffffffffffff808211156131a257600080fd5b818601915086601f8301126131b657600080fd5b8135818111156131c557600080fd5b8760208285010111156131d757600080fd5b6020830194508093505050509250925092565b6000602082840312156131fc57600080fd5b5035919050565b634e487b7160e01b600052601160045260246000fd5b8082018082111561090057610900613203565b600181811c9082168061324057607f821691505b60208210810361326057634e487b7160e01b600052602260045260246000fd5b50919050565b60006040820160018060a01b0385168352602060408185015281855180845260608601915060608160051b870101935082870160005b828110156132ca57605f198887030184526132b886835161304a565b9550928401929084019060010161329c565b509398975050505050505050565b6000602082840312156132ea57600080fd5b5051919050565b8181038181111561090057610900613203565b634e487b7160e01b600052604160045260246000fd5b60006020828403121561332c57600080fd5b815167ffffffffffffffff8082111561334457600080fd5b818401915084601f83011261335857600080fd5b81518181111561336a5761336a613304565b604051601f8201601f19908116603f0116810190838211818310171561339257613392613304565b816040528281528760208487010111156133ab57600080fd5b612727836020830160208801613026565b601f82111561129d57600081815260208120601f850160051c810160208610156133e35750805b601f850160051c820191505b81811015613402578281556001016133ef565b505050505050565b815167ffffffffffffffff81111561342457613424613304565b61343881613432845461322c565b846133bc565b602080601f83116001811461346d57600084156134555750858301515b600019600386901b1c1916600185901b178555613402565b600085815260208120601f198616915b8281101561349c5788860151825594840194600190910190840161347d565b50858210156134ba5787850151600019600388901b60f8161c191681555b5050505050600190811b01905550565b6000602082840312156134dc57600080fd5b815161185081612f29565b6000602082840312156134f957600080fd5b8151801515811461185057600080fd5b682220a7a3b937bab81d60b91b81526000825161352d816009850160208701613026565b9190910160090192915050565b634e487b7160e01b600052603260045260246000fd5b60006001820161356257613562613203565b5060010190565b6001600160a01b038416815260606020820181905260009061358d9083018561304a565b828103604084015261359f818561304a565b9695505050505050565b634e487b7160e01b600052603160045260246000fd5b808202811582820484141761090057610900613203565b6000826135f357634e487b7160e01b600052601260045260246000fd5b500490565b6000825161360a818460208701613026565b919091019291505056fe3d1f25f1ac447e55e7fec744471c4dab1c6a2b6ffb897825f9ea3d2e8c9be583a26469706673582212207cf83856e6ecda6a0c208c6db4aceafba008467852da02aea89601c7473b62f064736f6c63430008130033",
  "linkReferences": {},
  "deployedLinkReferences": {}
}